{
  "_format": "hh-sol-artifact-1",
  "contractName": "Solove",
  "sourceName": "contracts/Solove.sol",
  "abi": [
    {
      "inputs": [
        {
          "internalType": "string",
          "name": "_name",
          "type": "string"
        },
        {
          "internalType": "string",
          "name": "_symbol",
          "type": "string"
        },
        {
          "internalType": "string",
          "name": "_initBaseURI",
          "type": "string"
        }
      ],
      "stateMutability": "nonpayable",
      "type": "constructor"
    },
    {
      "anonymous": false,
      "inputs": [
        {
          "indexed": true,
          "internalType": "address",
          "name": "owner",
          "type": "address"
        },
        {
          "indexed": true,
          "internalType": "address",
          "name": "approved",
          "type": "address"
        },
        {
          "indexed": true,
          "internalType": "uint256",
          "name": "tokenId",
          "type": "uint256"
        }
      ],
      "name": "Approval",
      "type": "event"
    },
    {
      "anonymous": false,
      "inputs": [
        {
          "indexed": true,
          "internalType": "address",
          "name": "owner",
          "type": "address"
        },
        {
          "indexed": true,
          "internalType": "address",
          "name": "operator",
          "type": "address"
        },
        {
          "indexed": false,
          "internalType": "bool",
          "name": "approved",
          "type": "bool"
        }
      ],
      "name": "ApprovalForAll",
      "type": "event"
    },
    {
      "anonymous": false,
      "inputs": [
        {
          "indexed": true,
          "internalType": "address",
          "name": "previousOwner",
          "type": "address"
        },
        {
          "indexed": true,
          "internalType": "address",
          "name": "newOwner",
          "type": "address"
        }
      ],
      "name": "OwnershipTransferred",
      "type": "event"
    },
    {
      "anonymous": false,
      "inputs": [
        {
          "indexed": false,
          "internalType": "uint256",
          "name": "id",
          "type": "uint256"
        },
        {
          "indexed": true,
          "internalType": "address",
          "name": "buyer",
          "type": "address"
        },
        {
          "indexed": false,
          "internalType": "uint256",
          "name": "cost",
          "type": "uint256"
        },
        {
          "indexed": true,
          "internalType": "string",
          "name": "tokenURI",
          "type": "string"
        },
        {
          "indexed": false,
          "internalType": "uint256",
          "name": "timestamp",
          "type": "uint256"
        }
      ],
      "name": "Sale",
      "type": "event"
    },
    {
      "anonymous": false,
      "inputs": [
        {
          "indexed": true,
          "internalType": "address",
          "name": "from",
          "type": "address"
        },
        {
          "indexed": true,
          "internalType": "address",
          "name": "to",
          "type": "address"
        },
        {
          "indexed": true,
          "internalType": "uint256",
          "name": "tokenId",
          "type": "uint256"
        }
      ],
      "name": "Transfer",
      "type": "event"
    },
    {
      "inputs": [
        {
          "internalType": "address",
          "name": "to",
          "type": "address"
        },
        {
          "internalType": "uint256",
          "name": "tokenId",
          "type": "uint256"
        }
      ],
      "name": "approve",
      "outputs": [],
      "stateMutability": "nonpayable",
      "type": "function"
    },
    {
      "inputs": [
        {
          "internalType": "address",
          "name": "owner",
          "type": "address"
        }
      ],
      "name": "balanceOf",
      "outputs": [
        {
          "internalType": "uint256",
          "name": "",
          "type": "uint256"
        }
      ],
      "stateMutability": "view",
      "type": "function"
    },
    {
      "inputs": [],
      "name": "baseExtension",
      "outputs": [
        {
          "internalType": "string",
          "name": "",
          "type": "string"
        }
      ],
      "stateMutability": "view",
      "type": "function"
    },
    {
      "inputs": [],
      "name": "baseImage",
      "outputs": [
        {
          "internalType": "string",
          "name": "",
          "type": "string"
        }
      ],
      "stateMutability": "view",
      "type": "function"
    },
    {
      "inputs": [],
      "name": "cost",
      "outputs": [
        {
          "internalType": "uint256",
          "name": "",
          "type": "uint256"
        }
      ],
      "stateMutability": "view",
      "type": "function"
    },
    {
      "inputs": [],
      "name": "getAllNFTs",
      "outputs": [
        {
          "components": [
            {
              "internalType": "uint256",
              "name": "id",
              "type": "uint256"
            },
            {
              "internalType": "address",
              "name": "buyer",
              "type": "address"
            },
            {
              "internalType": "uint256",
              "name": "cost",
              "type": "uint256"
            },
            {
              "internalType": "string",
              "name": "imageURL",
              "type": "string"
            },
            {
              "internalType": "uint256",
              "name": "timestamp",
              "type": "uint256"
            }
          ],
          "internalType": "struct Solove.SaleStruct[]",
          "name": "",
          "type": "tuple[]"
        }
      ],
      "stateMutability": "view",
      "type": "function"
    },
    {
      "inputs": [
        {
          "internalType": "uint256",
          "name": "tokenId",
          "type": "uint256"
        }
      ],
      "name": "getAnNFTs",
      "outputs": [
        {
          "components": [
            {
              "internalType": "uint256",
              "name": "id",
              "type": "uint256"
            },
            {
              "internalType": "address",
              "name": "buyer",
              "type": "address"
            },
            {
              "internalType": "uint256",
              "name": "cost",
              "type": "uint256"
            },
            {
              "internalType": "string",
              "name": "imageURL",
              "type": "string"
            },
            {
              "internalType": "uint256",
              "name": "timestamp",
              "type": "uint256"
            }
          ],
          "internalType": "struct Solove.SaleStruct",
          "name": "",
          "type": "tuple"
        }
      ],
      "stateMutability": "view",
      "type": "function"
    },
    {
      "inputs": [
        {
          "internalType": "uint256",
          "name": "tokenId",
          "type": "uint256"
        }
      ],
      "name": "getApproved",
      "outputs": [
        {
          "internalType": "address",
          "name": "",
          "type": "address"
        }
      ],
      "stateMutability": "view",
      "type": "function"
    },
    {
      "inputs": [
        {
          "internalType": "address",
          "name": "owner",
          "type": "address"
        },
        {
          "internalType": "address",
          "name": "operator",
          "type": "address"
        }
      ],
      "name": "isApprovedForAll",
      "outputs": [
        {
          "internalType": "bool",
          "name": "",
          "type": "bool"
        }
      ],
      "stateMutability": "view",
      "type": "function"
    },
    {
      "inputs": [],
      "name": "maxSupply",
      "outputs": [
        {
          "internalType": "uint256",
          "name": "",
          "type": "uint256"
        }
      ],
      "stateMutability": "view",
      "type": "function"
    },
    {
      "inputs": [],
      "name": "name",
      "outputs": [
        {
          "internalType": "string",
          "name": "",
          "type": "string"
        }
      ],
      "stateMutability": "view",
      "type": "function"
    },
    {
      "inputs": [],
      "name": "owner",
      "outputs": [
        {
          "internalType": "address",
          "name": "",
          "type": "address"
        }
      ],
      "stateMutability": "view",
      "type": "function"
    },
    {
      "inputs": [
        {
          "internalType": "uint256",
          "name": "tokenId",
          "type": "uint256"
        }
      ],
      "name": "ownerOf",
      "outputs": [
        {
          "internalType": "address",
          "name": "",
          "type": "address"
        }
      ],
      "stateMutability": "view",
      "type": "function"
    },
    {
      "inputs": [],
      "name": "paused",
      "outputs": [
        {
          "internalType": "bool",
          "name": "",
          "type": "bool"
        }
      ],
      "stateMutability": "view",
      "type": "function"
    },
    {
      "inputs": [
        {
          "internalType": "address",
          "name": "to",
          "type": "address"
        },
        {
          "internalType": "uint256",
          "name": "amount",
          "type": "uint256"
        }
      ],
      "name": "payTo",
      "outputs": [],
      "stateMutability": "nonpayable",
      "type": "function"
    },
    {
      "inputs": [],
      "name": "payToMint",
      "outputs": [],
      "stateMutability": "payable",
      "type": "function"
    },
    {
      "inputs": [],
      "name": "renounceOwnership",
      "outputs": [],
      "stateMutability": "nonpayable",
      "type": "function"
    },
    {
      "inputs": [
        {
          "internalType": "address",
          "name": "from",
          "type": "address"
        },
        {
          "internalType": "address",
          "name": "to",
          "type": "address"
        },
        {
          "internalType": "uint256",
          "name": "tokenId",
          "type": "uint256"
        }
      ],
      "name": "safeTransferFrom",
      "outputs": [],
      "stateMutability": "nonpayable",
      "type": "function"
    },
    {
      "inputs": [
        {
          "internalType": "address",
          "name": "from",
          "type": "address"
        },
        {
          "internalType": "address",
          "name": "to",
          "type": "address"
        },
        {
          "internalType": "uint256",
          "name": "tokenId",
          "type": "uint256"
        },
        {
          "internalType": "bytes",
          "name": "data",
          "type": "bytes"
        }
      ],
      "name": "safeTransferFrom",
      "outputs": [],
      "stateMutability": "nonpayable",
      "type": "function"
    },
    {
      "inputs": [
        {
          "internalType": "address",
          "name": "operator",
          "type": "address"
        },
        {
          "internalType": "bool",
          "name": "approved",
          "type": "bool"
        }
      ],
      "name": "setApprovalForAll",
      "outputs": [],
      "stateMutability": "nonpayable",
      "type": "function"
    },
    {
      "inputs": [
        {
          "internalType": "string",
          "name": "_newBaseURI",
          "type": "string"
        }
      ],
      "name": "setBaseURI",
      "outputs": [],
      "stateMutability": "nonpayable",
      "type": "function"
    },
    {
      "inputs": [
        {
          "internalType": "bool",
          "name": "_state",
          "type": "bool"
        }
      ],
      "name": "setPause",
      "outputs": [],
      "stateMutability": "nonpayable",
      "type": "function"
    },
    {
      "inputs": [
        {
          "internalType": "bytes4",
          "name": "interfaceId",
          "type": "bytes4"
        }
      ],
      "name": "supportsInterface",
      "outputs": [
        {
          "internalType": "bool",
          "name": "",
          "type": "bool"
        }
      ],
      "stateMutability": "view",
      "type": "function"
    },
    {
      "inputs": [],
      "name": "symbol",
      "outputs": [
        {
          "internalType": "string",
          "name": "",
          "type": "string"
        }
      ],
      "stateMutability": "view",
      "type": "function"
    },
    {
      "inputs": [
        {
          "internalType": "uint256",
          "name": "index",
          "type": "uint256"
        }
      ],
      "name": "tokenByIndex",
      "outputs": [
        {
          "internalType": "uint256",
          "name": "",
          "type": "uint256"
        }
      ],
      "stateMutability": "view",
      "type": "function"
    },
    {
      "inputs": [
        {
          "internalType": "address",
          "name": "owner",
          "type": "address"
        },
        {
          "internalType": "uint256",
          "name": "index",
          "type": "uint256"
        }
      ],
      "name": "tokenOfOwnerByIndex",
      "outputs": [
        {
          "internalType": "uint256",
          "name": "",
          "type": "uint256"
        }
      ],
      "stateMutability": "view",
      "type": "function"
    },
    {
      "inputs": [
        {
          "internalType": "uint256",
          "name": "tokenId",
          "type": "uint256"
        }
      ],
      "name": "tokenURI",
      "outputs": [
        {
          "internalType": "string",
          "name": "",
          "type": "string"
        }
      ],
      "stateMutability": "view",
      "type": "function"
    },
    {
      "inputs": [],
      "name": "totalSupply",
      "outputs": [
        {
          "internalType": "uint256",
          "name": "",
          "type": "uint256"
        }
      ],
      "stateMutability": "view",
      "type": "function"
    },
    {
      "inputs": [
        {
          "internalType": "address",
          "name": "from",
          "type": "address"
        },
        {
          "internalType": "address",
          "name": "to",
          "type": "address"
        },
        {
          "internalType": "uint256",
          "name": "tokenId",
          "type": "uint256"
        }
      ],
      "name": "transferFrom",
      "outputs": [],
      "stateMutability": "nonpayable",
      "type": "function"
    },
    {
      "inputs": [
        {
          "internalType": "address",
          "name": "newOwner",
          "type": "address"
        }
      ],
      "name": "transferOwnership",
      "outputs": [],
      "stateMutability": "nonpayable",
      "type": "function"
    }
  ],
  "bytecode": "0x60806040526040518060400160405280600581526020017f2e6a736f6e000000000000000000000000000000000000000000000000000000815250600c90805190602001906200005192919062000323565b506040518060400160405280600581526020017f2e77656270000000000000000000000000000000000000000000000000000000815250600d90805190602001906200009f92919062000323565b5066038d7ea4c68000600e556063600f556000601060006101000a81548160ff021916908315150217905550348015620000d857600080fd5b5060405162004d6938038062004d698339818101604052810190620000fe919062000570565b828281600090805190602001906200011892919062000323565b5080600190805190602001906200013192919062000323565b50505062000154620001486200016e60201b60201c565b6200017660201b60201c565b62000165816200023c60201b60201c565b50505062000711565b600033905090565b6000600a60009054906101000a900473ffffffffffffffffffffffffffffffffffffffff16905081600a60006101000a81548173ffffffffffffffffffffffffffffffffffffffff021916908373ffffffffffffffffffffffffffffffffffffffff1602179055508173ffffffffffffffffffffffffffffffffffffffff168173ffffffffffffffffffffffffffffffffffffffff167f8be0079c531659141344cd1fd0a4f28419497f9722a3daafe3b4186f6b6457e060405160405180910390a35050565b6200024c6200026860201b60201c565b80600b90805190602001906200026492919062000323565b5050565b620002786200016e60201b60201c565b73ffffffffffffffffffffffffffffffffffffffff166200029e620002f960201b60201c565b73ffffffffffffffffffffffffffffffffffffffff1614620002f7576040517f08c379a0000000000000000000000000000000000000000000000000000000008152600401620002ee906200068a565b60405180910390fd5b565b6000600a60009054906101000a900473ffffffffffffffffffffffffffffffffffffffff16905090565b8280546200033190620006db565b90600052602060002090601f016020900481019282620003555760008555620003a1565b82601f106200037057805160ff1916838001178555620003a1565b82800160010185558215620003a1579182015b82811115620003a057825182559160200191906001019062000383565b5b509050620003b09190620003b4565b5090565b5b80821115620003cf576000816000905550600101620003b5565b5090565b6000604051905090565b600080fd5b600080fd5b600080fd5b600080fd5b6000601f19601f8301169050919050565b7f4e487b7100000000000000000000000000000000000000000000000000000000600052604160045260246000fd5b6200043c82620003f1565b810181811067ffffffffffffffff821117156200045e576200045d62000402565b5b80604052505050565b600062000473620003d3565b905062000481828262000431565b919050565b600067ffffffffffffffff821115620004a457620004a362000402565b5b620004af82620003f1565b9050602081019050919050565b60005b83811015620004dc578082015181840152602081019050620004bf565b83811115620004ec576000848401525b50505050565b600062000509620005038462000486565b62000467565b905082815260208101848484011115620005285762000527620003ec565b5b62000535848285620004bc565b509392505050565b600082601f830112620005555762000554620003e7565b5b815162000567848260208601620004f2565b91505092915050565b6000806000606084860312156200058c576200058b620003dd565b5b600084015167ffffffffffffffff811115620005ad57620005ac620003e2565b5b620005bb868287016200053d565b935050602084015167ffffffffffffffff811115620005df57620005de620003e2565b5b620005ed868287016200053d565b925050604084015167ffffffffffffffff811115620006115762000610620003e2565b5b6200061f868287016200053d565b9150509250925092565b600082825260208201905092915050565b7f4f776e61626c653a2063616c6c6572206973206e6f7420746865206f776e6572600082015250565b60006200067260208362000629565b91506200067f826200063a565b602082019050919050565b60006020820190508181036000830152620006a58162000663565b9050919050565b7f4e487b7100000000000000000000000000000000000000000000000000000000600052602260045260246000fd5b60006002820490506001821680620006f457607f821691505b602082108114156200070b576200070a620006ac565b5b50919050565b61464880620007216000396000f3fe6080604052600436106101cd5760003560e01c806368ef9d3c116100f7578063b88d4fde11610095578063d5abeb0111610064578063d5abeb011461067b578063e0391b09146106a6578063e985e9c5146106d1578063f2fde38b1461070e576101cd565b8063b88d4fde146105c1578063bedb86fb146105ea578063c668286214610613578063c87b56dd1461063e576101cd565b80637bf08621116100d15780637bf08621146105195780638da5cb5b1461054257806395d89b411461056d578063a22cb46514610598576101cd565b806368ef9d3c1461048857806370a08231146104c5578063715018a614610502576101cd565b806323b872dd1161016f578063509c71801161013e578063509c7180146103ed57806355f804b3146103f75780635c975abb146104205780636352211e1461044b576101cd565b806323b872dd146103215780632f745c591461034a57806342842e0e146103875780634f6ccce7146103b0576101cd565b8063081812fc116101ab578063081812fc14610265578063095ea7b3146102a257806313faede6146102cb57806318160ddd146102f6576101cd565b806301ffc9a7146101d257806303b0f38d1461020f57806306fdde031461023a575b600080fd5b3480156101de57600080fd5b506101f960048036038101906101f49190612ecd565b610737565b6040516102069190612f15565b60405180910390f35b34801561021b57600080fd5b506102246107b1565b6040516102319190612fc9565b60405180910390f35b34801561024657600080fd5b5061024f61083f565b60405161025c9190612fc9565b60405180910390f35b34801561027157600080fd5b5061028c60048036038101906102879190613021565b6108d1565b604051610299919061308f565b60405180910390f35b3480156102ae57600080fd5b506102c960048036038101906102c491906130d6565b610917565b005b3480156102d757600080fd5b506102e0610a2f565b6040516102ed9190613125565b60405180910390f35b34801561030257600080fd5b5061030b610a35565b6040516103189190613125565b60405180910390f35b34801561032d57600080fd5b5061034860048036038101906103439190613140565b610a42565b005b34801561035657600080fd5b50610371600480360381019061036c91906130d6565b610aa2565b60405161037e9190613125565b60405180910390f35b34801561039357600080fd5b506103ae60048036038101906103a99190613140565b610b47565b005b3480156103bc57600080fd5b506103d760048036038101906103d29190613021565b610b67565b6040516103e49190613125565b60405180910390f35b6103f5610bd8565b005b34801561040357600080fd5b5061041e600480360381019061041991906132c8565b610ea7565b005b34801561042c57600080fd5b50610435610ec9565b6040516104429190612f15565b60405180910390f35b34801561045757600080fd5b50610472600480360381019061046d9190613021565b610edc565b60405161047f919061308f565b60405180910390f35b34801561049457600080fd5b506104af60048036038101906104aa9190613021565b610f63565b6040516104bc91906133ef565b60405180910390f35b3480156104d157600080fd5b506104ec60048036038101906104e79190613411565b6110b1565b6040516104f99190613125565b60405180910390f35b34801561050e57600080fd5b50610517611169565b005b34801561052557600080fd5b50610540600480360381019061053b91906130d6565b61117d565b005b34801561054e57600080fd5b50610557611200565b604051610564919061308f565b60405180910390f35b34801561057957600080fd5b5061058261122a565b60405161058f9190612fc9565b60405180910390f35b3480156105a457600080fd5b506105bf60048036038101906105ba919061346a565b6112bc565b005b3480156105cd57600080fd5b506105e860048036038101906105e3919061354b565b6112d2565b005b3480156105f657600080fd5b50610611600480360381019061060c91906135ce565b611334565b005b34801561061f57600080fd5b50610628611359565b6040516106359190612fc9565b60405180910390f35b34801561064a57600080fd5b5061066560048036038101906106609190613021565b6113e7565b6040516106729190612fc9565b60405180910390f35b34801561068757600080fd5b50610690611491565b60405161069d9190613125565b60405180910390f35b3480156106b257600080fd5b506106bb611497565b6040516106c89190613733565b60405180910390f35b3480156106dd57600080fd5b506106f860048036038101906106f39190613755565b6115fc565b6040516107059190612f15565b60405180910390f35b34801561071a57600080fd5b5061073560048036038101906107309190613411565b611690565b005b60007f780e9d63000000000000000000000000000000000000000000000000000000007bffffffffffffffffffffffffffffffffffffffffffffffffffffffff1916827bffffffffffffffffffffffffffffffffffffffffffffffffffffffff191614806107aa57506107a982611714565b5b9050919050565b600d80546107be906137c4565b80601f01602080910402602001604051908101604052809291908181526020018280546107ea906137c4565b80156108375780601f1061080c57610100808354040283529160200191610837565b820191906000526020600020905b81548152906001019060200180831161081a57829003601f168201915b505050505081565b60606000805461084e906137c4565b80601f016020809104026020016040519081016040528092919081815260200182805461087a906137c4565b80156108c75780601f1061089c576101008083540402835291602001916108c7565b820191906000526020600020905b8154815290600101906020018083116108aa57829003601f168201915b5050505050905090565b60006108dc826117f6565b6004600083815260200190815260200160002060009054906101000a900473ffffffffffffffffffffffffffffffffffffffff169050919050565b600061092282610edc565b90508073ffffffffffffffffffffffffffffffffffffffff168373ffffffffffffffffffffffffffffffffffffffff161415610993576040517f08c379a000000000000000000000000000000000000000000000000000000000815260040161098a90613868565b60405180910390fd5b8073ffffffffffffffffffffffffffffffffffffffff166109b2611841565b73ffffffffffffffffffffffffffffffffffffffff1614806109e157506109e0816109db611841565b6115fc565b5b610a20576040517f08c379a0000000000000000000000000000000000000000000000000000000008152600401610a17906138fa565b60405180910390fd5b610a2a8383611849565b505050565b600e5481565b6000600880549050905090565b610a53610a4d611841565b82611902565b610a92576040517f08c379a0000000000000000000000000000000000000000000000000000000008152600401610a899061398c565b60405180910390fd5b610a9d838383611997565b505050565b6000610aad836110b1565b8210610aee576040517f08c379a0000000000000000000000000000000000000000000000000000000008152600401610ae590613a1e565b60405180910390fd5b600660008473ffffffffffffffffffffffffffffffffffffffff1673ffffffffffffffffffffffffffffffffffffffff168152602001908152602001600020600083815260200190815260200160002054905092915050565b610b62838383604051806020016040528060008152506112d2565b505050565b6000610b71610a35565b8210610bb2576040517f08c379a0000000000000000000000000000000000000000000000000000000008152600401610ba990613ab0565b60405180910390fd5b60088281548110610bc657610bc5613ad0565b5b90600052602060002001549050919050565b6000610be2610a35565b9050601060009054906101000a900460ff1615610c34576040517f08c379a0000000000000000000000000000000000000000000000000000000008152600401610c2b90613b4b565b60405180910390fd5b600f54811115610c79576040517f08c379a0000000000000000000000000000000000000000000000000000000008152600401610c7090613bdd565b60405180910390fd5b60003411610cbc576040517f08c379a0000000000000000000000000000000000000000000000000000000008152600401610cb390613c49565b60405180910390fd5b610cc4611200565b73ffffffffffffffffffffffffffffffffffffffff163373ffffffffffffffffffffffffffffffffffffffff1614610d0657600e54341015610d0557600080fd5b5b610d1c33600183610d179190613c98565b611c91565b60116040518060a00160405280600184610d369190613c98565b81526020013373ffffffffffffffffffffffffffffffffffffffff168152602001348152602001610d72600185610d6d9190613c98565b611caf565b81526020014281525090806001815401808255809150506001900390600052602060002090600502016000909190919091506000820151816000015560208201518160010160006101000a81548173ffffffffffffffffffffffffffffffffffffffff021916908373ffffffffffffffffffffffffffffffffffffffff160217905550604082015181600201556060820151816003019080519060200190610e1b929190612d79565b50608082015181600401555050610e3d600182610e389190613c98565b6113e7565b604051610e4a9190613d2a565b60405180910390203373ffffffffffffffffffffffffffffffffffffffff167fb9508407a6eccb191d8da3286f4173697cf95604e9ea192fe5ab7c862b5221f6833442604051610e9c93929190613d41565b60405180910390a350565b610eaf611d11565b80600b9080519060200190610ec5929190612d79565b5050565b601060009054906101000a900460ff1681565b600080610ee883611d8f565b9050600073ffffffffffffffffffffffffffffffffffffffff168173ffffffffffffffffffffffffffffffffffffffff161415610f5a576040517f08c379a0000000000000000000000000000000000000000000000000000000008152600401610f5190613dc4565b60405180910390fd5b80915050919050565b610f6b612dff565b6011600183610f7a9190613de4565b81548110610f8b57610f8a613ad0565b5b90600052602060002090600502016040518060a0016040529081600082015481526020016001820160009054906101000a900473ffffffffffffffffffffffffffffffffffffffff1673ffffffffffffffffffffffffffffffffffffffff1673ffffffffffffffffffffffffffffffffffffffff1681526020016002820154815260200160038201805461101e906137c4565b80601f016020809104026020016040519081016040528092919081815260200182805461104a906137c4565b80156110975780601f1061106c57610100808354040283529160200191611097565b820191906000526020600020905b81548152906001019060200180831161107a57829003601f168201915b505050505081526020016004820154815250509050919050565b60008073ffffffffffffffffffffffffffffffffffffffff168273ffffffffffffffffffffffffffffffffffffffff161415611122576040517f08c379a000000000000000000000000000000000000000000000000000000000815260040161111990613e8a565b60405180910390fd5b600360008373ffffffffffffffffffffffffffffffffffffffff1673ffffffffffffffffffffffffffffffffffffffff168152602001908152602001600020549050919050565b611171611d11565b61117b6000611dcc565b565b611185611d11565b60008273ffffffffffffffffffffffffffffffffffffffff16826040516111ab90613edb565b60006040518083038185875af1925050503d80600081146111e8576040519150601f19603f3d011682016040523d82523d6000602084013e6111ed565b606091505b50509050806111fb57600080fd5b505050565b6000600a60009054906101000a900473ffffffffffffffffffffffffffffffffffffffff16905090565b606060018054611239906137c4565b80601f0160208091040260200160405190810160405280929190818152602001828054611265906137c4565b80156112b25780601f10611287576101008083540402835291602001916112b2565b820191906000526020600020905b81548152906001019060200180831161129557829003601f168201915b5050505050905090565b6112ce6112c7611841565b8383611e92565b5050565b6112e36112dd611841565b83611902565b611322576040517f08c379a00000000000000000000000000000000000000000000000000000000081526004016113199061398c565b60405180910390fd5b61132e84848484611fff565b50505050565b61133c611d11565b80601060006101000a81548160ff02191690831515021790555050565b600c8054611366906137c4565b80601f0160208091040260200160405190810160405280929190818152602001828054611392906137c4565b80156113df5780601f106113b4576101008083540402835291602001916113df565b820191906000526020600020905b8154815290600101906020018083116113c257829003601f168201915b505050505081565b60606113f28261205b565b611431576040517f08c379a000000000000000000000000000000000000000000000000000000000815260040161142890613f62565b60405180910390fd5b600061143b61209c565b9050600081511161145b5760405180602001604052806000815250611489565b806114658461212e565b600c60405160200161147993929190614016565b6040516020818303038152906040525b915050919050565b600f5481565b60606011805480602002602001604051908101604052809291908181526020016000905b828210156115f357838290600052602060002090600502016040518060a0016040529081600082015481526020016001820160009054906101000a900473ffffffffffffffffffffffffffffffffffffffff1673ffffffffffffffffffffffffffffffffffffffff1673ffffffffffffffffffffffffffffffffffffffff16815260200160028201548152602001600382018054611558906137c4565b80601f0160208091040260200160405190810160405280929190818152602001828054611584906137c4565b80156115d15780601f106115a6576101008083540402835291602001916115d1565b820191906000526020600020905b8154815290600101906020018083116115b457829003601f168201915b50505050508152602001600482015481525050815260200190600101906114bb565b50505050905090565b6000600560008473ffffffffffffffffffffffffffffffffffffffff1673ffffffffffffffffffffffffffffffffffffffff16815260200190815260200160002060008373ffffffffffffffffffffffffffffffffffffffff1673ffffffffffffffffffffffffffffffffffffffff16815260200190815260200160002060009054906101000a900460ff16905092915050565b611698611d11565b600073ffffffffffffffffffffffffffffffffffffffff168173ffffffffffffffffffffffffffffffffffffffff161415611708576040517f08c379a00000000000000000000000000000000000000000000000000000000081526004016116ff906140b9565b60405180910390fd5b61171181611dcc565b50565b60007f80ac58cd000000000000000000000000000000000000000000000000000000007bffffffffffffffffffffffffffffffffffffffffffffffffffffffff1916827bffffffffffffffffffffffffffffffffffffffffffffffffffffffff191614806117df57507f5b5e139f000000000000000000000000000000000000000000000000000000007bffffffffffffffffffffffffffffffffffffffffffffffffffffffff1916827bffffffffffffffffffffffffffffffffffffffffffffffffffffffff1916145b806117ef57506117ee82612206565b5b9050919050565b6117ff8161205b565b61183e576040517f08c379a000000000000000000000000000000000000000000000000000000000815260040161183590613dc4565b60405180910390fd5b50565b600033905090565b816004600083815260200190815260200160002060006101000a81548173ffffffffffffffffffffffffffffffffffffffff021916908373ffffffffffffffffffffffffffffffffffffffff160217905550808273ffffffffffffffffffffffffffffffffffffffff166118bc83610edc565b73ffffffffffffffffffffffffffffffffffffffff167f8c5be1e5ebec7d5bd14f71427d1e84f3dd0314c0f7b2291e5b200ac8c7c3b92560405160405180910390a45050565b60008061190e83610edc565b90508073ffffffffffffffffffffffffffffffffffffffff168473ffffffffffffffffffffffffffffffffffffffff161480611950575061194f81856115fc565b5b8061198e57508373ffffffffffffffffffffffffffffffffffffffff16611976846108d1565b73ffffffffffffffffffffffffffffffffffffffff16145b91505092915050565b8273ffffffffffffffffffffffffffffffffffffffff166119b782610edc565b73ffffffffffffffffffffffffffffffffffffffff1614611a0d576040517f08c379a0000000000000000000000000000000000000000000000000000000008152600401611a049061414b565b60405180910390fd5b600073ffffffffffffffffffffffffffffffffffffffff168273ffffffffffffffffffffffffffffffffffffffff161415611a7d576040517f08c379a0000000000000000000000000000000000000000000000000000000008152600401611a74906141dd565b60405180910390fd5b611a8a8383836001612270565b8273ffffffffffffffffffffffffffffffffffffffff16611aaa82610edc565b73ffffffffffffffffffffffffffffffffffffffff1614611b00576040517f08c379a0000000000000000000000000000000000000000000000000000000008152600401611af79061414b565b60405180910390fd5b6004600082815260200190815260200160002060006101000a81549073ffffffffffffffffffffffffffffffffffffffff02191690556001600360008573ffffffffffffffffffffffffffffffffffffffff1673ffffffffffffffffffffffffffffffffffffffff168152602001908152602001600020600082825403925050819055506001600360008473ffffffffffffffffffffffffffffffffffffffff1673ffffffffffffffffffffffffffffffffffffffff16815260200190815260200160002060008282540192505081905550816002600083815260200190815260200160002060006101000a81548173ffffffffffffffffffffffffffffffffffffffff021916908373ffffffffffffffffffffffffffffffffffffffff160217905550808273ffffffffffffffffffffffffffffffffffffffff168473ffffffffffffffffffffffffffffffffffffffff167fddf252ad1be2c89b69c2b068fc378daa952ba7f163c4a11628f55a4df523b3ef60405160405180910390a4611c8c83838360016123d0565b505050565b611cab8282604051806020016040528060008152506123d6565b5050565b60606000611cbb61209c565b90506000815111611cdb5760405180602001604052806000815250611d09565b80611ce58461212e565b600d604051602001611cf993929190614016565b6040516020818303038152906040525b915050919050565b611d19611841565b73ffffffffffffffffffffffffffffffffffffffff16611d37611200565b73ffffffffffffffffffffffffffffffffffffffff1614611d8d576040517f08c379a0000000000000000000000000000000000000000000000000000000008152600401611d8490614249565b60405180910390fd5b565b60006002600083815260200190815260200160002060009054906101000a900473ffffffffffffffffffffffffffffffffffffffff169050919050565b6000600a60009054906101000a900473ffffffffffffffffffffffffffffffffffffffff16905081600a60006101000a81548173ffffffffffffffffffffffffffffffffffffffff021916908373ffffffffffffffffffffffffffffffffffffffff1602179055508173ffffffffffffffffffffffffffffffffffffffff168173ffffffffffffffffffffffffffffffffffffffff167f8be0079c531659141344cd1fd0a4f28419497f9722a3daafe3b4186f6b6457e060405160405180910390a35050565b8173ffffffffffffffffffffffffffffffffffffffff168373ffffffffffffffffffffffffffffffffffffffff161415611f01576040517f08c379a0000000000000000000000000000000000000000000000000000000008152600401611ef8906142b5565b60405180910390fd5b80600560008573ffffffffffffffffffffffffffffffffffffffff1673ffffffffffffffffffffffffffffffffffffffff16815260200190815260200160002060008473ffffffffffffffffffffffffffffffffffffffff1673ffffffffffffffffffffffffffffffffffffffff16815260200190815260200160002060006101000a81548160ff0219169083151502179055508173ffffffffffffffffffffffffffffffffffffffff168373ffffffffffffffffffffffffffffffffffffffff167f17307eab39ab6107e8899845ad3d59bd9653f200f220920489ca2b5937696c3183604051611ff29190612f15565b60405180910390a3505050565b61200a848484611997565b61201684848484612431565b612055576040517f08c379a000000000000000000000000000000000000000000000000000000000815260040161204c90614347565b60405180910390fd5b50505050565b60008073ffffffffffffffffffffffffffffffffffffffff1661207d83611d8f565b73ffffffffffffffffffffffffffffffffffffffff1614159050919050565b6060600b80546120ab906137c4565b80601f01602080910402602001604051908101604052809291908181526020018280546120d7906137c4565b80156121245780601f106120f957610100808354040283529160200191612124565b820191906000526020600020905b81548152906001019060200180831161210757829003601f168201915b5050505050905090565b60606000600161213d846125b9565b01905060008167ffffffffffffffff81111561215c5761215b61319d565b5b6040519080825280601f01601f19166020018201604052801561218e5781602001600182028036833780820191505090505b509050600082602001820190505b6001156121fb578080600190039150507f3031323334353637383961626364656600000000000000000000000000000000600a86061a8153600a85816121e5576121e4614367565b5b04945060008514156121f6576121fb565b61219c565b819350505050919050565b60007f01ffc9a7000000000000000000000000000000000000000000000000000000007bffffffffffffffffffffffffffffffffffffffffffffffffffffffff1916827bffffffffffffffffffffffffffffffffffffffffffffffffffffffff1916149050919050565b61227c8484848461270c565b60018111156122c0576040517f08c379a00000000000000000000000000000000000000000000000000000000081526004016122b790614408565b60405180910390fd5b6000829050600073ffffffffffffffffffffffffffffffffffffffff168573ffffffffffffffffffffffffffffffffffffffff1614156123085761230381612832565b612347565b8373ffffffffffffffffffffffffffffffffffffffff168573ffffffffffffffffffffffffffffffffffffffff161461234657612345858261287b565b5b5b600073ffffffffffffffffffffffffffffffffffffffff168473ffffffffffffffffffffffffffffffffffffffff16141561238a57612385816129e8565b6123c9565b8473ffffffffffffffffffffffffffffffffffffffff168473ffffffffffffffffffffffffffffffffffffffff16146123c8576123c78482612ab9565b5b5b5050505050565b50505050565b6123e08383612b38565b6123ed6000848484612431565b61242c576040517f08c379a000000000000000000000000000000000000000000000000000000000815260040161242390614347565b60405180910390fd5b505050565b60006124528473ffffffffffffffffffffffffffffffffffffffff16612d56565b156125ac578373ffffffffffffffffffffffffffffffffffffffff1663150b7a0261247b611841565b8786866040518563ffffffff1660e01b815260040161249d949392919061447d565b6020604051808303816000875af19250505080156124d957506040513d601f19601f820116820180604052508101906124d691906144de565b60015b61255c573d8060008114612509576040519150601f19603f3d011682016040523d82523d6000602084013e61250e565b606091505b50600081511415612554576040517f08c379a000000000000000000000000000000000000000000000000000000000815260040161254b90614347565b60405180910390fd5b805181602001fd5b63150b7a0260e01b7bffffffffffffffffffffffffffffffffffffffffffffffffffffffff1916817bffffffffffffffffffffffffffffffffffffffffffffffffffffffff1916149150506125b1565b600190505b949350505050565b600080600090507a184f03e93ff9f4daa797ed6e38ed64bf6a1f0100000000000000008310612617577a184f03e93ff9f4daa797ed6e38ed64bf6a1f010000000000000000838161260d5761260c614367565b5b0492506040810190505b6d04ee2d6d415b85acef81000000008310612654576d04ee2d6d415b85acef8100000000838161264a57612649614367565b5b0492506020810190505b662386f26fc10000831061268357662386f26fc10000838161267957612678614367565b5b0492506010810190505b6305f5e10083106126ac576305f5e10083816126a2576126a1614367565b5b0492506008810190505b61271083106126d15761271083816126c7576126c6614367565b5b0492506004810190505b606483106126f457606483816126ea576126e9614367565b5b0492506002810190505b600a8310612703576001810190505b80915050919050565b600181111561282c57600073ffffffffffffffffffffffffffffffffffffffff168473ffffffffffffffffffffffffffffffffffffffff16146127a05780600360008673ffffffffffffffffffffffffffffffffffffffff1673ffffffffffffffffffffffffffffffffffffffff16815260200190815260200160002060008282546127989190613de4565b925050819055505b600073ffffffffffffffffffffffffffffffffffffffff168373ffffffffffffffffffffffffffffffffffffffff161461282b5780600360008573ffffffffffffffffffffffffffffffffffffffff1673ffffffffffffffffffffffffffffffffffffffff16815260200190815260200160002060008282546128239190613c98565b925050819055505b5b50505050565b6008805490506009600083815260200190815260200160002081905550600881908060018154018082558091505060019003906000526020600020016000909190919091505550565b60006001612888846110b1565b6128929190613de4565b9050600060076000848152602001908152602001600020549050818114612977576000600660008673ffffffffffffffffffffffffffffffffffffffff1673ffffffffffffffffffffffffffffffffffffffff168152602001908152602001600020600084815260200190815260200160002054905080600660008773ffffffffffffffffffffffffffffffffffffffff1673ffffffffffffffffffffffffffffffffffffffff168152602001908152602001600020600084815260200190815260200160002081905550816007600083815260200190815260200160002081905550505b6007600084815260200190815260200160002060009055600660008573ffffffffffffffffffffffffffffffffffffffff1673ffffffffffffffffffffffffffffffffffffffff16815260200190815260200160002060008381526020019081526020016000206000905550505050565b600060016008805490506129fc9190613de4565b9050600060096000848152602001908152602001600020549050600060088381548110612a2c57612a2b613ad0565b5b906000526020600020015490508060088381548110612a4e57612a4d613ad0565b5b906000526020600020018190555081600960008381526020019081526020016000208190555060096000858152602001908152602001600020600090556008805480612a9d57612a9c61450b565b5b6001900381819060005260206000200160009055905550505050565b6000612ac4836110b1565b905081600660008573ffffffffffffffffffffffffffffffffffffffff1673ffffffffffffffffffffffffffffffffffffffff168152602001908152602001600020600083815260200190815260200160002081905550806007600084815260200190815260200160002081905550505050565b600073ffffffffffffffffffffffffffffffffffffffff168273ffffffffffffffffffffffffffffffffffffffff161415612ba8576040517f08c379a0000000000000000000000000000000000000000000000000000000008152600401612b9f90614586565b60405180910390fd5b612bb18161205b565b15612bf1576040517f08c379a0000000000000000000000000000000000000000000000000000000008152600401612be8906145f2565b60405180910390fd5b612bff600083836001612270565b612c088161205b565b15612c48576040517f08c379a0000000000000000000000000000000000000000000000000000000008152600401612c3f906145f2565b60405180910390fd5b6001600360008473ffffffffffffffffffffffffffffffffffffffff1673ffffffffffffffffffffffffffffffffffffffff16815260200190815260200160002060008282540192505081905550816002600083815260200190815260200160002060006101000a81548173ffffffffffffffffffffffffffffffffffffffff021916908373ffffffffffffffffffffffffffffffffffffffff160217905550808273ffffffffffffffffffffffffffffffffffffffff16600073ffffffffffffffffffffffffffffffffffffffff167fddf252ad1be2c89b69c2b068fc378daa952ba7f163c4a11628f55a4df523b3ef60405160405180910390a4612d526000838360016123d0565b5050565b6000808273ffffffffffffffffffffffffffffffffffffffff163b119050919050565b828054612d85906137c4565b90600052602060002090601f016020900481019282612da75760008555612dee565b82601f10612dc057805160ff1916838001178555612dee565b82800160010185558215612dee579182015b82811115612ded578251825591602001919060010190612dd2565b5b509050612dfb9190612e44565b5090565b6040518060a0016040528060008152602001600073ffffffffffffffffffffffffffffffffffffffff1681526020016000815260200160608152602001600081525090565b5b80821115612e5d576000816000905550600101612e45565b5090565b6000604051905090565b600080fd5b600080fd5b60007fffffffff0000000000000000000000000000000000000000000000000000000082169050919050565b612eaa81612e75565b8114612eb557600080fd5b50565b600081359050612ec781612ea1565b92915050565b600060208284031215612ee357612ee2612e6b565b5b6000612ef184828501612eb8565b91505092915050565b60008115159050919050565b612f0f81612efa565b82525050565b6000602082019050612f2a6000830184612f06565b92915050565b600081519050919050565b600082825260208201905092915050565b60005b83811015612f6a578082015181840152602081019050612f4f565b83811115612f79576000848401525b50505050565b6000601f19601f8301169050919050565b6000612f9b82612f30565b612fa58185612f3b565b9350612fb5818560208601612f4c565b612fbe81612f7f565b840191505092915050565b60006020820190508181036000830152612fe38184612f90565b905092915050565b6000819050919050565b612ffe81612feb565b811461300957600080fd5b50565b60008135905061301b81612ff5565b92915050565b60006020828403121561303757613036612e6b565b5b60006130458482850161300c565b91505092915050565b600073ffffffffffffffffffffffffffffffffffffffff82169050919050565b60006130798261304e565b9050919050565b6130898161306e565b82525050565b60006020820190506130a46000830184613080565b92915050565b6130b38161306e565b81146130be57600080fd5b50565b6000813590506130d0816130aa565b92915050565b600080604083850312156130ed576130ec612e6b565b5b60006130fb858286016130c1565b925050602061310c8582860161300c565b9150509250929050565b61311f81612feb565b82525050565b600060208201905061313a6000830184613116565b92915050565b60008060006060848603121561315957613158612e6b565b5b6000613167868287016130c1565b9350506020613178868287016130c1565b92505060406131898682870161300c565b9150509250925092565b600080fd5b600080fd5b7f4e487b7100000000000000000000000000000000000000000000000000000000600052604160045260246000fd5b6131d582612f7f565b810181811067ffffffffffffffff821117156131f4576131f361319d565b5b80604052505050565b6000613207612e61565b905061321382826131cc565b919050565b600067ffffffffffffffff8211156132335761323261319d565b5b61323c82612f7f565b9050602081019050919050565b82818337600083830152505050565b600061326b61326684613218565b6131fd565b90508281526020810184848401111561328757613286613198565b5b613292848285613249565b509392505050565b600082601f8301126132af576132ae613193565b5b81356132bf848260208601613258565b91505092915050565b6000602082840312156132de576132dd612e6b565b5b600082013567ffffffffffffffff8111156132fc576132fb612e70565b5b6133088482850161329a565b91505092915050565b61331a81612feb565b82525050565b6133298161306e565b82525050565b600082825260208201905092915050565b600061334b82612f30565b613355818561332f565b9350613365818560208601612f4c565b61336e81612f7f565b840191505092915050565b600060a0830160008301516133916000860182613311565b5060208301516133a46020860182613320565b5060408301516133b76040860182613311565b50606083015184820360608601526133cf8282613340565b91505060808301516133e46080860182613311565b508091505092915050565b600060208201905081810360008301526134098184613379565b905092915050565b60006020828403121561342757613426612e6b565b5b6000613435848285016130c1565b91505092915050565b61344781612efa565b811461345257600080fd5b50565b6000813590506134648161343e565b92915050565b6000806040838503121561348157613480612e6b565b5b600061348f858286016130c1565b92505060206134a085828601613455565b9150509250929050565b600067ffffffffffffffff8211156134c5576134c461319d565b5b6134ce82612f7f565b9050602081019050919050565b60006134ee6134e9846134aa565b6131fd565b90508281526020810184848401111561350a57613509613198565b5b613515848285613249565b509392505050565b600082601f83011261353257613531613193565b5b81356135428482602086016134db565b91505092915050565b6000806000806080858703121561356557613564612e6b565b5b6000613573878288016130c1565b9450506020613584878288016130c1565b93505060406135958782880161300c565b925050606085013567ffffffffffffffff8111156135b6576135b5612e70565b5b6135c28782880161351d565b91505092959194509250565b6000602082840312156135e4576135e3612e6b565b5b60006135f284828501613455565b91505092915050565b600081519050919050565b600082825260208201905092915050565b6000819050602082019050919050565b600060a08301600083015161363f6000860182613311565b5060208301516136526020860182613320565b5060408301516136656040860182613311565b506060830151848203606086015261367d8282613340565b91505060808301516136926080860182613311565b508091505092915050565b60006136a98383613627565b905092915050565b6000602082019050919050565b60006136c9826135fb565b6136d38185613606565b9350836020820285016136e585613617565b8060005b858110156137215784840389528151613702858261369d565b945061370d836136b1565b925060208a019950506001810190506136e9565b50829750879550505050505092915050565b6000602082019050818103600083015261374d81846136be565b905092915050565b6000806040838503121561376c5761376b612e6b565b5b600061377a858286016130c1565b925050602061378b858286016130c1565b9150509250929050565b7f4e487b7100000000000000000000000000000000000000000000000000000000600052602260045260246000fd5b600060028204905060018216806137dc57607f821691505b602082108114156137f0576137ef613795565b5b50919050565b7f4552433732313a20617070726f76616c20746f2063757272656e74206f776e6560008201527f7200000000000000000000000000000000000000000000000000000000000000602082015250565b6000613852602183612f3b565b915061385d826137f6565b604082019050919050565b6000602082019050818103600083015261388181613845565b9050919050565b7f4552433732313a20617070726f76652063616c6c6572206973206e6f7420746f60008201527f6b656e206f776e6572206f7220617070726f76656420666f7220616c6c000000602082015250565b60006138e4603d83612f3b565b91506138ef82613888565b604082019050919050565b60006020820190508181036000830152613913816138d7565b9050919050565b7f4552433732313a2063616c6c6572206973206e6f7420746f6b656e206f776e6560008201527f72206f7220617070726f76656400000000000000000000000000000000000000602082015250565b6000613976602d83612f3b565b91506139818261391a565b604082019050919050565b600060208201905081810360008301526139a581613969565b9050919050565b7f455243373231456e756d657261626c653a206f776e657220696e646578206f7560008201527f74206f6620626f756e6473000000000000000000000000000000000000000000602082015250565b6000613a08602b83612f3b565b9150613a13826139ac565b604082019050919050565b60006020820190508181036000830152613a37816139fb565b9050919050565b7f455243373231456e756d657261626c653a20676c6f62616c20696e646578206f60008201527f7574206f6620626f756e64730000000000000000000000000000000000000000602082015250565b6000613a9a602c83612f3b565b9150613aa582613a3e565b604082019050919050565b60006020820190508181036000830152613ac981613a8d565b9050919050565b7f4e487b7100000000000000000000000000000000000000000000000000000000600052603260045260246000fd5b7f4e46547320756e646572206d61696e74656e616e636521000000000000000000600082015250565b6000613b35601783612f3b565b9150613b4082613aff565b602082019050919050565b60006020820190508181036000830152613b6481613b28565b9050919050565b7f536f7272792c20616c6c204e4654732068617665206265656e206d696e74656460008201527f2100000000000000000000000000000000000000000000000000000000000000602082015250565b6000613bc7602183612f3b565b9150613bd282613b6b565b604082019050919050565b60006020820190508181036000830152613bf681613bba565b9050919050565b7f457468657220746f6f206c6f7720666f72206d696e74696e6721000000000000600082015250565b6000613c33601a83612f3b565b9150613c3e82613bfd565b602082019050919050565b60006020820190508181036000830152613c6281613c26565b9050919050565b7f4e487b7100000000000000000000000000000000000000000000000000000000600052601160045260246000fd5b6000613ca382612feb565b9150613cae83612feb565b9250827fffffffffffffffffffffffffffffffffffffffffffffffffffffffffffffffff03821115613ce357613ce2613c69565b5b828201905092915050565b600081905092915050565b6000613d0482612f30565b613d0e8185613cee565b9350613d1e818560208601612f4c565b80840191505092915050565b6000613d368284613cf9565b915081905092915050565b6000606082019050613d566000830186613116565b613d636020830185613116565b613d706040830184613116565b949350505050565b7f4552433732313a20696e76616c696420746f6b656e2049440000000000000000600082015250565b6000613dae601883612f3b565b9150613db982613d78565b602082019050919050565b60006020820190508181036000830152613ddd81613da1565b9050919050565b6000613def82612feb565b9150613dfa83612feb565b925082821015613e0d57613e0c613c69565b5b828203905092915050565b7f4552433732313a2061646472657373207a65726f206973206e6f74206120766160008201527f6c6964206f776e65720000000000000000000000000000000000000000000000602082015250565b6000613e74602983612f3b565b9150613e7f82613e18565b604082019050919050565b60006020820190508181036000830152613ea381613e67565b9050919050565b600081905092915050565b50565b6000613ec5600083613eaa565b9150613ed082613eb5565b600082019050919050565b6000613ee682613eb8565b9150819050919050565b7f4552433732314d657461646174613a2055524920717565727920666f72206e6f60008201527f6e6578697374656e7420746f6b656e0000000000000000000000000000000000602082015250565b6000613f4c602f83612f3b565b9150613f5782613ef0565b604082019050919050565b60006020820190508181036000830152613f7b81613f3f565b9050919050565b60008190508160005260206000209050919050565b60008154613fa4816137c4565b613fae8186613cee565b94506001821660008114613fc95760018114613fda5761400d565b60ff1983168652818601935061400d565b613fe385613f82565b60005b8381101561400557815481890152600182019150602081019050613fe6565b838801955050505b50505092915050565b60006140228286613cf9565b915061402e8285613cf9565b915061403a8284613f97565b9150819050949350505050565b7f4f776e61626c653a206e6577206f776e657220697320746865207a65726f206160008201527f6464726573730000000000000000000000000000000000000000000000000000602082015250565b60006140a3602683612f3b565b91506140ae82614047565b604082019050919050565b600060208201905081810360008301526140d281614096565b9050919050565b7f4552433732313a207472616e736665722066726f6d20696e636f72726563742060008201527f6f776e6572000000000000000000000000000000000000000000000000000000602082015250565b6000614135602583612f3b565b9150614140826140d9565b604082019050919050565b6000602082019050818103600083015261416481614128565b9050919050565b7f4552433732313a207472616e7366657220746f20746865207a65726f2061646460008201527f7265737300000000000000000000000000000000000000000000000000000000602082015250565b60006141c7602483612f3b565b91506141d28261416b565b604082019050919050565b600060208201905081810360008301526141f6816141ba565b9050919050565b7f4f776e61626c653a2063616c6c6572206973206e6f7420746865206f776e6572600082015250565b6000614233602083612f3b565b915061423e826141fd565b602082019050919050565b6000602082019050818103600083015261426281614226565b9050919050565b7f4552433732313a20617070726f766520746f2063616c6c657200000000000000600082015250565b600061429f601983612f3b565b91506142aa82614269565b602082019050919050565b600060208201905081810360008301526142ce81614292565b9050919050565b7f4552433732313a207472616e7366657220746f206e6f6e20455243373231526560008201527f63656976657220696d706c656d656e7465720000000000000000000000000000602082015250565b6000614331603283612f3b565b915061433c826142d5565b604082019050919050565b6000602082019050818103600083015261436081614324565b9050919050565b7f4e487b7100000000000000000000000000000000000000000000000000000000600052601260045260246000fd5b7f455243373231456e756d657261626c653a20636f6e736563757469766520747260008201527f616e7366657273206e6f7420737570706f727465640000000000000000000000602082015250565b60006143f2603583612f3b565b91506143fd82614396565b604082019050919050565b60006020820190508181036000830152614421816143e5565b9050919050565b600081519050919050565b600082825260208201905092915050565b600061444f82614428565b6144598185614433565b9350614469818560208601612f4c565b61447281612f7f565b840191505092915050565b60006080820190506144926000830187613080565b61449f6020830186613080565b6144ac6040830185613116565b81810360608301526144be8184614444565b905095945050505050565b6000815190506144d881612ea1565b92915050565b6000602082840312156144f4576144f3612e6b565b5b6000614502848285016144c9565b91505092915050565b7f4e487b7100000000000000000000000000000000000000000000000000000000600052603160045260246000fd5b7f4552433732313a206d696e7420746f20746865207a65726f2061646472657373600082015250565b6000614570602083612f3b565b915061457b8261453a565b602082019050919050565b6000602082019050818103600083015261459f81614563565b9050919050565b7f4552433732313a20746f6b656e20616c7265616479206d696e74656400000000600082015250565b60006145dc601c83612f3b565b91506145e7826145a6565b602082019050919050565b6000602082019050818103600083015261460b816145cf565b905091905056fea26469706673582212202f1e1c1da47479f431d2224c467b88a8779dc85e537a0219d1b9858c082b97b764736f6c634300080b0033",
  "linkReferences": {},
  "deployedLinkReferences": {}
}