{
  "_format": "hh-sol-artifact-1",
  "contractName": "WhitelistSale",
  "sourceName": "contracts/WhitelistSale.sol",
  "abi": [
    {
      "inputs": [
        {
          "internalType": "string",
          "name": "_name",
          "type": "string"
        },
        {
          "internalType": "string",
          "name": "_symbol",
          "type": "string"
        },
        {
          "internalType": "string",
          "name": "_initBaseURI",
          "type": "string"
        },
        {
          "internalType": "bytes32",
          "name": "_merkleRoot",
          "type": "bytes32"
        }
      ],
      "stateMutability": "nonpayable",
      "type": "constructor"
    },
    {
      "anonymous": false,
      "inputs": [
        {
          "indexed": true,
          "internalType": "address",
          "name": "owner",
          "type": "address"
        },
        {
          "indexed": true,
          "internalType": "address",
          "name": "approved",
          "type": "address"
        },
        {
          "indexed": true,
          "internalType": "uint256",
          "name": "tokenId",
          "type": "uint256"
        }
      ],
      "name": "Approval",
      "type": "event"
    },
    {
      "anonymous": false,
      "inputs": [
        {
          "indexed": true,
          "internalType": "address",
          "name": "owner",
          "type": "address"
        },
        {
          "indexed": true,
          "internalType": "address",
          "name": "operator",
          "type": "address"
        },
        {
          "indexed": false,
          "internalType": "bool",
          "name": "approved",
          "type": "bool"
        }
      ],
      "name": "ApprovalForAll",
      "type": "event"
    },
    {
      "anonymous": false,
      "inputs": [
        {
          "indexed": true,
          "internalType": "address",
          "name": "previousOwner",
          "type": "address"
        },
        {
          "indexed": true,
          "internalType": "address",
          "name": "newOwner",
          "type": "address"
        }
      ],
      "name": "OwnershipTransferred",
      "type": "event"
    },
    {
      "anonymous": false,
      "inputs": [
        {
          "indexed": false,
          "internalType": "uint256",
          "name": "id",
          "type": "uint256"
        },
        {
          "indexed": true,
          "internalType": "address",
          "name": "buyer",
          "type": "address"
        },
        {
          "indexed": false,
          "internalType": "uint256",
          "name": "cost",
          "type": "uint256"
        },
        {
          "indexed": true,
          "internalType": "string",
          "name": "tokenURI",
          "type": "string"
        },
        {
          "indexed": false,
          "internalType": "uint256",
          "name": "timestamp",
          "type": "uint256"
        }
      ],
      "name": "Sale",
      "type": "event"
    },
    {
      "anonymous": false,
      "inputs": [
        {
          "indexed": true,
          "internalType": "address",
          "name": "from",
          "type": "address"
        },
        {
          "indexed": true,
          "internalType": "address",
          "name": "to",
          "type": "address"
        },
        {
          "indexed": true,
          "internalType": "uint256",
          "name": "tokenId",
          "type": "uint256"
        }
      ],
      "name": "Transfer",
      "type": "event"
    },
    {
      "inputs": [
        {
          "internalType": "address",
          "name": "to",
          "type": "address"
        },
        {
          "internalType": "uint256",
          "name": "tokenId",
          "type": "uint256"
        }
      ],
      "name": "approve",
      "outputs": [],
      "stateMutability": "nonpayable",
      "type": "function"
    },
    {
      "inputs": [
        {
          "internalType": "address",
          "name": "owner",
          "type": "address"
        }
      ],
      "name": "balanceOf",
      "outputs": [
        {
          "internalType": "uint256",
          "name": "",
          "type": "uint256"
        }
      ],
      "stateMutability": "view",
      "type": "function"
    },
    {
      "inputs": [],
      "name": "baseExtension",
      "outputs": [
        {
          "internalType": "string",
          "name": "",
          "type": "string"
        }
      ],
      "stateMutability": "view",
      "type": "function"
    },
    {
      "inputs": [],
      "name": "baseImage",
      "outputs": [
        {
          "internalType": "string",
          "name": "",
          "type": "string"
        }
      ],
      "stateMutability": "view",
      "type": "function"
    },
    {
      "inputs": [],
      "name": "cost",
      "outputs": [
        {
          "internalType": "uint256",
          "name": "",
          "type": "uint256"
        }
      ],
      "stateMutability": "view",
      "type": "function"
    },
    {
      "inputs": [],
      "name": "getAllNFTs",
      "outputs": [
        {
          "components": [
            {
              "internalType": "uint256",
              "name": "id",
              "type": "uint256"
            },
            {
              "internalType": "address",
              "name": "buyer",
              "type": "address"
            },
            {
              "internalType": "uint256",
              "name": "cost",
              "type": "uint256"
            },
            {
              "internalType": "string",
              "name": "imageURL",
              "type": "string"
            },
            {
              "internalType": "uint256",
              "name": "timestamp",
              "type": "uint256"
            }
          ],
          "internalType": "struct WhitelistSale.SaleStruct[]",
          "name": "",
          "type": "tuple[]"
        }
      ],
      "stateMutability": "view",
      "type": "function"
    },
    {
      "inputs": [
        {
          "internalType": "uint256",
          "name": "tokenId",
          "type": "uint256"
        }
      ],
      "name": "getAnNFTs",
      "outputs": [
        {
          "components": [
            {
              "internalType": "uint256",
              "name": "id",
              "type": "uint256"
            },
            {
              "internalType": "address",
              "name": "buyer",
              "type": "address"
            },
            {
              "internalType": "uint256",
              "name": "cost",
              "type": "uint256"
            },
            {
              "internalType": "string",
              "name": "imageURL",
              "type": "string"
            },
            {
              "internalType": "uint256",
              "name": "timestamp",
              "type": "uint256"
            }
          ],
          "internalType": "struct WhitelistSale.SaleStruct",
          "name": "",
          "type": "tuple"
        }
      ],
      "stateMutability": "view",
      "type": "function"
    },
    {
      "inputs": [
        {
          "internalType": "uint256",
          "name": "tokenId",
          "type": "uint256"
        }
      ],
      "name": "getApproved",
      "outputs": [
        {
          "internalType": "address",
          "name": "",
          "type": "address"
        }
      ],
      "stateMutability": "view",
      "type": "function"
    },
    {
      "inputs": [
        {
          "internalType": "address",
          "name": "owner",
          "type": "address"
        },
        {
          "internalType": "address",
          "name": "operator",
          "type": "address"
        }
      ],
      "name": "isApprovedForAll",
      "outputs": [
        {
          "internalType": "bool",
          "name": "",
          "type": "bool"
        }
      ],
      "stateMutability": "view",
      "type": "function"
    },
    {
      "inputs": [],
      "name": "maxSupply",
      "outputs": [
        {
          "internalType": "uint256",
          "name": "",
          "type": "uint256"
        }
      ],
      "stateMutability": "view",
      "type": "function"
    },
    {
      "inputs": [],
      "name": "merkleRoot",
      "outputs": [
        {
          "internalType": "bytes32",
          "name": "",
          "type": "bytes32"
        }
      ],
      "stateMutability": "view",
      "type": "function"
    },
    {
      "inputs": [],
      "name": "name",
      "outputs": [
        {
          "internalType": "string",
          "name": "",
          "type": "string"
        }
      ],
      "stateMutability": "view",
      "type": "function"
    },
    {
      "inputs": [],
      "name": "owner",
      "outputs": [
        {
          "internalType": "address",
          "name": "",
          "type": "address"
        }
      ],
      "stateMutability": "view",
      "type": "function"
    },
    {
      "inputs": [
        {
          "internalType": "uint256",
          "name": "tokenId",
          "type": "uint256"
        }
      ],
      "name": "ownerOf",
      "outputs": [
        {
          "internalType": "address",
          "name": "",
          "type": "address"
        }
      ],
      "stateMutability": "view",
      "type": "function"
    },
    {
      "inputs": [],
      "name": "paused",
      "outputs": [
        {
          "internalType": "bool",
          "name": "",
          "type": "bool"
        }
      ],
      "stateMutability": "view",
      "type": "function"
    },
    {
      "inputs": [
        {
          "internalType": "address",
          "name": "to",
          "type": "address"
        },
        {
          "internalType": "uint256",
          "name": "amount",
          "type": "uint256"
        }
      ],
      "name": "payTo",
      "outputs": [],
      "stateMutability": "nonpayable",
      "type": "function"
    },
    {
      "inputs": [
        {
          "internalType": "bytes32[]",
          "name": "_merkleProof",
          "type": "bytes32[]"
        }
      ],
      "name": "payToMint",
      "outputs": [],
      "stateMutability": "payable",
      "type": "function"
    },
    {
      "inputs": [],
      "name": "renounceOwnership",
      "outputs": [],
      "stateMutability": "nonpayable",
      "type": "function"
    },
    {
      "inputs": [
        {
          "internalType": "address",
          "name": "from",
          "type": "address"
        },
        {
          "internalType": "address",
          "name": "to",
          "type": "address"
        },
        {
          "internalType": "uint256",
          "name": "tokenId",
          "type": "uint256"
        }
      ],
      "name": "safeTransferFrom",
      "outputs": [],
      "stateMutability": "nonpayable",
      "type": "function"
    },
    {
      "inputs": [
        {
          "internalType": "address",
          "name": "from",
          "type": "address"
        },
        {
          "internalType": "address",
          "name": "to",
          "type": "address"
        },
        {
          "internalType": "uint256",
          "name": "tokenId",
          "type": "uint256"
        },
        {
          "internalType": "bytes",
          "name": "data",
          "type": "bytes"
        }
      ],
      "name": "safeTransferFrom",
      "outputs": [],
      "stateMutability": "nonpayable",
      "type": "function"
    },
    {
      "inputs": [
        {
          "internalType": "address",
          "name": "operator",
          "type": "address"
        },
        {
          "internalType": "bool",
          "name": "approved",
          "type": "bool"
        }
      ],
      "name": "setApprovalForAll",
      "outputs": [],
      "stateMutability": "nonpayable",
      "type": "function"
    },
    {
      "inputs": [
        {
          "internalType": "string",
          "name": "_newBaseURI",
          "type": "string"
        }
      ],
      "name": "setBaseURI",
      "outputs": [],
      "stateMutability": "nonpayable",
      "type": "function"
    },
    {
      "inputs": [
        {
          "internalType": "bool",
          "name": "_state",
          "type": "bool"
        }
      ],
      "name": "setPause",
      "outputs": [],
      "stateMutability": "nonpayable",
      "type": "function"
    },
    {
      "inputs": [
        {
          "internalType": "bytes4",
          "name": "interfaceId",
          "type": "bytes4"
        }
      ],
      "name": "supportsInterface",
      "outputs": [
        {
          "internalType": "bool",
          "name": "",
          "type": "bool"
        }
      ],
      "stateMutability": "view",
      "type": "function"
    },
    {
      "inputs": [],
      "name": "symbol",
      "outputs": [
        {
          "internalType": "string",
          "name": "",
          "type": "string"
        }
      ],
      "stateMutability": "view",
      "type": "function"
    },
    {
      "inputs": [
        {
          "internalType": "uint256",
          "name": "index",
          "type": "uint256"
        }
      ],
      "name": "tokenByIndex",
      "outputs": [
        {
          "internalType": "uint256",
          "name": "",
          "type": "uint256"
        }
      ],
      "stateMutability": "view",
      "type": "function"
    },
    {
      "inputs": [
        {
          "internalType": "address",
          "name": "owner",
          "type": "address"
        },
        {
          "internalType": "uint256",
          "name": "index",
          "type": "uint256"
        }
      ],
      "name": "tokenOfOwnerByIndex",
      "outputs": [
        {
          "internalType": "uint256",
          "name": "",
          "type": "uint256"
        }
      ],
      "stateMutability": "view",
      "type": "function"
    },
    {
      "inputs": [
        {
          "internalType": "uint256",
          "name": "tokenId",
          "type": "uint256"
        }
      ],
      "name": "tokenURI",
      "outputs": [
        {
          "internalType": "string",
          "name": "",
          "type": "string"
        }
      ],
      "stateMutability": "view",
      "type": "function"
    },
    {
      "inputs": [],
      "name": "totalSupply",
      "outputs": [
        {
          "internalType": "uint256",
          "name": "",
          "type": "uint256"
        }
      ],
      "stateMutability": "view",
      "type": "function"
    },
    {
      "inputs": [
        {
          "internalType": "address",
          "name": "from",
          "type": "address"
        },
        {
          "internalType": "address",
          "name": "to",
          "type": "address"
        },
        {
          "internalType": "uint256",
          "name": "tokenId",
          "type": "uint256"
        }
      ],
      "name": "transferFrom",
      "outputs": [],
      "stateMutability": "nonpayable",
      "type": "function"
    },
    {
      "inputs": [
        {
          "internalType": "address",
          "name": "newOwner",
          "type": "address"
        }
      ],
      "name": "transferOwnership",
      "outputs": [],
      "stateMutability": "nonpayable",
      "type": "function"
    },
    {
      "inputs": [
        {
          "internalType": "address",
          "name": "",
          "type": "address"
        }
      ],
      "name": "whitelistClaimed",
      "outputs": [
        {
          "internalType": "bool",
          "name": "",
          "type": "bool"
        }
      ],
      "stateMutability": "view",
      "type": "function"
    }
  ],
  "bytecode": "0x60a06040526040518060400160405280600581526020017f2e6a736f6e000000000000000000000000000000000000000000000000000000815250600d9080519060200190620000519291906200032c565b506040518060400160405280600581526020017f2e77656270000000000000000000000000000000000000000000000000000000815250600e90805190602001906200009f9291906200032c565b5066038d7ea4c68000600f5560636010556000601160006101000a81548160ff021916908315150217905550348015620000d857600080fd5b506040516200537c3803806200537c8339818101604052810190620000fe9190620005b4565b83838160009080519060200190620001189291906200032c565b508060019080519060200190620001319291906200032c565b50505062000154620001486200017760201b60201c565b6200017f60201b60201c565b62000165826200024560201b60201c565b8060808181525050505050506200076b565b600033905090565b6000600a60009054906101000a900473ffffffffffffffffffffffffffffffffffffffff16905081600a60006101000a81548173ffffffffffffffffffffffffffffffffffffffff021916908373ffffffffffffffffffffffffffffffffffffffff1602179055508173ffffffffffffffffffffffffffffffffffffffff168173ffffffffffffffffffffffffffffffffffffffff167f8be0079c531659141344cd1fd0a4f28419497f9722a3daafe3b4186f6b6457e060405160405180910390a35050565b620002556200027160201b60201c565b80600c90805190602001906200026d9291906200032c565b5050565b620002816200017760201b60201c565b73ffffffffffffffffffffffffffffffffffffffff16620002a76200030260201b60201c565b73ffffffffffffffffffffffffffffffffffffffff161462000300576040517f08c379a0000000000000000000000000000000000000000000000000000000008152600401620002f790620006e4565b60405180910390fd5b565b6000600a60009054906101000a900473ffffffffffffffffffffffffffffffffffffffff16905090565b8280546200033a9062000735565b90600052602060002090601f0160209004810192826200035e5760008555620003aa565b82601f106200037957805160ff1916838001178555620003aa565b82800160010185558215620003aa579182015b82811115620003a95782518255916020019190600101906200038c565b5b509050620003b99190620003bd565b5090565b5b80821115620003d8576000816000905550600101620003be565b5090565b6000604051905090565b600080fd5b600080fd5b600080fd5b600080fd5b6000601f19601f8301169050919050565b7f4e487b7100000000000000000000000000000000000000000000000000000000600052604160045260246000fd5b6200044582620003fa565b810181811067ffffffffffffffff821117156200046757620004666200040b565b5b80604052505050565b60006200047c620003dc565b90506200048a82826200043a565b919050565b600067ffffffffffffffff821115620004ad57620004ac6200040b565b5b620004b882620003fa565b9050602081019050919050565b60005b83811015620004e5578082015181840152602081019050620004c8565b83811115620004f5576000848401525b50505050565b6000620005126200050c846200048f565b62000470565b905082815260208101848484011115620005315762000530620003f5565b5b6200053e848285620004c5565b509392505050565b600082601f8301126200055e576200055d620003f0565b5b815162000570848260208601620004fb565b91505092915050565b6000819050919050565b6200058e8162000579565b81146200059a57600080fd5b50565b600081519050620005ae8162000583565b92915050565b60008060008060808587031215620005d157620005d0620003e6565b5b600085015167ffffffffffffffff811115620005f257620005f1620003eb565b5b620006008782880162000546565b945050602085015167ffffffffffffffff811115620006245762000623620003eb565b5b620006328782880162000546565b935050604085015167ffffffffffffffff811115620006565762000655620003eb565b5b620006648782880162000546565b925050606062000677878288016200059d565b91505092959194509250565b600082825260208201905092915050565b7f4f776e61626c653a2063616c6c6572206973206e6f7420746865206f776e6572600082015250565b6000620006cc60208362000683565b9150620006d98262000694565b602082019050919050565b60006020820190508181036000830152620006ff81620006bd565b9050919050565b7f4e487b7100000000000000000000000000000000000000000000000000000000600052602260045260246000fd5b600060028204905060018216806200074e57607f821691505b6020821081141562000765576200076462000706565b5b50919050565b608051614bee6200078e60003960008181610ca20152610fc10152614bee6000f3fe6080604052600436106101e35760003560e01c806368ef9d3c11610102578063bedb86fb11610095578063db4bec4411610064578063db4bec44146106f9578063e0391b0914610736578063e985e9c514610761578063f2fde38b1461079e576101e3565b8063bedb86fb1461063d578063c668286214610666578063c87b56dd14610691578063d5abeb01146106ce576101e3565b80638da5cb5b116100d15780638da5cb5b1461059557806395d89b41146105c0578063a22cb465146105eb578063b88d4fde14610614576101e3565b806368ef9d3c146104db57806370a0823114610518578063715018a6146105555780637bf086211461056c576101e3565b806323b872dd1161017a5780634f6ccce7116101495780634f6ccce71461040d57806355f804b31461044a5780635c975abb146104735780636352211e1461049e576101e3565b806323b872dd146103535780632eb4a7ab1461037c5780632f745c59146103a757806342842e0e146103e4576101e3565b8063095ea7b3116101b6578063095ea7b3146102b8578063138481f1146102e157806313faede6146102fd57806318160ddd14610328576101e3565b806301ffc9a7146101e857806303b0f38d1461022557806306fdde0314610250578063081812fc1461027b575b600080fd5b3480156101f457600080fd5b5061020f600480360381019061020a919061320e565b6107c7565b60405161021c9190613256565b60405180910390f35b34801561023157600080fd5b5061023a610841565b604051610247919061330a565b60405180910390f35b34801561025c57600080fd5b506102656108cf565b604051610272919061330a565b60405180910390f35b34801561028757600080fd5b506102a2600480360381019061029d9190613362565b610961565b6040516102af91906133d0565b60405180910390f35b3480156102c457600080fd5b506102df60048036038101906102da9190613417565b6109a7565b005b6102fb60048036038101906102f691906134bc565b610abf565b005b34801561030957600080fd5b50610312610f4c565b60405161031f9190613518565b60405180910390f35b34801561033457600080fd5b5061033d610f52565b60405161034a9190613518565b60405180910390f35b34801561035f57600080fd5b5061037a60048036038101906103759190613533565b610f5f565b005b34801561038857600080fd5b50610391610fbf565b60405161039e919061359f565b60405180910390f35b3480156103b357600080fd5b506103ce60048036038101906103c99190613417565b610fe3565b6040516103db9190613518565b60405180910390f35b3480156103f057600080fd5b5061040b60048036038101906104069190613533565b611088565b005b34801561041957600080fd5b50610434600480360381019061042f9190613362565b6110a8565b6040516104419190613518565b60405180910390f35b34801561045657600080fd5b50610471600480360381019061046c91906136ea565b611119565b005b34801561047f57600080fd5b5061048861113b565b6040516104959190613256565b60405180910390f35b3480156104aa57600080fd5b506104c560048036038101906104c09190613362565b61114e565b6040516104d291906133d0565b60405180910390f35b3480156104e757600080fd5b5061050260048036038101906104fd9190613362565b6111d5565b60405161050f9190613811565b60405180910390f35b34801561052457600080fd5b5061053f600480360381019061053a9190613833565b611323565b60405161054c9190613518565b60405180910390f35b34801561056157600080fd5b5061056a6113db565b005b34801561057857600080fd5b50610593600480360381019061058e9190613417565b6113ef565b005b3480156105a157600080fd5b506105aa611472565b6040516105b791906133d0565b60405180910390f35b3480156105cc57600080fd5b506105d561149c565b6040516105e2919061330a565b60405180910390f35b3480156105f757600080fd5b50610612600480360381019061060d919061388c565b61152e565b005b34801561062057600080fd5b5061063b6004803603810190610636919061396d565b611544565b005b34801561064957600080fd5b50610664600480360381019061065f91906139f0565b6115a6565b005b34801561067257600080fd5b5061067b6115cb565b604051610688919061330a565b60405180910390f35b34801561069d57600080fd5b506106b860048036038101906106b39190613362565b611659565b6040516106c5919061330a565b60405180910390f35b3480156106da57600080fd5b506106e3611703565b6040516106f09190613518565b60405180910390f35b34801561070557600080fd5b50610720600480360381019061071b9190613833565b611709565b60405161072d9190613256565b60405180910390f35b34801561074257600080fd5b5061074b611729565b6040516107589190613b55565b60405180910390f35b34801561076d57600080fd5b5061078860048036038101906107839190613b77565b61188e565b6040516107959190613256565b60405180910390f35b3480156107aa57600080fd5b506107c560048036038101906107c09190613833565b611922565b005b60007f780e9d63000000000000000000000000000000000000000000000000000000007bffffffffffffffffffffffffffffffffffffffffffffffffffffffff1916827bffffffffffffffffffffffffffffffffffffffffffffffffffffffff1916148061083a5750610839826119a6565b5b9050919050565b600e805461084e90613be6565b80601f016020809104026020016040519081016040528092919081815260200182805461087a90613be6565b80156108c75780601f1061089c576101008083540402835291602001916108c7565b820191906000526020600020905b8154815290600101906020018083116108aa57829003601f168201915b505050505081565b6060600080546108de90613be6565b80601f016020809104026020016040519081016040528092919081815260200182805461090a90613be6565b80156109575780601f1061092c57610100808354040283529160200191610957565b820191906000526020600020905b81548152906001019060200180831161093a57829003601f168201915b5050505050905090565b600061096c82611a88565b6004600083815260200190815260200160002060009054906101000a900473ffffffffffffffffffffffffffffffffffffffff169050919050565b60006109b28261114e565b90508073ffffffffffffffffffffffffffffffffffffffff168373ffffffffffffffffffffffffffffffffffffffff161415610a23576040517f08c379a0000000000000000000000000000000000000000000000000000000008152600401610a1a90613c8a565b60405180910390fd5b8073ffffffffffffffffffffffffffffffffffffffff16610a42611ad3565b73ffffffffffffffffffffffffffffffffffffffff161480610a715750610a7081610a6b611ad3565b61188e565b5b610ab0576040517f08c379a0000000000000000000000000000000000000000000000000000000008152600401610aa790613d1c565b60405180910390fd5b610aba8383611adb565b505050565b6000610ac9610f52565b9050601160009054906101000a900460ff1615610b1b576040517f08c379a0000000000000000000000000000000000000000000000000000000008152600401610b1290613d88565b60405180910390fd5b601054811115610b60576040517f08c379a0000000000000000000000000000000000000000000000000000000008152600401610b5790613e1a565b60405180910390fd5b60003411610ba3576040517f08c379a0000000000000000000000000000000000000000000000000000000008152600401610b9a90613e86565b60405180910390fd5b600b60003373ffffffffffffffffffffffffffffffffffffffff1673ffffffffffffffffffffffffffffffffffffffff16815260200190815260200160002060009054906101000a900460ff1615610c30576040517f08c379a0000000000000000000000000000000000000000000000000000000008152600401610c2790613ef2565b60405180910390fd5b600033604051602001610c439190613f5a565b604051602081830303815290604052805190602001209050610cc7848480806020026020016040519081016040528093929190818152602001838360200280828437600081840152601f19601f820116905080830192505050505050507f000000000000000000000000000000000000000000000000000000000000000083611b94565b610d06576040517f08c379a0000000000000000000000000000000000000000000000000000000008152600401610cfd90613fc1565b60405180910390fd5b6001600b60003373ffffffffffffffffffffffffffffffffffffffff1673ffffffffffffffffffffffffffffffffffffffff16815260200190815260200160002060006101000a81548160ff021916908315150217905550610d66611472565b73ffffffffffffffffffffffffffffffffffffffff163373ffffffffffffffffffffffffffffffffffffffff1614610da857600f54341015610da757600080fd5b5b610dbe33600184610db99190614010565b611bab565b60126040518060a00160405280600185610dd89190614010565b81526020013373ffffffffffffffffffffffffffffffffffffffff168152602001348152602001610e14600186610e0f9190614010565b611bc9565b81526020014281525090806001815401808255809150506001900390600052602060002090600502016000909190919091506000820151816000015560208201518160010160006101000a81548173ffffffffffffffffffffffffffffffffffffffff021916908373ffffffffffffffffffffffffffffffffffffffff160217905550604082015181600201556060820151816003019080519060200190610ebd9291906130ba565b50608082015181600401555050610edf600183610eda9190614010565b611659565b604051610eec91906140a2565b60405180910390203373ffffffffffffffffffffffffffffffffffffffff167fb9508407a6eccb191d8da3286f4173697cf95604e9ea192fe5ab7c862b5221f6843442604051610f3e939291906140b9565b60405180910390a350505050565b600f5481565b6000600880549050905090565b610f70610f6a611ad3565b82611c2b565b610faf576040517f08c379a0000000000000000000000000000000000000000000000000000000008152600401610fa690614162565b60405180910390fd5b610fba838383611cc0565b505050565b7f000000000000000000000000000000000000000000000000000000000000000081565b6000610fee83611323565b821061102f576040517f08c379a0000000000000000000000000000000000000000000000000000000008152600401611026906141f4565b60405180910390fd5b600660008473ffffffffffffffffffffffffffffffffffffffff1673ffffffffffffffffffffffffffffffffffffffff168152602001908152602001600020600083815260200190815260200160002054905092915050565b6110a383838360405180602001604052806000815250611544565b505050565b60006110b2610f52565b82106110f3576040517f08c379a00000000000000000000000000000000000000000000000000000000081526004016110ea90614286565b60405180910390fd5b60088281548110611107576111066142a6565b5b90600052602060002001549050919050565b611121611fba565b80600c90805190602001906111379291906130ba565b5050565b601160009054906101000a900460ff1681565b60008061115a83612038565b9050600073ffffffffffffffffffffffffffffffffffffffff168173ffffffffffffffffffffffffffffffffffffffff1614156111cc576040517f08c379a00000000000000000000000000000000000000000000000000000000081526004016111c390614321565b60405180910390fd5b80915050919050565b6111dd613140565b60126001836111ec9190614341565b815481106111fd576111fc6142a6565b5b90600052602060002090600502016040518060a0016040529081600082015481526020016001820160009054906101000a900473ffffffffffffffffffffffffffffffffffffffff1673ffffffffffffffffffffffffffffffffffffffff1673ffffffffffffffffffffffffffffffffffffffff1681526020016002820154815260200160038201805461129090613be6565b80601f01602080910402602001604051908101604052809291908181526020018280546112bc90613be6565b80156113095780601f106112de57610100808354040283529160200191611309565b820191906000526020600020905b8154815290600101906020018083116112ec57829003601f168201915b505050505081526020016004820154815250509050919050565b60008073ffffffffffffffffffffffffffffffffffffffff168273ffffffffffffffffffffffffffffffffffffffff161415611394576040517f08c379a000000000000000000000000000000000000000000000000000000000815260040161138b906143e7565b60405180910390fd5b600360008373ffffffffffffffffffffffffffffffffffffffff1673ffffffffffffffffffffffffffffffffffffffff168152602001908152602001600020549050919050565b6113e3611fba565b6113ed6000612075565b565b6113f7611fba565b60008273ffffffffffffffffffffffffffffffffffffffff168260405161141d90614438565b60006040518083038185875af1925050503d806000811461145a576040519150601f19603f3d011682016040523d82523d6000602084013e61145f565b606091505b505090508061146d57600080fd5b505050565b6000600a60009054906101000a900473ffffffffffffffffffffffffffffffffffffffff16905090565b6060600180546114ab90613be6565b80601f01602080910402602001604051908101604052809291908181526020018280546114d790613be6565b80156115245780601f106114f957610100808354040283529160200191611524565b820191906000526020600020905b81548152906001019060200180831161150757829003601f168201915b5050505050905090565b611540611539611ad3565b838361213b565b5050565b61155561154f611ad3565b83611c2b565b611594576040517f08c379a000000000000000000000000000000000000000000000000000000000815260040161158b90614162565b60405180910390fd5b6115a0848484846122a8565b50505050565b6115ae611fba565b80601160006101000a81548160ff02191690831515021790555050565b600d80546115d890613be6565b80601f016020809104026020016040519081016040528092919081815260200182805461160490613be6565b80156116515780601f1061162657610100808354040283529160200191611651565b820191906000526020600020905b81548152906001019060200180831161163457829003601f168201915b505050505081565b606061166482612304565b6116a3576040517f08c379a000000000000000000000000000000000000000000000000000000000815260040161169a906144bf565b60405180910390fd5b60006116ad612345565b905060008151116116cd57604051806020016040528060008152506116fb565b806116d7846123d7565b600d6040516020016116eb93929190614573565b6040516020818303038152906040525b915050919050565b60105481565b600b6020528060005260406000206000915054906101000a900460ff1681565b60606012805480602002602001604051908101604052809291908181526020016000905b8282101561188557838290600052602060002090600502016040518060a0016040529081600082015481526020016001820160009054906101000a900473ffffffffffffffffffffffffffffffffffffffff1673ffffffffffffffffffffffffffffffffffffffff1673ffffffffffffffffffffffffffffffffffffffff168152602001600282015481526020016003820180546117ea90613be6565b80601f016020809104026020016040519081016040528092919081815260200182805461181690613be6565b80156118635780601f1061183857610100808354040283529160200191611863565b820191906000526020600020905b81548152906001019060200180831161184657829003601f168201915b505050505081526020016004820154815250508152602001906001019061174d565b50505050905090565b6000600560008473ffffffffffffffffffffffffffffffffffffffff1673ffffffffffffffffffffffffffffffffffffffff16815260200190815260200160002060008373ffffffffffffffffffffffffffffffffffffffff1673ffffffffffffffffffffffffffffffffffffffff16815260200190815260200160002060009054906101000a900460ff16905092915050565b61192a611fba565b600073ffffffffffffffffffffffffffffffffffffffff168173ffffffffffffffffffffffffffffffffffffffff16141561199a576040517f08c379a000000000000000000000000000000000000000000000000000000000815260040161199190614616565b60405180910390fd5b6119a381612075565b50565b60007f80ac58cd000000000000000000000000000000000000000000000000000000007bffffffffffffffffffffffffffffffffffffffffffffffffffffffff1916827bffffffffffffffffffffffffffffffffffffffffffffffffffffffff19161480611a7157507f5b5e139f000000000000000000000000000000000000000000000000000000007bffffffffffffffffffffffffffffffffffffffffffffffffffffffff1916827bffffffffffffffffffffffffffffffffffffffffffffffffffffffff1916145b80611a815750611a80826124af565b5b9050919050565b611a9181612304565b611ad0576040517f08c379a0000000000000000000000000000000000000000000000000000000008152600401611ac790614321565b60405180910390fd5b50565b600033905090565b816004600083815260200190815260200160002060006101000a81548173ffffffffffffffffffffffffffffffffffffffff021916908373ffffffffffffffffffffffffffffffffffffffff160217905550808273ffffffffffffffffffffffffffffffffffffffff16611b4e8361114e565b73ffffffffffffffffffffffffffffffffffffffff167f8c5be1e5ebec7d5bd14f71427d1e84f3dd0314c0f7b2291e5b200ac8c7c3b92560405160405180910390a45050565b600082611ba18584612519565b1490509392505050565b611bc582826040518060200160405280600081525061256f565b5050565b60606000611bd5612345565b90506000815111611bf55760405180602001604052806000815250611c23565b80611bff846123d7565b600e604051602001611c1393929190614573565b6040516020818303038152906040525b915050919050565b600080611c378361114e565b90508073ffffffffffffffffffffffffffffffffffffffff168473ffffffffffffffffffffffffffffffffffffffff161480611c795750611c78818561188e565b5b80611cb757508373ffffffffffffffffffffffffffffffffffffffff16611c9f84610961565b73ffffffffffffffffffffffffffffffffffffffff16145b91505092915050565b8273ffffffffffffffffffffffffffffffffffffffff16611ce08261114e565b73ffffffffffffffffffffffffffffffffffffffff1614611d36576040517f08c379a0000000000000000000000000000000000000000000000000000000008152600401611d2d906146a8565b60405180910390fd5b600073ffffffffffffffffffffffffffffffffffffffff168273ffffffffffffffffffffffffffffffffffffffff161415611da6576040517f08c379a0000000000000000000000000000000000000000000000000000000008152600401611d9d9061473a565b60405180910390fd5b611db383838360016125ca565b8273ffffffffffffffffffffffffffffffffffffffff16611dd38261114e565b73ffffffffffffffffffffffffffffffffffffffff1614611e29576040517f08c379a0000000000000000000000000000000000000000000000000000000008152600401611e20906146a8565b60405180910390fd5b6004600082815260200190815260200160002060006101000a81549073ffffffffffffffffffffffffffffffffffffffff02191690556001600360008573ffffffffffffffffffffffffffffffffffffffff1673ffffffffffffffffffffffffffffffffffffffff168152602001908152602001600020600082825403925050819055506001600360008473ffffffffffffffffffffffffffffffffffffffff1673ffffffffffffffffffffffffffffffffffffffff16815260200190815260200160002060008282540192505081905550816002600083815260200190815260200160002060006101000a81548173ffffffffffffffffffffffffffffffffffffffff021916908373ffffffffffffffffffffffffffffffffffffffff160217905550808273ffffffffffffffffffffffffffffffffffffffff168473ffffffffffffffffffffffffffffffffffffffff167fddf252ad1be2c89b69c2b068fc378daa952ba7f163c4a11628f55a4df523b3ef60405160405180910390a4611fb5838383600161272a565b505050565b611fc2611ad3565b73ffffffffffffffffffffffffffffffffffffffff16611fe0611472565b73ffffffffffffffffffffffffffffffffffffffff1614612036576040517f08c379a000000000000000000000000000000000000000000000000000000000815260040161202d906147a6565b60405180910390fd5b565b60006002600083815260200190815260200160002060009054906101000a900473ffffffffffffffffffffffffffffffffffffffff169050919050565b6000600a60009054906101000a900473ffffffffffffffffffffffffffffffffffffffff16905081600a60006101000a81548173ffffffffffffffffffffffffffffffffffffffff021916908373ffffffffffffffffffffffffffffffffffffffff1602179055508173ffffffffffffffffffffffffffffffffffffffff168173ffffffffffffffffffffffffffffffffffffffff167f8be0079c531659141344cd1fd0a4f28419497f9722a3daafe3b4186f6b6457e060405160405180910390a35050565b8173ffffffffffffffffffffffffffffffffffffffff168373ffffffffffffffffffffffffffffffffffffffff1614156121aa576040517f08c379a00000000000000000000000000000000000000000000000000000000081526004016121a190614812565b60405180910390fd5b80600560008573ffffffffffffffffffffffffffffffffffffffff1673ffffffffffffffffffffffffffffffffffffffff16815260200190815260200160002060008473ffffffffffffffffffffffffffffffffffffffff1673ffffffffffffffffffffffffffffffffffffffff16815260200190815260200160002060006101000a81548160ff0219169083151502179055508173ffffffffffffffffffffffffffffffffffffffff168373ffffffffffffffffffffffffffffffffffffffff167f17307eab39ab6107e8899845ad3d59bd9653f200f220920489ca2b5937696c318360405161229b9190613256565b60405180910390a3505050565b6122b3848484611cc0565b6122bf84848484612730565b6122fe576040517f08c379a00000000000000000000000000000000000000000000000000000000081526004016122f5906148a4565b60405180910390fd5b50505050565b60008073ffffffffffffffffffffffffffffffffffffffff1661232683612038565b73ffffffffffffffffffffffffffffffffffffffff1614159050919050565b6060600c805461235490613be6565b80601f016020809104026020016040519081016040528092919081815260200182805461238090613be6565b80156123cd5780601f106123a2576101008083540402835291602001916123cd565b820191906000526020600020905b8154815290600101906020018083116123b057829003601f168201915b5050505050905090565b6060600060016123e6846128b8565b01905060008167ffffffffffffffff811115612405576124046135bf565b5b6040519080825280601f01601f1916602001820160405280156124375781602001600182028036833780820191505090505b509050600082602001820190505b6001156124a4578080600190039150507f3031323334353637383961626364656600000000000000000000000000000000600a86061a8153600a858161248e5761248d6148c4565b5b049450600085141561249f576124a4565b612445565b819350505050919050565b60007f01ffc9a7000000000000000000000000000000000000000000000000000000007bffffffffffffffffffffffffffffffffffffffffffffffffffffffff1916827bffffffffffffffffffffffffffffffffffffffffffffffffffffffff1916149050919050565b60008082905060005b84518110156125645761254f82868381518110612542576125416142a6565b5b6020026020010151612a0b565b9150808061255c906148f3565b915050612522565b508091505092915050565b6125798383612a36565b6125866000848484612730565b6125c5576040517f08c379a00000000000000000000000000000000000000000000000000000000081526004016125bc906148a4565b60405180910390fd5b505050565b6125d684848484612c54565b600181111561261a576040517f08c379a0000000000000000000000000000000000000000000000000000000008152600401612611906149ae565b60405180910390fd5b6000829050600073ffffffffffffffffffffffffffffffffffffffff168573ffffffffffffffffffffffffffffffffffffffff1614156126625761265d81612d7a565b6126a1565b8373ffffffffffffffffffffffffffffffffffffffff168573ffffffffffffffffffffffffffffffffffffffff16146126a05761269f8582612dc3565b5b5b600073ffffffffffffffffffffffffffffffffffffffff168473ffffffffffffffffffffffffffffffffffffffff1614156126e4576126df81612f30565b612723565b8473ffffffffffffffffffffffffffffffffffffffff168473ffffffffffffffffffffffffffffffffffffffff1614612722576127218482613001565b5b5b5050505050565b50505050565b60006127518473ffffffffffffffffffffffffffffffffffffffff16613080565b156128ab578373ffffffffffffffffffffffffffffffffffffffff1663150b7a0261277a611ad3565b8786866040518563ffffffff1660e01b815260040161279c9493929190614a23565b6020604051808303816000875af19250505080156127d857506040513d601f19601f820116820180604052508101906127d59190614a84565b60015b61285b573d8060008114612808576040519150601f19603f3d011682016040523d82523d6000602084013e61280d565b606091505b50600081511415612853576040517f08c379a000000000000000000000000000000000000000000000000000000000815260040161284a906148a4565b60405180910390fd5b805181602001fd5b63150b7a0260e01b7bffffffffffffffffffffffffffffffffffffffffffffffffffffffff1916817bffffffffffffffffffffffffffffffffffffffffffffffffffffffff1916149150506128b0565b600190505b949350505050565b600080600090507a184f03e93ff9f4daa797ed6e38ed64bf6a1f0100000000000000008310612916577a184f03e93ff9f4daa797ed6e38ed64bf6a1f010000000000000000838161290c5761290b6148c4565b5b0492506040810190505b6d04ee2d6d415b85acef81000000008310612953576d04ee2d6d415b85acef81000000008381612949576129486148c4565b5b0492506020810190505b662386f26fc10000831061298257662386f26fc100008381612978576129776148c4565b5b0492506010810190505b6305f5e10083106129ab576305f5e10083816129a1576129a06148c4565b5b0492506008810190505b61271083106129d05761271083816129c6576129c56148c4565b5b0492506004810190505b606483106129f357606483816129e9576129e86148c4565b5b0492506002810190505b600a8310612a02576001810190505b80915050919050565b6000818310612a2357612a1e82846130a3565b612a2e565b612a2d83836130a3565b5b905092915050565b600073ffffffffffffffffffffffffffffffffffffffff168273ffffffffffffffffffffffffffffffffffffffff161415612aa6576040517f08c379a0000000000000000000000000000000000000000000000000000000008152600401612a9d90614afd565b60405180910390fd5b612aaf81612304565b15612aef576040517f08c379a0000000000000000000000000000000000000000000000000000000008152600401612ae690614b69565b60405180910390fd5b612afd6000838360016125ca565b612b0681612304565b15612b46576040517f08c379a0000000000000000000000000000000000000000000000000000000008152600401612b3d90614b69565b60405180910390fd5b6001600360008473ffffffffffffffffffffffffffffffffffffffff1673ffffffffffffffffffffffffffffffffffffffff16815260200190815260200160002060008282540192505081905550816002600083815260200190815260200160002060006101000a81548173ffffffffffffffffffffffffffffffffffffffff021916908373ffffffffffffffffffffffffffffffffffffffff160217905550808273ffffffffffffffffffffffffffffffffffffffff16600073ffffffffffffffffffffffffffffffffffffffff167fddf252ad1be2c89b69c2b068fc378daa952ba7f163c4a11628f55a4df523b3ef60405160405180910390a4612c5060008383600161272a565b5050565b6001811115612d7457600073ffffffffffffffffffffffffffffffffffffffff168473ffffffffffffffffffffffffffffffffffffffff1614612ce85780600360008673ffffffffffffffffffffffffffffffffffffffff1673ffffffffffffffffffffffffffffffffffffffff1681526020019081526020016000206000828254612ce09190614341565b925050819055505b600073ffffffffffffffffffffffffffffffffffffffff168373ffffffffffffffffffffffffffffffffffffffff1614612d735780600360008573ffffffffffffffffffffffffffffffffffffffff1673ffffffffffffffffffffffffffffffffffffffff1681526020019081526020016000206000828254612d6b9190614010565b925050819055505b5b50505050565b6008805490506009600083815260200190815260200160002081905550600881908060018154018082558091505060019003906000526020600020016000909190919091505550565b60006001612dd084611323565b612dda9190614341565b9050600060076000848152602001908152602001600020549050818114612ebf576000600660008673ffffffffffffffffffffffffffffffffffffffff1673ffffffffffffffffffffffffffffffffffffffff168152602001908152602001600020600084815260200190815260200160002054905080600660008773ffffffffffffffffffffffffffffffffffffffff1673ffffffffffffffffffffffffffffffffffffffff168152602001908152602001600020600084815260200190815260200160002081905550816007600083815260200190815260200160002081905550505b6007600084815260200190815260200160002060009055600660008573ffffffffffffffffffffffffffffffffffffffff1673ffffffffffffffffffffffffffffffffffffffff16815260200190815260200160002060008381526020019081526020016000206000905550505050565b60006001600880549050612f449190614341565b9050600060096000848152602001908152602001600020549050600060088381548110612f7457612f736142a6565b5b906000526020600020015490508060088381548110612f9657612f956142a6565b5b906000526020600020018190555081600960008381526020019081526020016000208190555060096000858152602001908152602001600020600090556008805480612fe557612fe4614b89565b5b6001900381819060005260206000200160009055905550505050565b600061300c83611323565b905081600660008573ffffffffffffffffffffffffffffffffffffffff1673ffffffffffffffffffffffffffffffffffffffff168152602001908152602001600020600083815260200190815260200160002081905550806007600084815260200190815260200160002081905550505050565b6000808273ffffffffffffffffffffffffffffffffffffffff163b119050919050565b600082600052816020526040600020905092915050565b8280546130c690613be6565b90600052602060002090601f0160209004810192826130e8576000855561312f565b82601f1061310157805160ff191683800117855561312f565b8280016001018555821561312f579182015b8281111561312e578251825591602001919060010190613113565b5b50905061313c9190613185565b5090565b6040518060a0016040528060008152602001600073ffffffffffffffffffffffffffffffffffffffff1681526020016000815260200160608152602001600081525090565b5b8082111561319e576000816000905550600101613186565b5090565b6000604051905090565b600080fd5b600080fd5b60007fffffffff0000000000000000000000000000000000000000000000000000000082169050919050565b6131eb816131b6565b81146131f657600080fd5b50565b600081359050613208816131e2565b92915050565b600060208284031215613224576132236131ac565b5b6000613232848285016131f9565b91505092915050565b60008115159050919050565b6132508161323b565b82525050565b600060208201905061326b6000830184613247565b92915050565b600081519050919050565b600082825260208201905092915050565b60005b838110156132ab578082015181840152602081019050613290565b838111156132ba576000848401525b50505050565b6000601f19601f8301169050919050565b60006132dc82613271565b6132e6818561327c565b93506132f681856020860161328d565b6132ff816132c0565b840191505092915050565b6000602082019050818103600083015261332481846132d1565b905092915050565b6000819050919050565b61333f8161332c565b811461334a57600080fd5b50565b60008135905061335c81613336565b92915050565b600060208284031215613378576133776131ac565b5b60006133868482850161334d565b91505092915050565b600073ffffffffffffffffffffffffffffffffffffffff82169050919050565b60006133ba8261338f565b9050919050565b6133ca816133af565b82525050565b60006020820190506133e560008301846133c1565b92915050565b6133f4816133af565b81146133ff57600080fd5b50565b600081359050613411816133eb565b92915050565b6000806040838503121561342e5761342d6131ac565b5b600061343c85828601613402565b925050602061344d8582860161334d565b9150509250929050565b600080fd5b600080fd5b600080fd5b60008083601f84011261347c5761347b613457565b5b8235905067ffffffffffffffff8111156134995761349861345c565b5b6020830191508360208202830111156134b5576134b4613461565b5b9250929050565b600080602083850312156134d3576134d26131ac565b5b600083013567ffffffffffffffff8111156134f1576134f06131b1565b5b6134fd85828601613466565b92509250509250929050565b6135128161332c565b82525050565b600060208201905061352d6000830184613509565b92915050565b60008060006060848603121561354c5761354b6131ac565b5b600061355a86828701613402565b935050602061356b86828701613402565b925050604061357c8682870161334d565b9150509250925092565b6000819050919050565b61359981613586565b82525050565b60006020820190506135b46000830184613590565b92915050565b600080fd5b7f4e487b7100000000000000000000000000000000000000000000000000000000600052604160045260246000fd5b6135f7826132c0565b810181811067ffffffffffffffff82111715613616576136156135bf565b5b80604052505050565b60006136296131a2565b905061363582826135ee565b919050565b600067ffffffffffffffff821115613655576136546135bf565b5b61365e826132c0565b9050602081019050919050565b82818337600083830152505050565b600061368d6136888461363a565b61361f565b9050828152602081018484840111156136a9576136a86135ba565b5b6136b484828561366b565b509392505050565b600082601f8301126136d1576136d0613457565b5b81356136e184826020860161367a565b91505092915050565b600060208284031215613700576136ff6131ac565b5b600082013567ffffffffffffffff81111561371e5761371d6131b1565b5b61372a848285016136bc565b91505092915050565b61373c8161332c565b82525050565b61374b816133af565b82525050565b600082825260208201905092915050565b600061376d82613271565b6137778185613751565b935061378781856020860161328d565b613790816132c0565b840191505092915050565b600060a0830160008301516137b36000860182613733565b5060208301516137c66020860182613742565b5060408301516137d96040860182613733565b50606083015184820360608601526137f18282613762565b91505060808301516138066080860182613733565b508091505092915050565b6000602082019050818103600083015261382b818461379b565b905092915050565b600060208284031215613849576138486131ac565b5b600061385784828501613402565b91505092915050565b6138698161323b565b811461387457600080fd5b50565b60008135905061388681613860565b92915050565b600080604083850312156138a3576138a26131ac565b5b60006138b185828601613402565b92505060206138c285828601613877565b9150509250929050565b600067ffffffffffffffff8211156138e7576138e66135bf565b5b6138f0826132c0565b9050602081019050919050565b600061391061390b846138cc565b61361f565b90508281526020810184848401111561392c5761392b6135ba565b5b61393784828561366b565b509392505050565b600082601f83011261395457613953613457565b5b81356139648482602086016138fd565b91505092915050565b60008060008060808587031215613987576139866131ac565b5b600061399587828801613402565b94505060206139a687828801613402565b93505060406139b78782880161334d565b925050606085013567ffffffffffffffff8111156139d8576139d76131b1565b5b6139e48782880161393f565b91505092959194509250565b600060208284031215613a0657613a056131ac565b5b6000613a1484828501613877565b91505092915050565b600081519050919050565b600082825260208201905092915050565b6000819050602082019050919050565b600060a083016000830151613a616000860182613733565b506020830151613a746020860182613742565b506040830151613a876040860182613733565b5060608301518482036060860152613a9f8282613762565b9150506080830151613ab46080860182613733565b508091505092915050565b6000613acb8383613a49565b905092915050565b6000602082019050919050565b6000613aeb82613a1d565b613af58185613a28565b935083602082028501613b0785613a39565b8060005b85811015613b435784840389528151613b248582613abf565b9450613b2f83613ad3565b925060208a01995050600181019050613b0b565b50829750879550505050505092915050565b60006020820190508181036000830152613b6f8184613ae0565b905092915050565b60008060408385031215613b8e57613b8d6131ac565b5b6000613b9c85828601613402565b9250506020613bad85828601613402565b9150509250929050565b7f4e487b7100000000000000000000000000000000000000000000000000000000600052602260045260246000fd5b60006002820490506001821680613bfe57607f821691505b60208210811415613c1257613c11613bb7565b5b50919050565b7f4552433732313a20617070726f76616c20746f2063757272656e74206f776e6560008201527f7200000000000000000000000000000000000000000000000000000000000000602082015250565b6000613c7460218361327c565b9150613c7f82613c18565b604082019050919050565b60006020820190508181036000830152613ca381613c67565b9050919050565b7f4552433732313a20617070726f76652063616c6c6572206973206e6f7420746f60008201527f6b656e206f776e6572206f7220617070726f76656420666f7220616c6c000000602082015250565b6000613d06603d8361327c565b9150613d1182613caa565b604082019050919050565b60006020820190508181036000830152613d3581613cf9565b9050919050565b7f4e46547320756e646572206d61696e74656e616e636521000000000000000000600082015250565b6000613d7260178361327c565b9150613d7d82613d3c565b602082019050919050565b60006020820190508181036000830152613da181613d65565b9050919050565b7f536f7272792c20616c6c204e4654732068617665206265656e206d696e74656460008201527f2100000000000000000000000000000000000000000000000000000000000000602082015250565b6000613e0460218361327c565b9150613e0f82613da8565b604082019050919050565b60006020820190508181036000830152613e3381613df7565b9050919050565b7f457468657220746f6f206c6f7720666f72206d696e74696e6721000000000000600082015250565b6000613e70601a8361327c565b9150613e7b82613e3a565b602082019050919050565b60006020820190508181036000830152613e9f81613e63565b9050919050565b7f4164647265737320616c726561647920636c61696d6564000000000000000000600082015250565b6000613edc60178361327c565b9150613ee782613ea6565b602082019050919050565b60006020820190508181036000830152613f0b81613ecf565b9050919050565b60008160601b9050919050565b6000613f2a82613f12565b9050919050565b6000613f3c82613f1f565b9050919050565b613f54613f4f826133af565b613f31565b82525050565b6000613f668284613f43565b60148201915081905092915050565b7f496e76616c6964204d65726b6c652050726f6f662e0000000000000000000000600082015250565b6000613fab60158361327c565b9150613fb682613f75565b602082019050919050565b60006020820190508181036000830152613fda81613f9e565b9050919050565b7f4e487b7100000000000000000000000000000000000000000000000000000000600052601160045260246000fd5b600061401b8261332c565b91506140268361332c565b9250827fffffffffffffffffffffffffffffffffffffffffffffffffffffffffffffffff0382111561405b5761405a613fe1565b5b828201905092915050565b600081905092915050565b600061407c82613271565b6140868185614066565b935061409681856020860161328d565b80840191505092915050565b60006140ae8284614071565b915081905092915050565b60006060820190506140ce6000830186613509565b6140db6020830185613509565b6140e86040830184613509565b949350505050565b7f4552433732313a2063616c6c6572206973206e6f7420746f6b656e206f776e6560008201527f72206f7220617070726f76656400000000000000000000000000000000000000602082015250565b600061414c602d8361327c565b9150614157826140f0565b604082019050919050565b6000602082019050818103600083015261417b8161413f565b9050919050565b7f455243373231456e756d657261626c653a206f776e657220696e646578206f7560008201527f74206f6620626f756e6473000000000000000000000000000000000000000000602082015250565b60006141de602b8361327c565b91506141e982614182565b604082019050919050565b6000602082019050818103600083015261420d816141d1565b9050919050565b7f455243373231456e756d657261626c653a20676c6f62616c20696e646578206f60008201527f7574206f6620626f756e64730000000000000000000000000000000000000000602082015250565b6000614270602c8361327c565b915061427b82614214565b604082019050919050565b6000602082019050818103600083015261429f81614263565b9050919050565b7f4e487b7100000000000000000000000000000000000000000000000000000000600052603260045260246000fd5b7f4552433732313a20696e76616c696420746f6b656e2049440000000000000000600082015250565b600061430b60188361327c565b9150614316826142d5565b602082019050919050565b6000602082019050818103600083015261433a816142fe565b9050919050565b600061434c8261332c565b91506143578361332c565b92508282101561436a57614369613fe1565b5b828203905092915050565b7f4552433732313a2061646472657373207a65726f206973206e6f74206120766160008201527f6c6964206f776e65720000000000000000000000000000000000000000000000602082015250565b60006143d160298361327c565b91506143dc82614375565b604082019050919050565b60006020820190508181036000830152614400816143c4565b9050919050565b600081905092915050565b50565b6000614422600083614407565b915061442d82614412565b600082019050919050565b600061444382614415565b9150819050919050565b7f4552433732314d657461646174613a2055524920717565727920666f72206e6f60008201527f6e6578697374656e7420746f6b656e0000000000000000000000000000000000602082015250565b60006144a9602f8361327c565b91506144b48261444d565b604082019050919050565b600060208201905081810360008301526144d88161449c565b9050919050565b60008190508160005260206000209050919050565b6000815461450181613be6565b61450b8186614066565b9450600182166000811461452657600181146145375761456a565b60ff1983168652818601935061456a565b614540856144df565b60005b8381101561456257815481890152600182019150602081019050614543565b838801955050505b50505092915050565b600061457f8286614071565b915061458b8285614071565b915061459782846144f4565b9150819050949350505050565b7f4f776e61626c653a206e6577206f776e657220697320746865207a65726f206160008201527f6464726573730000000000000000000000000000000000000000000000000000602082015250565b600061460060268361327c565b915061460b826145a4565b604082019050919050565b6000602082019050818103600083015261462f816145f3565b9050919050565b7f4552433732313a207472616e736665722066726f6d20696e636f72726563742060008201527f6f776e6572000000000000000000000000000000000000000000000000000000602082015250565b600061469260258361327c565b915061469d82614636565b604082019050919050565b600060208201905081810360008301526146c181614685565b9050919050565b7f4552433732313a207472616e7366657220746f20746865207a65726f2061646460008201527f7265737300000000000000000000000000000000000000000000000000000000602082015250565b600061472460248361327c565b915061472f826146c8565b604082019050919050565b6000602082019050818103600083015261475381614717565b9050919050565b7f4f776e61626c653a2063616c6c6572206973206e6f7420746865206f776e6572600082015250565b600061479060208361327c565b915061479b8261475a565b602082019050919050565b600060208201905081810360008301526147bf81614783565b9050919050565b7f4552433732313a20617070726f766520746f2063616c6c657200000000000000600082015250565b60006147fc60198361327c565b9150614807826147c6565b602082019050919050565b6000602082019050818103600083015261482b816147ef565b9050919050565b7f4552433732313a207472616e7366657220746f206e6f6e20455243373231526560008201527f63656976657220696d706c656d656e7465720000000000000000000000000000602082015250565b600061488e60328361327c565b915061489982614832565b604082019050919050565b600060208201905081810360008301526148bd81614881565b9050919050565b7f4e487b7100000000000000000000000000000000000000000000000000000000600052601260045260246000fd5b60006148fe8261332c565b91507fffffffffffffffffffffffffffffffffffffffffffffffffffffffffffffffff82141561493157614930613fe1565b5b600182019050919050565b7f455243373231456e756d657261626c653a20636f6e736563757469766520747260008201527f616e7366657273206e6f7420737570706f727465640000000000000000000000602082015250565b600061499860358361327c565b91506149a38261493c565b604082019050919050565b600060208201905081810360008301526149c78161498b565b9050919050565b600081519050919050565b600082825260208201905092915050565b60006149f5826149ce565b6149ff81856149d9565b9350614a0f81856020860161328d565b614a18816132c0565b840191505092915050565b6000608082019050614a3860008301876133c1565b614a4560208301866133c1565b614a526040830185613509565b8181036060830152614a6481846149ea565b905095945050505050565b600081519050614a7e816131e2565b92915050565b600060208284031215614a9a57614a996131ac565b5b6000614aa884828501614a6f565b91505092915050565b7f4552433732313a206d696e7420746f20746865207a65726f2061646472657373600082015250565b6000614ae760208361327c565b9150614af282614ab1565b602082019050919050565b60006020820190508181036000830152614b1681614ada565b9050919050565b7f4552433732313a20746f6b656e20616c7265616479206d696e74656400000000600082015250565b6000614b53601c8361327c565b9150614b5e82614b1d565b602082019050919050565b60006020820190508181036000830152614b8281614b46565b9050919050565b7f4e487b7100000000000000000000000000000000000000000000000000000000600052603160045260246000fdfea2646970667358221220f01b288a87b9eedf550bb187aa62484fa30ab1c51c7187c01845c972cab72d3464736f6c634300080b0033",
  "linkReferences": {},
  "deployedLinkReferences": {}
}