{
  "_format": "hh-sol-artifact-1",
  "contractName": "WhitelistSale",
  "sourceName": "contracts/WhitelistSale.sol",
  "abi": [
    {
      "inputs": [
        {
          "internalType": "string",
          "name": "_name",
          "type": "string"
        },
        {
          "internalType": "string",
          "name": "_symbol",
          "type": "string"
        },
        {
          "internalType": "string",
          "name": "_initBaseURI",
          "type": "string"
        }
      ],
      "stateMutability": "nonpayable",
      "type": "constructor"
    },
    {
      "anonymous": false,
      "inputs": [
        {
          "indexed": true,
          "internalType": "address",
          "name": "owner",
          "type": "address"
        },
        {
          "indexed": true,
          "internalType": "address",
          "name": "approved",
          "type": "address"
        },
        {
          "indexed": true,
          "internalType": "uint256",
          "name": "tokenId",
          "type": "uint256"
        }
      ],
      "name": "Approval",
      "type": "event"
    },
    {
      "anonymous": false,
      "inputs": [
        {
          "indexed": true,
          "internalType": "address",
          "name": "owner",
          "type": "address"
        },
        {
          "indexed": true,
          "internalType": "address",
          "name": "operator",
          "type": "address"
        },
        {
          "indexed": false,
          "internalType": "bool",
          "name": "approved",
          "type": "bool"
        }
      ],
      "name": "ApprovalForAll",
      "type": "event"
    },
    {
      "anonymous": false,
      "inputs": [
        {
          "indexed": true,
          "internalType": "address",
          "name": "previousOwner",
          "type": "address"
        },
        {
          "indexed": true,
          "internalType": "address",
          "name": "newOwner",
          "type": "address"
        }
      ],
      "name": "OwnershipTransferred",
      "type": "event"
    },
    {
      "anonymous": false,
      "inputs": [
        {
          "indexed": false,
          "internalType": "uint256",
          "name": "id",
          "type": "uint256"
        },
        {
          "indexed": true,
          "internalType": "address",
          "name": "buyer",
          "type": "address"
        },
        {
          "indexed": false,
          "internalType": "uint256",
          "name": "cost",
          "type": "uint256"
        },
        {
          "indexed": true,
          "internalType": "string",
          "name": "tokenURI",
          "type": "string"
        },
        {
          "indexed": false,
          "internalType": "uint256",
          "name": "timestamp",
          "type": "uint256"
        }
      ],
      "name": "Sale",
      "type": "event"
    },
    {
      "anonymous": false,
      "inputs": [
        {
          "indexed": true,
          "internalType": "address",
          "name": "from",
          "type": "address"
        },
        {
          "indexed": true,
          "internalType": "address",
          "name": "to",
          "type": "address"
        },
        {
          "indexed": true,
          "internalType": "uint256",
          "name": "tokenId",
          "type": "uint256"
        }
      ],
      "name": "Transfer",
      "type": "event"
    },
    {
      "inputs": [
        {
          "internalType": "address",
          "name": "to",
          "type": "address"
        },
        {
          "internalType": "uint256",
          "name": "tokenId",
          "type": "uint256"
        }
      ],
      "name": "approve",
      "outputs": [],
      "stateMutability": "nonpayable",
      "type": "function"
    },
    {
      "inputs": [
        {
          "internalType": "address",
          "name": "owner",
          "type": "address"
        }
      ],
      "name": "balanceOf",
      "outputs": [
        {
          "internalType": "uint256",
          "name": "",
          "type": "uint256"
        }
      ],
      "stateMutability": "view",
      "type": "function"
    },
    {
      "inputs": [],
      "name": "baseExtension",
      "outputs": [
        {
          "internalType": "string",
          "name": "",
          "type": "string"
        }
      ],
      "stateMutability": "view",
      "type": "function"
    },
    {
      "inputs": [],
      "name": "baseImage",
      "outputs": [
        {
          "internalType": "string",
          "name": "",
          "type": "string"
        }
      ],
      "stateMutability": "view",
      "type": "function"
    },
    {
      "inputs": [],
      "name": "cost",
      "outputs": [
        {
          "internalType": "uint256",
          "name": "",
          "type": "uint256"
        }
      ],
      "stateMutability": "view",
      "type": "function"
    },
    {
      "inputs": [],
      "name": "getAllNFTs",
      "outputs": [
        {
          "components": [
            {
              "internalType": "uint256",
              "name": "id",
              "type": "uint256"
            },
            {
              "internalType": "address",
              "name": "buyer",
              "type": "address"
            },
            {
              "internalType": "uint256",
              "name": "cost",
              "type": "uint256"
            },
            {
              "internalType": "string",
              "name": "imageURL",
              "type": "string"
            },
            {
              "internalType": "uint256",
              "name": "timestamp",
              "type": "uint256"
            }
          ],
          "internalType": "struct WhitelistSale.SaleStruct[]",
          "name": "",
          "type": "tuple[]"
        }
      ],
      "stateMutability": "view",
      "type": "function"
    },
    {
      "inputs": [
        {
          "internalType": "uint256",
          "name": "tokenId",
          "type": "uint256"
        }
      ],
      "name": "getAnNFTs",
      "outputs": [
        {
          "components": [
            {
              "internalType": "uint256",
              "name": "id",
              "type": "uint256"
            },
            {
              "internalType": "address",
              "name": "buyer",
              "type": "address"
            },
            {
              "internalType": "uint256",
              "name": "cost",
              "type": "uint256"
            },
            {
              "internalType": "string",
              "name": "imageURL",
              "type": "string"
            },
            {
              "internalType": "uint256",
              "name": "timestamp",
              "type": "uint256"
            }
          ],
          "internalType": "struct WhitelistSale.SaleStruct",
          "name": "",
          "type": "tuple"
        }
      ],
      "stateMutability": "view",
      "type": "function"
    },
    {
      "inputs": [
        {
          "internalType": "uint256",
          "name": "tokenId",
          "type": "uint256"
        }
      ],
      "name": "getApproved",
      "outputs": [
        {
          "internalType": "address",
          "name": "",
          "type": "address"
        }
      ],
      "stateMutability": "view",
      "type": "function"
    },
    {
      "inputs": [
        {
          "internalType": "address",
          "name": "owner",
          "type": "address"
        },
        {
          "internalType": "address",
          "name": "operator",
          "type": "address"
        }
      ],
      "name": "isApprovedForAll",
      "outputs": [
        {
          "internalType": "bool",
          "name": "",
          "type": "bool"
        }
      ],
      "stateMutability": "view",
      "type": "function"
    },
    {
      "inputs": [],
      "name": "maxSupply",
      "outputs": [
        {
          "internalType": "uint256",
          "name": "",
          "type": "uint256"
        }
      ],
      "stateMutability": "view",
      "type": "function"
    },
    {
      "inputs": [],
      "name": "merkleRoot",
      "outputs": [
        {
          "internalType": "bytes32",
          "name": "",
          "type": "bytes32"
        }
      ],
      "stateMutability": "view",
      "type": "function"
    },
    {
      "inputs": [],
      "name": "name",
      "outputs": [
        {
          "internalType": "string",
          "name": "",
          "type": "string"
        }
      ],
      "stateMutability": "view",
      "type": "function"
    },
    {
      "inputs": [],
      "name": "owner",
      "outputs": [
        {
          "internalType": "address",
          "name": "",
          "type": "address"
        }
      ],
      "stateMutability": "view",
      "type": "function"
    },
    {
      "inputs": [
        {
          "internalType": "uint256",
          "name": "tokenId",
          "type": "uint256"
        }
      ],
      "name": "ownerOf",
      "outputs": [
        {
          "internalType": "address",
          "name": "",
          "type": "address"
        }
      ],
      "stateMutability": "view",
      "type": "function"
    },
    {
      "inputs": [],
      "name": "paused",
      "outputs": [
        {
          "internalType": "bool",
          "name": "",
          "type": "bool"
        }
      ],
      "stateMutability": "view",
      "type": "function"
    },
    {
      "inputs": [
        {
          "internalType": "address",
          "name": "to",
          "type": "address"
        },
        {
          "internalType": "uint256",
          "name": "amount",
          "type": "uint256"
        }
      ],
      "name": "payTo",
      "outputs": [],
      "stateMutability": "nonpayable",
      "type": "function"
    },
    {
      "inputs": [
        {
          "internalType": "uint256",
          "name": "_mintAmount",
          "type": "uint256"
        },
        {
          "internalType": "bytes32[]",
          "name": "_merkleProof",
          "type": "bytes32[]"
        }
      ],
      "name": "payToMint",
      "outputs": [],
      "stateMutability": "payable",
      "type": "function"
    },
    {
      "inputs": [],
      "name": "renounceOwnership",
      "outputs": [],
      "stateMutability": "nonpayable",
      "type": "function"
    },
    {
      "inputs": [
        {
          "internalType": "address",
          "name": "from",
          "type": "address"
        },
        {
          "internalType": "address",
          "name": "to",
          "type": "address"
        },
        {
          "internalType": "uint256",
          "name": "tokenId",
          "type": "uint256"
        }
      ],
      "name": "safeTransferFrom",
      "outputs": [],
      "stateMutability": "nonpayable",
      "type": "function"
    },
    {
      "inputs": [
        {
          "internalType": "address",
          "name": "from",
          "type": "address"
        },
        {
          "internalType": "address",
          "name": "to",
          "type": "address"
        },
        {
          "internalType": "uint256",
          "name": "tokenId",
          "type": "uint256"
        },
        {
          "internalType": "bytes",
          "name": "data",
          "type": "bytes"
        }
      ],
      "name": "safeTransferFrom",
      "outputs": [],
      "stateMutability": "nonpayable",
      "type": "function"
    },
    {
      "inputs": [
        {
          "internalType": "address",
          "name": "operator",
          "type": "address"
        },
        {
          "internalType": "bool",
          "name": "approved",
          "type": "bool"
        }
      ],
      "name": "setApprovalForAll",
      "outputs": [],
      "stateMutability": "nonpayable",
      "type": "function"
    },
    {
      "inputs": [
        {
          "internalType": "string",
          "name": "_newBaseURI",
          "type": "string"
        }
      ],
      "name": "setBaseURI",
      "outputs": [],
      "stateMutability": "nonpayable",
      "type": "function"
    },
    {
      "inputs": [
        {
          "internalType": "bool",
          "name": "_state",
          "type": "bool"
        }
      ],
      "name": "setPause",
      "outputs": [],
      "stateMutability": "nonpayable",
      "type": "function"
    },
    {
      "inputs": [
        {
          "internalType": "bytes4",
          "name": "interfaceId",
          "type": "bytes4"
        }
      ],
      "name": "supportsInterface",
      "outputs": [
        {
          "internalType": "bool",
          "name": "",
          "type": "bool"
        }
      ],
      "stateMutability": "view",
      "type": "function"
    },
    {
      "inputs": [],
      "name": "symbol",
      "outputs": [
        {
          "internalType": "string",
          "name": "",
          "type": "string"
        }
      ],
      "stateMutability": "view",
      "type": "function"
    },
    {
      "inputs": [
        {
          "internalType": "uint256",
          "name": "index",
          "type": "uint256"
        }
      ],
      "name": "tokenByIndex",
      "outputs": [
        {
          "internalType": "uint256",
          "name": "",
          "type": "uint256"
        }
      ],
      "stateMutability": "view",
      "type": "function"
    },
    {
      "inputs": [
        {
          "internalType": "address",
          "name": "owner",
          "type": "address"
        },
        {
          "internalType": "uint256",
          "name": "index",
          "type": "uint256"
        }
      ],
      "name": "tokenOfOwnerByIndex",
      "outputs": [
        {
          "internalType": "uint256",
          "name": "",
          "type": "uint256"
        }
      ],
      "stateMutability": "view",
      "type": "function"
    },
    {
      "inputs": [
        {
          "internalType": "uint256",
          "name": "tokenId",
          "type": "uint256"
        }
      ],
      "name": "tokenURI",
      "outputs": [
        {
          "internalType": "string",
          "name": "",
          "type": "string"
        }
      ],
      "stateMutability": "view",
      "type": "function"
    },
    {
      "inputs": [],
      "name": "totalSupply",
      "outputs": [
        {
          "internalType": "uint256",
          "name": "",
          "type": "uint256"
        }
      ],
      "stateMutability": "view",
      "type": "function"
    },
    {
      "inputs": [
        {
          "internalType": "address",
          "name": "from",
          "type": "address"
        },
        {
          "internalType": "address",
          "name": "to",
          "type": "address"
        },
        {
          "internalType": "uint256",
          "name": "tokenId",
          "type": "uint256"
        }
      ],
      "name": "transferFrom",
      "outputs": [],
      "stateMutability": "nonpayable",
      "type": "function"
    },
    {
      "inputs": [
        {
          "internalType": "address",
          "name": "newOwner",
          "type": "address"
        }
      ],
      "name": "transferOwnership",
      "outputs": [],
      "stateMutability": "nonpayable",
      "type": "function"
    },
    {
      "inputs": [
        {
          "internalType": "address",
          "name": "",
          "type": "address"
        }
      ],
      "name": "whitelistClaimed",
      "outputs": [
        {
          "internalType": "bool",
          "name": "",
          "type": "bool"
        }
      ],
      "stateMutability": "view",
      "type": "function"
    }
  ],
  "bytecode": "0x60806040527fe0858ad5cab09e823c8559437a93634ff6d72b980375d8b6b5858caf806eaaca60001b600b556040518060400160405280600581526020017f2e6a736f6e000000000000000000000000000000000000000000000000000000815250600e9080519060200190620000789291906200034a565b506040518060400160405280600581526020017f2e77656270000000000000000000000000000000000000000000000000000000815250600f9080519060200190620000c69291906200034a565b5066038d7ea4c6800060105560636011556000601260006101000a81548160ff021916908315150217905550348015620000ff57600080fd5b506040516200533f3803806200533f833981810160405281019062000125919062000597565b828281600090805190602001906200013f9291906200034a565b508060019080519060200190620001589291906200034a565b5050506200017b6200016f6200019560201b60201c565b6200019d60201b60201c565b6200018c816200026360201b60201c565b50505062000738565b600033905090565b6000600a60009054906101000a900473ffffffffffffffffffffffffffffffffffffffff16905081600a60006101000a81548173ffffffffffffffffffffffffffffffffffffffff021916908373ffffffffffffffffffffffffffffffffffffffff1602179055508173ffffffffffffffffffffffffffffffffffffffff168173ffffffffffffffffffffffffffffffffffffffff167f8be0079c531659141344cd1fd0a4f28419497f9722a3daafe3b4186f6b6457e060405160405180910390a35050565b620002736200028f60201b60201c565b80600d90805190602001906200028b9291906200034a565b5050565b6200029f6200019560201b60201c565b73ffffffffffffffffffffffffffffffffffffffff16620002c56200032060201b60201c565b73ffffffffffffffffffffffffffffffffffffffff16146200031e576040517f08c379a00000000000000000000000000000000000000000000000000000000081526004016200031590620006b1565b60405180910390fd5b565b6000600a60009054906101000a900473ffffffffffffffffffffffffffffffffffffffff16905090565b828054620003589062000702565b90600052602060002090601f0160209004810192826200037c5760008555620003c8565b82601f106200039757805160ff1916838001178555620003c8565b82800160010185558215620003c8579182015b82811115620003c7578251825591602001919060010190620003aa565b5b509050620003d79190620003db565b5090565b5b80821115620003f6576000816000905550600101620003dc565b5090565b6000604051905090565b600080fd5b600080fd5b600080fd5b600080fd5b6000601f19601f8301169050919050565b7f4e487b7100000000000000000000000000000000000000000000000000000000600052604160045260246000fd5b620004638262000418565b810181811067ffffffffffffffff8211171562000485576200048462000429565b5b80604052505050565b60006200049a620003fa565b9050620004a8828262000458565b919050565b600067ffffffffffffffff821115620004cb57620004ca62000429565b5b620004d68262000418565b9050602081019050919050565b60005b8381101562000503578082015181840152602081019050620004e6565b8381111562000513576000848401525b50505050565b6000620005306200052a84620004ad565b6200048e565b9050828152602081018484840111156200054f576200054e62000413565b5b6200055c848285620004e3565b509392505050565b600082601f8301126200057c576200057b6200040e565b5b81516200058e84826020860162000519565b91505092915050565b600080600060608486031215620005b357620005b262000404565b5b600084015167ffffffffffffffff811115620005d457620005d362000409565b5b620005e28682870162000564565b935050602084015167ffffffffffffffff81111562000606576200060562000409565b5b620006148682870162000564565b925050604084015167ffffffffffffffff81111562000638576200063762000409565b5b620006468682870162000564565b9150509250925092565b600082825260208201905092915050565b7f4f776e61626c653a2063616c6c6572206973206e6f7420746865206f776e6572600082015250565b60006200069960208362000650565b9150620006a68262000661565b602082019050919050565b60006020820190508181036000830152620006cc816200068a565b9050919050565b7f4e487b7100000000000000000000000000000000000000000000000000000000600052602260045260246000fd5b600060028204905060018216806200071b57607f821691505b60208210811415620007325762000731620006d3565b5b50919050565b614bf780620007486000396000f3fe6080604052600436106101e35760003560e01c806368ef9d3c11610102578063bedb86fb11610095578063db4bec4411610064578063db4bec44146106f9578063e0391b0914610736578063e985e9c514610761578063f2fde38b1461079e576101e3565b8063bedb86fb1461063d578063c668286214610666578063c87b56dd14610691578063d5abeb01146106ce576101e3565b80638da5cb5b116100d15780638da5cb5b1461059557806395d89b41146105c0578063a22cb465146105eb578063b88d4fde14610614576101e3565b806368ef9d3c146104db57806370a0823114610518578063715018a6146105555780637bf086211461056c576101e3565b806323b872dd1161017a5780634f6ccce7116101495780634f6ccce71461040d57806355f804b31461044a5780635c975abb146104735780636352211e1461049e576101e3565b806323b872dd146103535780632eb4a7ab1461037c5780632f745c59146103a757806342842e0e146103e4576101e3565b8063095ea7b3116101b6578063095ea7b3146102b85780630eed7d8d146102e157806313faede6146102fd57806318160ddd14610328576101e3565b806301ffc9a7146101e857806303b0f38d1461022557806306fdde0314610250578063081812fc1461027b575b600080fd5b3480156101f457600080fd5b5061020f600480360381019061020a9190613204565b6107c7565b60405161021c919061324c565b60405180910390f35b34801561023157600080fd5b5061023a610841565b6040516102479190613300565b60405180910390f35b34801561025c57600080fd5b506102656108cf565b6040516102729190613300565b60405180910390f35b34801561028757600080fd5b506102a2600480360381019061029d9190613358565b610961565b6040516102af91906133c6565b60405180910390f35b3480156102c457600080fd5b506102df60048036038101906102da919061340d565b6109a7565b005b6102fb60048036038101906102f691906134b2565b610abf565b005b34801561030957600080fd5b50610312610f60565b60405161031f9190613521565b60405180910390f35b34801561033457600080fd5b5061033d610f66565b60405161034a9190613521565b60405180910390f35b34801561035f57600080fd5b5061037a6004803603810190610375919061353c565b610f73565b005b34801561038857600080fd5b50610391610fd3565b60405161039e91906135a8565b60405180910390f35b3480156103b357600080fd5b506103ce60048036038101906103c9919061340d565b610fd9565b6040516103db9190613521565b60405180910390f35b3480156103f057600080fd5b5061040b6004803603810190610406919061353c565b61107e565b005b34801561041957600080fd5b50610434600480360381019061042f9190613358565b61109e565b6040516104419190613521565b60405180910390f35b34801561045657600080fd5b50610471600480360381019061046c91906136f3565b61110f565b005b34801561047f57600080fd5b50610488611131565b604051610495919061324c565b60405180910390f35b3480156104aa57600080fd5b506104c560048036038101906104c09190613358565b611144565b6040516104d291906133c6565b60405180910390f35b3480156104e757600080fd5b5061050260048036038101906104fd9190613358565b6111cb565b60405161050f919061381a565b60405180910390f35b34801561052457600080fd5b5061053f600480360381019061053a919061383c565b611319565b60405161054c9190613521565b60405180910390f35b34801561056157600080fd5b5061056a6113d1565b005b34801561057857600080fd5b50610593600480360381019061058e919061340d565b6113e5565b005b3480156105a157600080fd5b506105aa611468565b6040516105b791906133c6565b60405180910390f35b3480156105cc57600080fd5b506105d5611492565b6040516105e29190613300565b60405180910390f35b3480156105f757600080fd5b50610612600480360381019061060d9190613895565b611524565b005b34801561062057600080fd5b5061063b60048036038101906106369190613976565b61153a565b005b34801561064957600080fd5b50610664600480360381019061065f91906139f9565b61159c565b005b34801561067257600080fd5b5061067b6115c1565b6040516106889190613300565b60405180910390f35b34801561069d57600080fd5b506106b860048036038101906106b39190613358565b61164f565b6040516106c59190613300565b60405180910390f35b3480156106da57600080fd5b506106e36116f9565b6040516106f09190613521565b60405180910390f35b34801561070557600080fd5b50610720600480360381019061071b919061383c565b6116ff565b60405161072d919061324c565b60405180910390f35b34801561074257600080fd5b5061074b61171f565b6040516107589190613b5e565b60405180910390f35b34801561076d57600080fd5b5061078860048036038101906107839190613b80565b611884565b604051610795919061324c565b60405180910390f35b3480156107aa57600080fd5b506107c560048036038101906107c0919061383c565b611918565b005b60007f780e9d63000000000000000000000000000000000000000000000000000000007bffffffffffffffffffffffffffffffffffffffffffffffffffffffff1916827bffffffffffffffffffffffffffffffffffffffffffffffffffffffff1916148061083a57506108398261199c565b5b9050919050565b600f805461084e90613bef565b80601f016020809104026020016040519081016040528092919081815260200182805461087a90613bef565b80156108c75780601f1061089c576101008083540402835291602001916108c7565b820191906000526020600020905b8154815290600101906020018083116108aa57829003601f168201915b505050505081565b6060600080546108de90613bef565b80601f016020809104026020016040519081016040528092919081815260200182805461090a90613bef565b80156109575780601f1061092c57610100808354040283529160200191610957565b820191906000526020600020905b81548152906001019060200180831161093a57829003601f168201915b5050505050905090565b600061096c82611a7e565b6004600083815260200190815260200160002060009054906101000a900473ffffffffffffffffffffffffffffffffffffffff169050919050565b60006109b282611144565b90508073ffffffffffffffffffffffffffffffffffffffff168373ffffffffffffffffffffffffffffffffffffffff161415610a23576040517f08c379a0000000000000000000000000000000000000000000000000000000008152600401610a1a90613c93565b60405180910390fd5b8073ffffffffffffffffffffffffffffffffffffffff16610a42611ac9565b73ffffffffffffffffffffffffffffffffffffffff161480610a715750610a7081610a6b611ac9565b611884565b5b610ab0576040517f08c379a0000000000000000000000000000000000000000000000000000000008152600401610aa790613d25565b60405180910390fd5b610aba8383611ad1565b505050565b6000610ac9610f66565b9050601260009054906101000a900460ff1615610b1b576040517f08c379a0000000000000000000000000000000000000000000000000000000008152600401610b1290613d91565b60405180910390fd5b601154811115610b60576040517f08c379a0000000000000000000000000000000000000000000000000000000008152600401610b5790613e23565b60405180910390fd5b60008411610ba3576040517f08c379a0000000000000000000000000000000000000000000000000000000008152600401610b9a90613e8f565b60405180910390fd5b610bab611468565b73ffffffffffffffffffffffffffffffffffffffff16610bc9611ac9565b73ffffffffffffffffffffffffffffffffffffffff1614610bf457601054841015610bf357600080fd5b5b600c6000610c00611ac9565b73ffffffffffffffffffffffffffffffffffffffff1673ffffffffffffffffffffffffffffffffffffffff16815260200190815260200160002060009054906101000a900460ff1615610c88576040517f08c379a0000000000000000000000000000000000000000000000000000000008152600401610c7f90613efb565b60405180910390fd5b6000610c92611ac9565b604051602001610ca29190613f63565b604051602081830303815290604052805190602001209050610d08848480806020026020016040519081016040528093929190818152602001838360200280828437600081840152601f19601f82011690508083019250505050505050600b5483611b8a565b610d47576040517f08c379a0000000000000000000000000000000000000000000000000000000008152600401610d3e90613fca565b60405180910390fd5b6001600c6000610d55611ac9565b73ffffffffffffffffffffffffffffffffffffffff1673ffffffffffffffffffffffffffffffffffffffff16815260200190815260200160002060006101000a81548160ff021916908315150217905550610dc3610db1611ac9565b600184610dbe9190614019565b611ba1565b60136040518060a00160405280600185610ddd9190614019565b8152602001610dea611ac9565b73ffffffffffffffffffffffffffffffffffffffff168152602001878152602001610e20600186610e1b9190614019565b611bbf565b81526020014281525090806001815401808255809150506001900390600052602060002090600502016000909190919091506000820151816000015560208201518160010160006101000a81548173ffffffffffffffffffffffffffffffffffffffff021916908373ffffffffffffffffffffffffffffffffffffffff160217905550604082015181600201556060820151816003019080519060200190610ec99291906130b0565b50608082015181600401555050610eeb600183610ee69190614019565b61164f565b604051610ef891906140ab565b6040518091039020610f08611ac9565b73ffffffffffffffffffffffffffffffffffffffff167fb9508407a6eccb191d8da3286f4173697cf95604e9ea192fe5ab7c862b5221f6848842604051610f51939291906140c2565b60405180910390a35050505050565b60105481565b6000600880549050905090565b610f84610f7e611ac9565b82611c21565b610fc3576040517f08c379a0000000000000000000000000000000000000000000000000000000008152600401610fba9061416b565b60405180910390fd5b610fce838383611cb6565b505050565b600b5481565b6000610fe483611319565b8210611025576040517f08c379a000000000000000000000000000000000000000000000000000000000815260040161101c906141fd565b60405180910390fd5b600660008473ffffffffffffffffffffffffffffffffffffffff1673ffffffffffffffffffffffffffffffffffffffff168152602001908152602001600020600083815260200190815260200160002054905092915050565b6110998383836040518060200160405280600081525061153a565b505050565b60006110a8610f66565b82106110e9576040517f08c379a00000000000000000000000000000000000000000000000000000000081526004016110e09061428f565b60405180910390fd5b600882815481106110fd576110fc6142af565b5b90600052602060002001549050919050565b611117611fb0565b80600d908051906020019061112d9291906130b0565b5050565b601260009054906101000a900460ff1681565b6000806111508361202e565b9050600073ffffffffffffffffffffffffffffffffffffffff168173ffffffffffffffffffffffffffffffffffffffff1614156111c2576040517f08c379a00000000000000000000000000000000000000000000000000000000081526004016111b99061432a565b60405180910390fd5b80915050919050565b6111d3613136565b60136001836111e2919061434a565b815481106111f3576111f26142af565b5b90600052602060002090600502016040518060a0016040529081600082015481526020016001820160009054906101000a900473ffffffffffffffffffffffffffffffffffffffff1673ffffffffffffffffffffffffffffffffffffffff1673ffffffffffffffffffffffffffffffffffffffff1681526020016002820154815260200160038201805461128690613bef565b80601f01602080910402602001604051908101604052809291908181526020018280546112b290613bef565b80156112ff5780601f106112d4576101008083540402835291602001916112ff565b820191906000526020600020905b8154815290600101906020018083116112e257829003601f168201915b505050505081526020016004820154815250509050919050565b60008073ffffffffffffffffffffffffffffffffffffffff168273ffffffffffffffffffffffffffffffffffffffff16141561138a576040517f08c379a0000000000000000000000000000000000000000000000000000000008152600401611381906143f0565b60405180910390fd5b600360008373ffffffffffffffffffffffffffffffffffffffff1673ffffffffffffffffffffffffffffffffffffffff168152602001908152602001600020549050919050565b6113d9611fb0565b6113e3600061206b565b565b6113ed611fb0565b60008273ffffffffffffffffffffffffffffffffffffffff168260405161141390614441565b60006040518083038185875af1925050503d8060008114611450576040519150601f19603f3d011682016040523d82523d6000602084013e611455565b606091505b505090508061146357600080fd5b505050565b6000600a60009054906101000a900473ffffffffffffffffffffffffffffffffffffffff16905090565b6060600180546114a190613bef565b80601f01602080910402602001604051908101604052809291908181526020018280546114cd90613bef565b801561151a5780601f106114ef5761010080835404028352916020019161151a565b820191906000526020600020905b8154815290600101906020018083116114fd57829003601f168201915b5050505050905090565b61153661152f611ac9565b8383612131565b5050565b61154b611545611ac9565b83611c21565b61158a576040517f08c379a00000000000000000000000000000000000000000000000000000000081526004016115819061416b565b60405180910390fd5b6115968484848461229e565b50505050565b6115a4611fb0565b80601260006101000a81548160ff02191690831515021790555050565b600e80546115ce90613bef565b80601f01602080910402602001604051908101604052809291908181526020018280546115fa90613bef565b80156116475780601f1061161c57610100808354040283529160200191611647565b820191906000526020600020905b81548152906001019060200180831161162a57829003601f168201915b505050505081565b606061165a826122fa565b611699576040517f08c379a0000000000000000000000000000000000000000000000000000000008152600401611690906144c8565b60405180910390fd5b60006116a361233b565b905060008151116116c357604051806020016040528060008152506116f1565b806116cd846123cd565b600e6040516020016116e19392919061457c565b6040516020818303038152906040525b915050919050565b60115481565b600c6020528060005260406000206000915054906101000a900460ff1681565b60606013805480602002602001604051908101604052809291908181526020016000905b8282101561187b57838290600052602060002090600502016040518060a0016040529081600082015481526020016001820160009054906101000a900473ffffffffffffffffffffffffffffffffffffffff1673ffffffffffffffffffffffffffffffffffffffff1673ffffffffffffffffffffffffffffffffffffffff168152602001600282015481526020016003820180546117e090613bef565b80601f016020809104026020016040519081016040528092919081815260200182805461180c90613bef565b80156118595780601f1061182e57610100808354040283529160200191611859565b820191906000526020600020905b81548152906001019060200180831161183c57829003601f168201915b5050505050815260200160048201548152505081526020019060010190611743565b50505050905090565b6000600560008473ffffffffffffffffffffffffffffffffffffffff1673ffffffffffffffffffffffffffffffffffffffff16815260200190815260200160002060008373ffffffffffffffffffffffffffffffffffffffff1673ffffffffffffffffffffffffffffffffffffffff16815260200190815260200160002060009054906101000a900460ff16905092915050565b611920611fb0565b600073ffffffffffffffffffffffffffffffffffffffff168173ffffffffffffffffffffffffffffffffffffffff161415611990576040517f08c379a00000000000000000000000000000000000000000000000000000000081526004016119879061461f565b60405180910390fd5b6119998161206b565b50565b60007f80ac58cd000000000000000000000000000000000000000000000000000000007bffffffffffffffffffffffffffffffffffffffffffffffffffffffff1916827bffffffffffffffffffffffffffffffffffffffffffffffffffffffff19161480611a6757507f5b5e139f000000000000000000000000000000000000000000000000000000007bffffffffffffffffffffffffffffffffffffffffffffffffffffffff1916827bffffffffffffffffffffffffffffffffffffffffffffffffffffffff1916145b80611a775750611a76826124a5565b5b9050919050565b611a87816122fa565b611ac6576040517f08c379a0000000000000000000000000000000000000000000000000000000008152600401611abd9061432a565b60405180910390fd5b50565b600033905090565b816004600083815260200190815260200160002060006101000a81548173ffffffffffffffffffffffffffffffffffffffff021916908373ffffffffffffffffffffffffffffffffffffffff160217905550808273ffffffffffffffffffffffffffffffffffffffff16611b4483611144565b73ffffffffffffffffffffffffffffffffffffffff167f8c5be1e5ebec7d5bd14f71427d1e84f3dd0314c0f7b2291e5b200ac8c7c3b92560405160405180910390a45050565b600082611b97858461250f565b1490509392505050565b611bbb828260405180602001604052806000815250612565565b5050565b60606000611bcb61233b565b90506000815111611beb5760405180602001604052806000815250611c19565b80611bf5846123cd565b600f604051602001611c099392919061457c565b6040516020818303038152906040525b915050919050565b600080611c2d83611144565b90508073ffffffffffffffffffffffffffffffffffffffff168473ffffffffffffffffffffffffffffffffffffffff161480611c6f5750611c6e8185611884565b5b80611cad57508373ffffffffffffffffffffffffffffffffffffffff16611c9584610961565b73ffffffffffffffffffffffffffffffffffffffff16145b91505092915050565b8273ffffffffffffffffffffffffffffffffffffffff16611cd682611144565b73ffffffffffffffffffffffffffffffffffffffff1614611d2c576040517f08c379a0000000000000000000000000000000000000000000000000000000008152600401611d23906146b1565b60405180910390fd5b600073ffffffffffffffffffffffffffffffffffffffff168273ffffffffffffffffffffffffffffffffffffffff161415611d9c576040517f08c379a0000000000000000000000000000000000000000000000000000000008152600401611d9390614743565b60405180910390fd5b611da983838360016125c0565b8273ffffffffffffffffffffffffffffffffffffffff16611dc982611144565b73ffffffffffffffffffffffffffffffffffffffff1614611e1f576040517f08c379a0000000000000000000000000000000000000000000000000000000008152600401611e16906146b1565b60405180910390fd5b6004600082815260200190815260200160002060006101000a81549073ffffffffffffffffffffffffffffffffffffffff02191690556001600360008573ffffffffffffffffffffffffffffffffffffffff1673ffffffffffffffffffffffffffffffffffffffff168152602001908152602001600020600082825403925050819055506001600360008473ffffffffffffffffffffffffffffffffffffffff1673ffffffffffffffffffffffffffffffffffffffff16815260200190815260200160002060008282540192505081905550816002600083815260200190815260200160002060006101000a81548173ffffffffffffffffffffffffffffffffffffffff021916908373ffffffffffffffffffffffffffffffffffffffff160217905550808273ffffffffffffffffffffffffffffffffffffffff168473ffffffffffffffffffffffffffffffffffffffff167fddf252ad1be2c89b69c2b068fc378daa952ba7f163c4a11628f55a4df523b3ef60405160405180910390a4611fab8383836001612720565b505050565b611fb8611ac9565b73ffffffffffffffffffffffffffffffffffffffff16611fd6611468565b73ffffffffffffffffffffffffffffffffffffffff161461202c576040517f08c379a0000000000000000000000000000000000000000000000000000000008152600401612023906147af565b60405180910390fd5b565b60006002600083815260200190815260200160002060009054906101000a900473ffffffffffffffffffffffffffffffffffffffff169050919050565b6000600a60009054906101000a900473ffffffffffffffffffffffffffffffffffffffff16905081600a60006101000a81548173ffffffffffffffffffffffffffffffffffffffff021916908373ffffffffffffffffffffffffffffffffffffffff1602179055508173ffffffffffffffffffffffffffffffffffffffff168173ffffffffffffffffffffffffffffffffffffffff167f8be0079c531659141344cd1fd0a4f28419497f9722a3daafe3b4186f6b6457e060405160405180910390a35050565b8173ffffffffffffffffffffffffffffffffffffffff168373ffffffffffffffffffffffffffffffffffffffff1614156121a0576040517f08c379a00000000000000000000000000000000000000000000000000000000081526004016121979061481b565b60405180910390fd5b80600560008573ffffffffffffffffffffffffffffffffffffffff1673ffffffffffffffffffffffffffffffffffffffff16815260200190815260200160002060008473ffffffffffffffffffffffffffffffffffffffff1673ffffffffffffffffffffffffffffffffffffffff16815260200190815260200160002060006101000a81548160ff0219169083151502179055508173ffffffffffffffffffffffffffffffffffffffff168373ffffffffffffffffffffffffffffffffffffffff167f17307eab39ab6107e8899845ad3d59bd9653f200f220920489ca2b5937696c3183604051612291919061324c565b60405180910390a3505050565b6122a9848484611cb6565b6122b584848484612726565b6122f4576040517f08c379a00000000000000000000000000000000000000000000000000000000081526004016122eb906148ad565b60405180910390fd5b50505050565b60008073ffffffffffffffffffffffffffffffffffffffff1661231c8361202e565b73ffffffffffffffffffffffffffffffffffffffff1614159050919050565b6060600d805461234a90613bef565b80601f016020809104026020016040519081016040528092919081815260200182805461237690613bef565b80156123c35780601f10612398576101008083540402835291602001916123c3565b820191906000526020600020905b8154815290600101906020018083116123a657829003601f168201915b5050505050905090565b6060600060016123dc846128ae565b01905060008167ffffffffffffffff8111156123fb576123fa6135c8565b5b6040519080825280601f01601f19166020018201604052801561242d5781602001600182028036833780820191505090505b509050600082602001820190505b60011561249a578080600190039150507f3031323334353637383961626364656600000000000000000000000000000000600a86061a8153600a8581612484576124836148cd565b5b04945060008514156124955761249a565b61243b565b819350505050919050565b60007f01ffc9a7000000000000000000000000000000000000000000000000000000007bffffffffffffffffffffffffffffffffffffffffffffffffffffffff1916827bffffffffffffffffffffffffffffffffffffffffffffffffffffffff1916149050919050565b60008082905060005b845181101561255a5761254582868381518110612538576125376142af565b5b6020026020010151612a01565b91508080612552906148fc565b915050612518565b508091505092915050565b61256f8383612a2c565b61257c6000848484612726565b6125bb576040517f08c379a00000000000000000000000000000000000000000000000000000000081526004016125b2906148ad565b60405180910390fd5b505050565b6125cc84848484612c4a565b6001811115612610576040517f08c379a0000000000000000000000000000000000000000000000000000000008152600401612607906149b7565b60405180910390fd5b6000829050600073ffffffffffffffffffffffffffffffffffffffff168573ffffffffffffffffffffffffffffffffffffffff1614156126585761265381612d70565b612697565b8373ffffffffffffffffffffffffffffffffffffffff168573ffffffffffffffffffffffffffffffffffffffff1614612696576126958582612db9565b5b5b600073ffffffffffffffffffffffffffffffffffffffff168473ffffffffffffffffffffffffffffffffffffffff1614156126da576126d581612f26565b612719565b8473ffffffffffffffffffffffffffffffffffffffff168473ffffffffffffffffffffffffffffffffffffffff1614612718576127178482612ff7565b5b5b5050505050565b50505050565b60006127478473ffffffffffffffffffffffffffffffffffffffff16613076565b156128a1578373ffffffffffffffffffffffffffffffffffffffff1663150b7a02612770611ac9565b8786866040518563ffffffff1660e01b81526004016127929493929190614a2c565b6020604051808303816000875af19250505080156127ce57506040513d601f19601f820116820180604052508101906127cb9190614a8d565b60015b612851573d80600081146127fe576040519150601f19603f3d011682016040523d82523d6000602084013e612803565b606091505b50600081511415612849576040517f08c379a0000000000000000000000000000000000000000000000000000000008152600401612840906148ad565b60405180910390fd5b805181602001fd5b63150b7a0260e01b7bffffffffffffffffffffffffffffffffffffffffffffffffffffffff1916817bffffffffffffffffffffffffffffffffffffffffffffffffffffffff1916149150506128a6565b600190505b949350505050565b600080600090507a184f03e93ff9f4daa797ed6e38ed64bf6a1f010000000000000000831061290c577a184f03e93ff9f4daa797ed6e38ed64bf6a1f0100000000000000008381612902576129016148cd565b5b0492506040810190505b6d04ee2d6d415b85acef81000000008310612949576d04ee2d6d415b85acef8100000000838161293f5761293e6148cd565b5b0492506020810190505b662386f26fc10000831061297857662386f26fc10000838161296e5761296d6148cd565b5b0492506010810190505b6305f5e10083106129a1576305f5e1008381612997576129966148cd565b5b0492506008810190505b61271083106129c65761271083816129bc576129bb6148cd565b5b0492506004810190505b606483106129e957606483816129df576129de6148cd565b5b0492506002810190505b600a83106129f8576001810190505b80915050919050565b6000818310612a1957612a148284613099565b612a24565b612a238383613099565b5b905092915050565b600073ffffffffffffffffffffffffffffffffffffffff168273ffffffffffffffffffffffffffffffffffffffff161415612a9c576040517f08c379a0000000000000000000000000000000000000000000000000000000008152600401612a9390614b06565b60405180910390fd5b612aa5816122fa565b15612ae5576040517f08c379a0000000000000000000000000000000000000000000000000000000008152600401612adc90614b72565b60405180910390fd5b612af36000838360016125c0565b612afc816122fa565b15612b3c576040517f08c379a0000000000000000000000000000000000000000000000000000000008152600401612b3390614b72565b60405180910390fd5b6001600360008473ffffffffffffffffffffffffffffffffffffffff1673ffffffffffffffffffffffffffffffffffffffff16815260200190815260200160002060008282540192505081905550816002600083815260200190815260200160002060006101000a81548173ffffffffffffffffffffffffffffffffffffffff021916908373ffffffffffffffffffffffffffffffffffffffff160217905550808273ffffffffffffffffffffffffffffffffffffffff16600073ffffffffffffffffffffffffffffffffffffffff167fddf252ad1be2c89b69c2b068fc378daa952ba7f163c4a11628f55a4df523b3ef60405160405180910390a4612c46600083836001612720565b5050565b6001811115612d6a57600073ffffffffffffffffffffffffffffffffffffffff168473ffffffffffffffffffffffffffffffffffffffff1614612cde5780600360008673ffffffffffffffffffffffffffffffffffffffff1673ffffffffffffffffffffffffffffffffffffffff1681526020019081526020016000206000828254612cd6919061434a565b925050819055505b600073ffffffffffffffffffffffffffffffffffffffff168373ffffffffffffffffffffffffffffffffffffffff1614612d695780600360008573ffffffffffffffffffffffffffffffffffffffff1673ffffffffffffffffffffffffffffffffffffffff1681526020019081526020016000206000828254612d619190614019565b925050819055505b5b50505050565b6008805490506009600083815260200190815260200160002081905550600881908060018154018082558091505060019003906000526020600020016000909190919091505550565b60006001612dc684611319565b612dd0919061434a565b9050600060076000848152602001908152602001600020549050818114612eb5576000600660008673ffffffffffffffffffffffffffffffffffffffff1673ffffffffffffffffffffffffffffffffffffffff168152602001908152602001600020600084815260200190815260200160002054905080600660008773ffffffffffffffffffffffffffffffffffffffff1673ffffffffffffffffffffffffffffffffffffffff168152602001908152602001600020600084815260200190815260200160002081905550816007600083815260200190815260200160002081905550505b6007600084815260200190815260200160002060009055600660008573ffffffffffffffffffffffffffffffffffffffff1673ffffffffffffffffffffffffffffffffffffffff16815260200190815260200160002060008381526020019081526020016000206000905550505050565b60006001600880549050612f3a919061434a565b9050600060096000848152602001908152602001600020549050600060088381548110612f6a57612f696142af565b5b906000526020600020015490508060088381548110612f8c57612f8b6142af565b5b906000526020600020018190555081600960008381526020019081526020016000208190555060096000858152602001908152602001600020600090556008805480612fdb57612fda614b92565b5b6001900381819060005260206000200160009055905550505050565b600061300283611319565b905081600660008573ffffffffffffffffffffffffffffffffffffffff1673ffffffffffffffffffffffffffffffffffffffff168152602001908152602001600020600083815260200190815260200160002081905550806007600084815260200190815260200160002081905550505050565b6000808273ffffffffffffffffffffffffffffffffffffffff163b119050919050565b600082600052816020526040600020905092915050565b8280546130bc90613bef565b90600052602060002090601f0160209004810192826130de5760008555613125565b82601f106130f757805160ff1916838001178555613125565b82800160010185558215613125579182015b82811115613124578251825591602001919060010190613109565b5b509050613132919061317b565b5090565b6040518060a0016040528060008152602001600073ffffffffffffffffffffffffffffffffffffffff1681526020016000815260200160608152602001600081525090565b5b8082111561319457600081600090555060010161317c565b5090565b6000604051905090565b600080fd5b600080fd5b60007fffffffff0000000000000000000000000000000000000000000000000000000082169050919050565b6131e1816131ac565b81146131ec57600080fd5b50565b6000813590506131fe816131d8565b92915050565b60006020828403121561321a576132196131a2565b5b6000613228848285016131ef565b91505092915050565b60008115159050919050565b61324681613231565b82525050565b6000602082019050613261600083018461323d565b92915050565b600081519050919050565b600082825260208201905092915050565b60005b838110156132a1578082015181840152602081019050613286565b838111156132b0576000848401525b50505050565b6000601f19601f8301169050919050565b60006132d282613267565b6132dc8185613272565b93506132ec818560208601613283565b6132f5816132b6565b840191505092915050565b6000602082019050818103600083015261331a81846132c7565b905092915050565b6000819050919050565b61333581613322565b811461334057600080fd5b50565b6000813590506133528161332c565b92915050565b60006020828403121561336e5761336d6131a2565b5b600061337c84828501613343565b91505092915050565b600073ffffffffffffffffffffffffffffffffffffffff82169050919050565b60006133b082613385565b9050919050565b6133c0816133a5565b82525050565b60006020820190506133db60008301846133b7565b92915050565b6133ea816133a5565b81146133f557600080fd5b50565b600081359050613407816133e1565b92915050565b60008060408385031215613424576134236131a2565b5b6000613432858286016133f8565b925050602061344385828601613343565b9150509250929050565b600080fd5b600080fd5b600080fd5b60008083601f8401126134725761347161344d565b5b8235905067ffffffffffffffff81111561348f5761348e613452565b5b6020830191508360208202830111156134ab576134aa613457565b5b9250929050565b6000806000604084860312156134cb576134ca6131a2565b5b60006134d986828701613343565b935050602084013567ffffffffffffffff8111156134fa576134f96131a7565b5b6135068682870161345c565b92509250509250925092565b61351b81613322565b82525050565b60006020820190506135366000830184613512565b92915050565b600080600060608486031215613555576135546131a2565b5b6000613563868287016133f8565b9350506020613574868287016133f8565b925050604061358586828701613343565b9150509250925092565b6000819050919050565b6135a28161358f565b82525050565b60006020820190506135bd6000830184613599565b92915050565b600080fd5b7f4e487b7100000000000000000000000000000000000000000000000000000000600052604160045260246000fd5b613600826132b6565b810181811067ffffffffffffffff8211171561361f5761361e6135c8565b5b80604052505050565b6000613632613198565b905061363e82826135f7565b919050565b600067ffffffffffffffff82111561365e5761365d6135c8565b5b613667826132b6565b9050602081019050919050565b82818337600083830152505050565b600061369661369184613643565b613628565b9050828152602081018484840111156136b2576136b16135c3565b5b6136bd848285613674565b509392505050565b600082601f8301126136da576136d961344d565b5b81356136ea848260208601613683565b91505092915050565b600060208284031215613709576137086131a2565b5b600082013567ffffffffffffffff811115613727576137266131a7565b5b613733848285016136c5565b91505092915050565b61374581613322565b82525050565b613754816133a5565b82525050565b600082825260208201905092915050565b600061377682613267565b613780818561375a565b9350613790818560208601613283565b613799816132b6565b840191505092915050565b600060a0830160008301516137bc600086018261373c565b5060208301516137cf602086018261374b565b5060408301516137e2604086018261373c565b50606083015184820360608601526137fa828261376b565b915050608083015161380f608086018261373c565b508091505092915050565b6000602082019050818103600083015261383481846137a4565b905092915050565b600060208284031215613852576138516131a2565b5b6000613860848285016133f8565b91505092915050565b61387281613231565b811461387d57600080fd5b50565b60008135905061388f81613869565b92915050565b600080604083850312156138ac576138ab6131a2565b5b60006138ba858286016133f8565b92505060206138cb85828601613880565b9150509250929050565b600067ffffffffffffffff8211156138f0576138ef6135c8565b5b6138f9826132b6565b9050602081019050919050565b6000613919613914846138d5565b613628565b905082815260208101848484011115613935576139346135c3565b5b613940848285613674565b509392505050565b600082601f83011261395d5761395c61344d565b5b813561396d848260208601613906565b91505092915050565b600080600080608085870312156139905761398f6131a2565b5b600061399e878288016133f8565b94505060206139af878288016133f8565b93505060406139c087828801613343565b925050606085013567ffffffffffffffff8111156139e1576139e06131a7565b5b6139ed87828801613948565b91505092959194509250565b600060208284031215613a0f57613a0e6131a2565b5b6000613a1d84828501613880565b91505092915050565b600081519050919050565b600082825260208201905092915050565b6000819050602082019050919050565b600060a083016000830151613a6a600086018261373c565b506020830151613a7d602086018261374b565b506040830151613a90604086018261373c565b5060608301518482036060860152613aa8828261376b565b9150506080830151613abd608086018261373c565b508091505092915050565b6000613ad48383613a52565b905092915050565b6000602082019050919050565b6000613af482613a26565b613afe8185613a31565b935083602082028501613b1085613a42565b8060005b85811015613b4c5784840389528151613b2d8582613ac8565b9450613b3883613adc565b925060208a01995050600181019050613b14565b50829750879550505050505092915050565b60006020820190508181036000830152613b788184613ae9565b905092915050565b60008060408385031215613b9757613b966131a2565b5b6000613ba5858286016133f8565b9250506020613bb6858286016133f8565b9150509250929050565b7f4e487b7100000000000000000000000000000000000000000000000000000000600052602260045260246000fd5b60006002820490506001821680613c0757607f821691505b60208210811415613c1b57613c1a613bc0565b5b50919050565b7f4552433732313a20617070726f76616c20746f2063757272656e74206f776e6560008201527f7200000000000000000000000000000000000000000000000000000000000000602082015250565b6000613c7d602183613272565b9150613c8882613c21565b604082019050919050565b60006020820190508181036000830152613cac81613c70565b9050919050565b7f4552433732313a20617070726f76652063616c6c6572206973206e6f7420746f60008201527f6b656e206f776e6572206f7220617070726f76656420666f7220616c6c000000602082015250565b6000613d0f603d83613272565b9150613d1a82613cb3565b604082019050919050565b60006020820190508181036000830152613d3e81613d02565b9050919050565b7f4e46547320756e646572206d61696e74656e616e636521000000000000000000600082015250565b6000613d7b601783613272565b9150613d8682613d45565b602082019050919050565b60006020820190508181036000830152613daa81613d6e565b9050919050565b7f536f7272792c20616c6c204e4654732068617665206265656e206d696e74656460008201527f2100000000000000000000000000000000000000000000000000000000000000602082015250565b6000613e0d602183613272565b9150613e1882613db1565b604082019050919050565b60006020820190508181036000830152613e3c81613e00565b9050919050565b7f457468657220746f6f206c6f7720666f72206d696e74696e6721000000000000600082015250565b6000613e79601a83613272565b9150613e8482613e43565b602082019050919050565b60006020820190508181036000830152613ea881613e6c565b9050919050565b7f4164647265737320616c726561647920636c61696d6564000000000000000000600082015250565b6000613ee5601783613272565b9150613ef082613eaf565b602082019050919050565b60006020820190508181036000830152613f1481613ed8565b9050919050565b60008160601b9050919050565b6000613f3382613f1b565b9050919050565b6000613f4582613f28565b9050919050565b613f5d613f58826133a5565b613f3a565b82525050565b6000613f6f8284613f4c565b60148201915081905092915050565b7f496e76616c6964204d65726b6c652050726f6f662e0000000000000000000000600082015250565b6000613fb4601583613272565b9150613fbf82613f7e565b602082019050919050565b60006020820190508181036000830152613fe381613fa7565b9050919050565b7f4e487b7100000000000000000000000000000000000000000000000000000000600052601160045260246000fd5b600061402482613322565b915061402f83613322565b9250827fffffffffffffffffffffffffffffffffffffffffffffffffffffffffffffffff0382111561406457614063613fea565b5b828201905092915050565b600081905092915050565b600061408582613267565b61408f818561406f565b935061409f818560208601613283565b80840191505092915050565b60006140b7828461407a565b915081905092915050565b60006060820190506140d76000830186613512565b6140e46020830185613512565b6140f16040830184613512565b949350505050565b7f4552433732313a2063616c6c6572206973206e6f7420746f6b656e206f776e6560008201527f72206f7220617070726f76656400000000000000000000000000000000000000602082015250565b6000614155602d83613272565b9150614160826140f9565b604082019050919050565b6000602082019050818103600083015261418481614148565b9050919050565b7f455243373231456e756d657261626c653a206f776e657220696e646578206f7560008201527f74206f6620626f756e6473000000000000000000000000000000000000000000602082015250565b60006141e7602b83613272565b91506141f28261418b565b604082019050919050565b60006020820190508181036000830152614216816141da565b9050919050565b7f455243373231456e756d657261626c653a20676c6f62616c20696e646578206f60008201527f7574206f6620626f756e64730000000000000000000000000000000000000000602082015250565b6000614279602c83613272565b91506142848261421d565b604082019050919050565b600060208201905081810360008301526142a88161426c565b9050919050565b7f4e487b7100000000000000000000000000000000000000000000000000000000600052603260045260246000fd5b7f4552433732313a20696e76616c696420746f6b656e2049440000000000000000600082015250565b6000614314601883613272565b915061431f826142de565b602082019050919050565b6000602082019050818103600083015261434381614307565b9050919050565b600061435582613322565b915061436083613322565b92508282101561437357614372613fea565b5b828203905092915050565b7f4552433732313a2061646472657373207a65726f206973206e6f74206120766160008201527f6c6964206f776e65720000000000000000000000000000000000000000000000602082015250565b60006143da602983613272565b91506143e58261437e565b604082019050919050565b60006020820190508181036000830152614409816143cd565b9050919050565b600081905092915050565b50565b600061442b600083614410565b91506144368261441b565b600082019050919050565b600061444c8261441e565b9150819050919050565b7f4552433732314d657461646174613a2055524920717565727920666f72206e6f60008201527f6e6578697374656e7420746f6b656e0000000000000000000000000000000000602082015250565b60006144b2602f83613272565b91506144bd82614456565b604082019050919050565b600060208201905081810360008301526144e1816144a5565b9050919050565b60008190508160005260206000209050919050565b6000815461450a81613bef565b614514818661406f565b9450600182166000811461452f576001811461454057614573565b60ff19831686528186019350614573565b614549856144e8565b60005b8381101561456b5781548189015260018201915060208101905061454c565b838801955050505b50505092915050565b6000614588828661407a565b9150614594828561407a565b91506145a082846144fd565b9150819050949350505050565b7f4f776e61626c653a206e6577206f776e657220697320746865207a65726f206160008201527f6464726573730000000000000000000000000000000000000000000000000000602082015250565b6000614609602683613272565b9150614614826145ad565b604082019050919050565b60006020820190508181036000830152614638816145fc565b9050919050565b7f4552433732313a207472616e736665722066726f6d20696e636f72726563742060008201527f6f776e6572000000000000000000000000000000000000000000000000000000602082015250565b600061469b602583613272565b91506146a68261463f565b604082019050919050565b600060208201905081810360008301526146ca8161468e565b9050919050565b7f4552433732313a207472616e7366657220746f20746865207a65726f2061646460008201527f7265737300000000000000000000000000000000000000000000000000000000602082015250565b600061472d602483613272565b9150614738826146d1565b604082019050919050565b6000602082019050818103600083015261475c81614720565b9050919050565b7f4f776e61626c653a2063616c6c6572206973206e6f7420746865206f776e6572600082015250565b6000614799602083613272565b91506147a482614763565b602082019050919050565b600060208201905081810360008301526147c88161478c565b9050919050565b7f4552433732313a20617070726f766520746f2063616c6c657200000000000000600082015250565b6000614805601983613272565b9150614810826147cf565b602082019050919050565b60006020820190508181036000830152614834816147f8565b9050919050565b7f4552433732313a207472616e7366657220746f206e6f6e20455243373231526560008201527f63656976657220696d706c656d656e7465720000000000000000000000000000602082015250565b6000614897603283613272565b91506148a28261483b565b604082019050919050565b600060208201905081810360008301526148c68161488a565b9050919050565b7f4e487b7100000000000000000000000000000000000000000000000000000000600052601260045260246000fd5b600061490782613322565b91507fffffffffffffffffffffffffffffffffffffffffffffffffffffffffffffffff82141561493a57614939613fea565b5b600182019050919050565b7f455243373231456e756d657261626c653a20636f6e736563757469766520747260008201527f616e7366657273206e6f7420737570706f727465640000000000000000000000602082015250565b60006149a1603583613272565b91506149ac82614945565b604082019050919050565b600060208201905081810360008301526149d081614994565b9050919050565b600081519050919050565b600082825260208201905092915050565b60006149fe826149d7565b614a0881856149e2565b9350614a18818560208601613283565b614a21816132b6565b840191505092915050565b6000608082019050614a4160008301876133b7565b614a4e60208301866133b7565b614a5b6040830185613512565b8181036060830152614a6d81846149f3565b905095945050505050565b600081519050614a87816131d8565b92915050565b600060208284031215614aa357614aa26131a2565b5b6000614ab184828501614a78565b91505092915050565b7f4552433732313a206d696e7420746f20746865207a65726f2061646472657373600082015250565b6000614af0602083613272565b9150614afb82614aba565b602082019050919050565b60006020820190508181036000830152614b1f81614ae3565b9050919050565b7f4552433732313a20746f6b656e20616c7265616479206d696e74656400000000600082015250565b6000614b5c601c83613272565b9150614b6782614b26565b602082019050919050565b60006020820190508181036000830152614b8b81614b4f565b9050919050565b7f4e487b7100000000000000000000000000000000000000000000000000000000600052603160045260246000fdfea2646970667358221220d9164839c2dd96e8cf63dc2f5e63dfe88ce4a0b77d4f50a4eef6542c915d427864736f6c634300080b0033",
  "linkReferences": {},
  "deployedLinkReferences": {}
}