{
  "_format": "hh-sol-artifact-1",
  "contractName": "WL",
  "sourceName": "contracts/WL.sol",
  "abi": [
    {
      "inputs": [
        {
          "internalType": "string",
          "name": "baseURI",
          "type": "string"
        },
        {
          "internalType": "address",
          "name": "team",
          "type": "address"
        },
        {
          "internalType": "uint256",
          "name": "totalToBeMinted",
          "type": "uint256"
        },
        {
          "internalType": "uint256",
          "name": "reserved",
          "type": "uint256"
        },
        {
          "internalType": "uint256",
          "name": "presaleReserved",
          "type": "uint256"
        },
        {
          "internalType": "bytes32",
          "name": "merkleRoot",
          "type": "bytes32"
        }
      ],
      "stateMutability": "nonpayable",
      "type": "constructor"
    },
    {
      "anonymous": false,
      "inputs": [
        {
          "indexed": true,
          "internalType": "address",
          "name": "owner",
          "type": "address"
        },
        {
          "indexed": true,
          "internalType": "address",
          "name": "approved",
          "type": "address"
        },
        {
          "indexed": true,
          "internalType": "uint256",
          "name": "tokenId",
          "type": "uint256"
        }
      ],
      "name": "Approval",
      "type": "event"
    },
    {
      "anonymous": false,
      "inputs": [
        {
          "indexed": true,
          "internalType": "address",
          "name": "owner",
          "type": "address"
        },
        {
          "indexed": true,
          "internalType": "address",
          "name": "operator",
          "type": "address"
        },
        {
          "indexed": false,
          "internalType": "bool",
          "name": "approved",
          "type": "bool"
        }
      ],
      "name": "ApprovalForAll",
      "type": "event"
    },
    {
      "anonymous": false,
      "inputs": [
        {
          "indexed": true,
          "internalType": "address",
          "name": "previousOwner",
          "type": "address"
        },
        {
          "indexed": true,
          "internalType": "address",
          "name": "newOwner",
          "type": "address"
        }
      ],
      "name": "OwnershipTransferred",
      "type": "event"
    },
    {
      "anonymous": false,
      "inputs": [
        {
          "indexed": true,
          "internalType": "address",
          "name": "from",
          "type": "address"
        },
        {
          "indexed": true,
          "internalType": "address",
          "name": "to",
          "type": "address"
        },
        {
          "indexed": true,
          "internalType": "uint256",
          "name": "tokenId",
          "type": "uint256"
        }
      ],
      "name": "Transfer",
      "type": "event"
    },
    {
      "inputs": [],
      "name": "_baseTokenURI",
      "outputs": [
        {
          "internalType": "string",
          "name": "",
          "type": "string"
        }
      ],
      "stateMutability": "view",
      "type": "function"
    },
    {
      "inputs": [],
      "name": "_maxBoredPerWallet",
      "outputs": [
        {
          "internalType": "uint256",
          "name": "",
          "type": "uint256"
        }
      ],
      "stateMutability": "view",
      "type": "function"
    },
    {
      "inputs": [],
      "name": "_merkleRoot",
      "outputs": [
        {
          "internalType": "bytes32",
          "name": "",
          "type": "bytes32"
        }
      ],
      "stateMutability": "view",
      "type": "function"
    },
    {
      "inputs": [],
      "name": "_paused",
      "outputs": [
        {
          "internalType": "bool",
          "name": "",
          "type": "bool"
        }
      ],
      "stateMutability": "view",
      "type": "function"
    },
    {
      "inputs": [],
      "name": "_presale",
      "outputs": [
        {
          "internalType": "bool",
          "name": "",
          "type": "bool"
        }
      ],
      "stateMutability": "view",
      "type": "function"
    },
    {
      "inputs": [],
      "name": "_presaleReserved",
      "outputs": [
        {
          "internalType": "uint256",
          "name": "",
          "type": "uint256"
        }
      ],
      "stateMutability": "view",
      "type": "function"
    },
    {
      "inputs": [],
      "name": "_price",
      "outputs": [
        {
          "internalType": "uint256",
          "name": "",
          "type": "uint256"
        }
      ],
      "stateMutability": "view",
      "type": "function"
    },
    {
      "inputs": [],
      "name": "_reserved",
      "outputs": [
        {
          "internalType": "uint256",
          "name": "",
          "type": "uint256"
        }
      ],
      "stateMutability": "view",
      "type": "function"
    },
    {
      "inputs": [],
      "name": "_totalToBeMinted",
      "outputs": [
        {
          "internalType": "uint256",
          "name": "",
          "type": "uint256"
        }
      ],
      "stateMutability": "view",
      "type": "function"
    },
    {
      "inputs": [
        {
          "internalType": "address",
          "name": "to",
          "type": "address"
        },
        {
          "internalType": "uint256",
          "name": "tokenId",
          "type": "uint256"
        }
      ],
      "name": "approve",
      "outputs": [],
      "stateMutability": "nonpayable",
      "type": "function"
    },
    {
      "inputs": [
        {
          "internalType": "address",
          "name": "owner",
          "type": "address"
        }
      ],
      "name": "balanceOf",
      "outputs": [
        {
          "internalType": "uint256",
          "name": "",
          "type": "uint256"
        }
      ],
      "stateMutability": "view",
      "type": "function"
    },
    {
      "inputs": [
        {
          "internalType": "uint256",
          "name": "tokenId",
          "type": "uint256"
        }
      ],
      "name": "getApproved",
      "outputs": [
        {
          "internalType": "address",
          "name": "",
          "type": "address"
        }
      ],
      "stateMutability": "view",
      "type": "function"
    },
    {
      "inputs": [],
      "name": "getPrice",
      "outputs": [
        {
          "internalType": "uint256",
          "name": "",
          "type": "uint256"
        }
      ],
      "stateMutability": "view",
      "type": "function"
    },
    {
      "inputs": [],
      "name": "getTeam",
      "outputs": [
        {
          "internalType": "address",
          "name": "",
          "type": "address"
        }
      ],
      "stateMutability": "view",
      "type": "function"
    },
    {
      "inputs": [
        {
          "internalType": "address",
          "name": "_to",
          "type": "address"
        },
        {
          "internalType": "uint256",
          "name": "_amount",
          "type": "uint256"
        }
      ],
      "name": "giveAway",
      "outputs": [],
      "stateMutability": "nonpayable",
      "type": "function"
    },
    {
      "inputs": [
        {
          "internalType": "address",
          "name": "owner",
          "type": "address"
        },
        {
          "internalType": "address",
          "name": "operator",
          "type": "address"
        }
      ],
      "name": "isApprovedForAll",
      "outputs": [
        {
          "internalType": "bool",
          "name": "",
          "type": "bool"
        }
      ],
      "stateMutability": "view",
      "type": "function"
    },
    {
      "inputs": [
        {
          "internalType": "address",
          "name": "account",
          "type": "address"
        },
        {
          "internalType": "bytes32[]",
          "name": "proof",
          "type": "bytes32[]"
        }
      ],
      "name": "isWhitelisted",
      "outputs": [
        {
          "internalType": "bool",
          "name": "",
          "type": "bool"
        }
      ],
      "stateMutability": "view",
      "type": "function"
    },
    {
      "inputs": [],
      "name": "name",
      "outputs": [
        {
          "internalType": "string",
          "name": "",
          "type": "string"
        }
      ],
      "stateMutability": "view",
      "type": "function"
    },
    {
      "inputs": [],
      "name": "owner",
      "outputs": [
        {
          "internalType": "address",
          "name": "",
          "type": "address"
        }
      ],
      "stateMutability": "view",
      "type": "function"
    },
    {
      "inputs": [
        {
          "internalType": "uint256",
          "name": "tokenId",
          "type": "uint256"
        }
      ],
      "name": "ownerOf",
      "outputs": [
        {
          "internalType": "address",
          "name": "",
          "type": "address"
        }
      ],
      "stateMutability": "view",
      "type": "function"
    },
    {
      "inputs": [
        {
          "internalType": "bool",
          "name": "val",
          "type": "bool"
        }
      ],
      "name": "pause",
      "outputs": [],
      "stateMutability": "nonpayable",
      "type": "function"
    },
    {
      "inputs": [
        {
          "internalType": "bool",
          "name": "val",
          "type": "bool"
        }
      ],
      "name": "presale",
      "outputs": [],
      "stateMutability": "nonpayable",
      "type": "function"
    },
    {
      "inputs": [],
      "name": "renounceOwnership",
      "outputs": [],
      "stateMutability": "nonpayable",
      "type": "function"
    },
    {
      "inputs": [
        {
          "internalType": "address",
          "name": "from",
          "type": "address"
        },
        {
          "internalType": "address",
          "name": "to",
          "type": "address"
        },
        {
          "internalType": "uint256",
          "name": "tokenId",
          "type": "uint256"
        }
      ],
      "name": "safeTransferFrom",
      "outputs": [],
      "stateMutability": "nonpayable",
      "type": "function"
    },
    {
      "inputs": [
        {
          "internalType": "address",
          "name": "from",
          "type": "address"
        },
        {
          "internalType": "address",
          "name": "to",
          "type": "address"
        },
        {
          "internalType": "uint256",
          "name": "tokenId",
          "type": "uint256"
        },
        {
          "internalType": "bytes",
          "name": "data",
          "type": "bytes"
        }
      ],
      "name": "safeTransferFrom",
      "outputs": [],
      "stateMutability": "nonpayable",
      "type": "function"
    },
    {
      "inputs": [
        {
          "internalType": "address",
          "name": "operator",
          "type": "address"
        },
        {
          "internalType": "bool",
          "name": "approved",
          "type": "bool"
        }
      ],
      "name": "setApprovalForAll",
      "outputs": [],
      "stateMutability": "nonpayable",
      "type": "function"
    },
    {
      "inputs": [
        {
          "internalType": "string",
          "name": "baseURI",
          "type": "string"
        }
      ],
      "name": "setBaseURI",
      "outputs": [],
      "stateMutability": "nonpayable",
      "type": "function"
    },
    {
      "inputs": [
        {
          "internalType": "uint256",
          "name": "_newMax",
          "type": "uint256"
        }
      ],
      "name": "setMaxBoredPerWallet",
      "outputs": [],
      "stateMutability": "nonpayable",
      "type": "function"
    },
    {
      "inputs": [
        {
          "internalType": "bytes32",
          "name": "merkleRootWhitelist",
          "type": "bytes32"
        },
        {
          "internalType": "uint256",
          "name": "newAvailableAmount",
          "type": "uint256"
        }
      ],
      "name": "setPresalesParam",
      "outputs": [],
      "stateMutability": "nonpayable",
      "type": "function"
    },
    {
      "inputs": [
        {
          "internalType": "uint256",
          "name": "_newPrice",
          "type": "uint256"
        }
      ],
      "name": "setPrice",
      "outputs": [],
      "stateMutability": "nonpayable",
      "type": "function"
    },
    {
      "inputs": [
        {
          "internalType": "uint256",
          "name": "amount",
          "type": "uint256"
        }
      ],
      "name": "summon",
      "outputs": [],
      "stateMutability": "payable",
      "type": "function"
    },
    {
      "inputs": [
        {
          "internalType": "bytes4",
          "name": "interfaceId",
          "type": "bytes4"
        }
      ],
      "name": "supportsInterface",
      "outputs": [
        {
          "internalType": "bool",
          "name": "",
          "type": "bool"
        }
      ],
      "stateMutability": "view",
      "type": "function"
    },
    {
      "inputs": [],
      "name": "symbol",
      "outputs": [
        {
          "internalType": "string",
          "name": "",
          "type": "string"
        }
      ],
      "stateMutability": "view",
      "type": "function"
    },
    {
      "inputs": [
        {
          "internalType": "uint256",
          "name": "index",
          "type": "uint256"
        }
      ],
      "name": "tokenByIndex",
      "outputs": [
        {
          "internalType": "uint256",
          "name": "",
          "type": "uint256"
        }
      ],
      "stateMutability": "view",
      "type": "function"
    },
    {
      "inputs": [
        {
          "internalType": "address",
          "name": "owner",
          "type": "address"
        },
        {
          "internalType": "uint256",
          "name": "index",
          "type": "uint256"
        }
      ],
      "name": "tokenOfOwnerByIndex",
      "outputs": [
        {
          "internalType": "uint256",
          "name": "",
          "type": "uint256"
        }
      ],
      "stateMutability": "view",
      "type": "function"
    },
    {
      "inputs": [
        {
          "internalType": "uint256",
          "name": "tokenId",
          "type": "uint256"
        }
      ],
      "name": "tokenURI",
      "outputs": [
        {
          "internalType": "string",
          "name": "",
          "type": "string"
        }
      ],
      "stateMutability": "view",
      "type": "function"
    },
    {
      "inputs": [],
      "name": "totalSupply",
      "outputs": [
        {
          "internalType": "uint256",
          "name": "",
          "type": "uint256"
        }
      ],
      "stateMutability": "view",
      "type": "function"
    },
    {
      "inputs": [
        {
          "internalType": "address",
          "name": "from",
          "type": "address"
        },
        {
          "internalType": "address",
          "name": "to",
          "type": "address"
        },
        {
          "internalType": "uint256",
          "name": "tokenId",
          "type": "uint256"
        }
      ],
      "name": "transferFrom",
      "outputs": [],
      "stateMutability": "nonpayable",
      "type": "function"
    },
    {
      "inputs": [
        {
          "internalType": "address",
          "name": "newOwner",
          "type": "address"
        }
      ],
      "name": "transferOwnership",
      "outputs": [],
      "stateMutability": "nonpayable",
      "type": "function"
    },
    {
      "inputs": [
        {
          "internalType": "address",
          "name": "_owner",
          "type": "address"
        }
      ],
      "name": "walletOfOwner",
      "outputs": [
        {
          "internalType": "uint256[]",
          "name": "",
          "type": "uint256[]"
        }
      ],
      "stateMutability": "view",
      "type": "function"
    },
    {
      "inputs": [
        {
          "internalType": "uint256",
          "name": "amount",
          "type": "uint256"
        },
        {
          "internalType": "bytes32[]",
          "name": "proof",
          "type": "bytes32[]"
        }
      ],
      "name": "whitelistSummon",
      "outputs": [],
      "stateMutability": "payable",
      "type": "function"
    },
    {
      "inputs": [],
      "name": "withdrawAll",
      "outputs": [],
      "stateMutability": "payable",
      "type": "function"
    }
  ],
  "bytecode": "0x60a0604052600a600d556002600e556063600f5566038d7ea4c680006010556001601160006101000a81548160ff0219169083151502179055506001601360006101000a81548160ff02191690831515021790555060006014553480156200006657600080fd5b50604051620067fe380380620067fe83398181016040528101906200008c919062001291565b6040518060400160405280600581526020017f574c4e46540000000000000000000000000000000000000000000000000000008152506040518060400160405280600281526020017f574c00000000000000000000000000000000000000000000000000000000000081525081600090805190602001906200011092919062000f69565b5080600190805190602001906200012992919062000f69565b5050506001600a819055506200015462000148620001d460201b60201c565b620001dc60201b60201c565b6200016586620002a260201b60201c565b806012819055508473ffffffffffffffffffffffffffffffffffffffff1660808173ffffffffffffffffffffffffffffffffffffffff168152505082600d8190555083600f8190555081601481905550620001c8856000620002ce60201b60201c565b50505050505062001967565b600033905090565b6000600b60009054906101000a900473ffffffffffffffffffffffffffffffffffffffff16905081600b60006101000a81548173ffffffffffffffffffffffffffffffffffffffff021916908373ffffffffffffffffffffffffffffffffffffffff1602179055508173ffffffffffffffffffffffffffffffffffffffff168173ffffffffffffffffffffffffffffffffffffffff167f8be0079c531659141344cd1fd0a4f28419497f9722a3daafe3b4186f6b6457e060405160405180910390a35050565b620002b2620002f460201b60201c565b80600c9080519060200190620002ca92919062000f69565b5050565b620002f08282604051806020016040528060008152506200038560201b60201c565b5050565b62000304620001d460201b60201c565b73ffffffffffffffffffffffffffffffffffffffff166200032a620003f360201b60201c565b73ffffffffffffffffffffffffffffffffffffffff161462000383576040517f08c379a00000000000000000000000000000000000000000000000000000000081526004016200037a90620013ad565b60405180910390fd5b565b6200039783836200041d60201b60201c565b620003ac60008484846200066460201b60201c565b620003ee576040517f08c379a0000000000000000000000000000000000000000000000000000000008152600401620003e59062001445565b60405180910390fd5b505050565b6000600b60009054906101000a900473ffffffffffffffffffffffffffffffffffffffff16905090565b600073ffffffffffffffffffffffffffffffffffffffff168273ffffffffffffffffffffffffffffffffffffffff16141562000490576040517f08c379a00000000000000000000000000000000000000000000000000000000081526004016200048790620014b7565b60405180910390fd5b620004a1816200080e60201b60201c565b15620004e4576040517f08c379a0000000000000000000000000000000000000000000000000000000008152600401620004db9062001529565b60405180910390fd5b620004fa6000838360016200085760201b60201c565b6200050b816200080e60201b60201c565b156200054e576040517f08c379a0000000000000000000000000000000000000000000000000000000008152600401620005459062001529565b60405180910390fd5b6001600360008473ffffffffffffffffffffffffffffffffffffffff1673ffffffffffffffffffffffffffffffffffffffff16815260200190815260200160002060008282540192505081905550816002600083815260200190815260200160002060006101000a81548173ffffffffffffffffffffffffffffffffffffffff021916908373ffffffffffffffffffffffffffffffffffffffff160217905550808273ffffffffffffffffffffffffffffffffffffffff16600073ffffffffffffffffffffffffffffffffffffffff167fddf252ad1be2c89b69c2b068fc378daa952ba7f163c4a11628f55a4df523b3ef60405160405180910390a462000660600083836001620009ed60201b60201c565b5050565b6000620006928473ffffffffffffffffffffffffffffffffffffffff16620009f360201b62001b011760201c565b1562000801578373ffffffffffffffffffffffffffffffffffffffff1663150b7a02620006c4620001d460201b60201c565b8786866040518563ffffffff1660e01b8152600401620006e89493929190620015ca565b6020604051808303816000875af19250505080156200072757506040513d601f19601f820116820180604052508101906200072491906200167b565b60015b620007b0573d80600081146200075a576040519150601f19603f3d011682016040523d82523d6000602084013e6200075f565b606091505b50600081511415620007a8576040517f08c379a00000000000000000000000000000000000000000000000000000000081526004016200079f9062001445565b60405180910390fd5b805181602001fd5b63150b7a0260e01b7bffffffffffffffffffffffffffffffffffffffffffffffffffffffff1916817bffffffffffffffffffffffffffffffffffffffffffffffffffffffff19161491505062000806565b600190505b949350505050565b60008073ffffffffffffffffffffffffffffffffffffffff16620008388362000a1660201b60201c565b73ffffffffffffffffffffffffffffffffffffffff1614159050919050565b620008708484848462000a5360201b62001b241760201c565b6001811115620008b7576040517f08c379a0000000000000000000000000000000000000000000000000000000008152600401620008ae9062001723565b60405180910390fd5b6000829050600073ffffffffffffffffffffffffffffffffffffffff168573ffffffffffffffffffffffffffffffffffffffff1614156200090957620009038162000b8060201b60201c565b62000951565b8373ffffffffffffffffffffffffffffffffffffffff168573ffffffffffffffffffffffffffffffffffffffff161462000950576200094f858262000bc960201b60201c565b5b5b600073ffffffffffffffffffffffffffffffffffffffff168473ffffffffffffffffffffffffffffffffffffffff1614156200099e57620009988162000d4660201b60201c565b620009e6565b8473ffffffffffffffffffffffffffffffffffffffff168473ffffffffffffffffffffffffffffffffffffffff1614620009e557620009e4848262000e2260201b60201c565b5b5b5050505050565b50505050565b6000808273ffffffffffffffffffffffffffffffffffffffff163b119050919050565b60006002600083815260200190815260200160002060009054906101000a900473ffffffffffffffffffffffffffffffffffffffff169050919050565b600181111562000b7a57600073ffffffffffffffffffffffffffffffffffffffff168473ffffffffffffffffffffffffffffffffffffffff161462000aeb5780600360008673ffffffffffffffffffffffffffffffffffffffff1673ffffffffffffffffffffffffffffffffffffffff168152602001908152602001600020600082825462000ae3919062001774565b925050819055505b600073ffffffffffffffffffffffffffffffffffffffff168373ffffffffffffffffffffffffffffffffffffffff161462000b795780600360008573ffffffffffffffffffffffffffffffffffffffff1673ffffffffffffffffffffffffffffffffffffffff168152602001908152602001600020600082825462000b719190620017af565b925050819055505b5b50505050565b6008805490506009600083815260200190815260200160002081905550600881908060018154018082558091505060019003906000526020600020016000909190919091505550565b6000600162000be38462000eae60201b620011961760201c565b62000bef919062001774565b905060006007600084815260200190815260200160002054905081811462000cd5576000600660008673ffffffffffffffffffffffffffffffffffffffff1673ffffffffffffffffffffffffffffffffffffffff168152602001908152602001600020600084815260200190815260200160002054905080600660008773ffffffffffffffffffffffffffffffffffffffff1673ffffffffffffffffffffffffffffffffffffffff168152602001908152602001600020600084815260200190815260200160002081905550816007600083815260200190815260200160002081905550505b6007600084815260200190815260200160002060009055600660008573ffffffffffffffffffffffffffffffffffffffff1673ffffffffffffffffffffffffffffffffffffffff16815260200190815260200160002060008381526020019081526020016000206000905550505050565b6000600160088054905062000d5c919062001774565b905060006009600084815260200190815260200160002054905060006008838154811062000d8f5762000d8e6200180c565b5b90600052602060002001549050806008838154811062000db45762000db36200180c565b5b90600052602060002001819055508160096000838152602001908152602001600020819055506009600085815260200190815260200160002060009055600880548062000e065762000e056200183b565b5b6001900381819060005260206000200160009055905550505050565b600062000e3a8362000eae60201b620011961760201c565b905081600660008573ffffffffffffffffffffffffffffffffffffffff1673ffffffffffffffffffffffffffffffffffffffff168152602001908152602001600020600083815260200190815260200160002081905550806007600084815260200190815260200160002081905550505050565b60008073ffffffffffffffffffffffffffffffffffffffff168273ffffffffffffffffffffffffffffffffffffffff16141562000f22576040517f08c379a000000000000000000000000000000000000000000000000000000000815260040162000f1990620018e0565b60405180910390fd5b600360008373ffffffffffffffffffffffffffffffffffffffff1673ffffffffffffffffffffffffffffffffffffffff168152602001908152602001600020549050919050565b82805462000f779062001931565b90600052602060002090601f01602090048101928262000f9b576000855562000fe7565b82601f1062000fb657805160ff191683800117855562000fe7565b8280016001018555821562000fe7579182015b8281111562000fe657825182559160200191906001019062000fc9565b5b50905062000ff6919062000ffa565b5090565b5b808211156200101557600081600090555060010162000ffb565b5090565b6000604051905090565b600080fd5b600080fd5b600080fd5b600080fd5b6000601f19601f8301169050919050565b7f4e487b7100000000000000000000000000000000000000000000000000000000600052604160045260246000fd5b620010828262001037565b810181811067ffffffffffffffff82111715620010a457620010a362001048565b5b80604052505050565b6000620010b962001019565b9050620010c7828262001077565b919050565b600067ffffffffffffffff821115620010ea57620010e962001048565b5b620010f58262001037565b9050602081019050919050565b60005b838110156200112257808201518184015260208101905062001105565b8381111562001132576000848401525b50505050565b60006200114f6200114984620010cc565b620010ad565b9050828152602081018484840111156200116e576200116d62001032565b5b6200117b84828562001102565b509392505050565b600082601f8301126200119b576200119a6200102d565b5b8151620011ad84826020860162001138565b91505092915050565b600073ffffffffffffffffffffffffffffffffffffffff82169050919050565b6000620011e382620011b6565b9050919050565b620011f581620011d6565b81146200120157600080fd5b50565b6000815190506200121581620011ea565b92915050565b6000819050919050565b62001230816200121b565b81146200123c57600080fd5b50565b600081519050620012508162001225565b92915050565b6000819050919050565b6200126b8162001256565b81146200127757600080fd5b50565b6000815190506200128b8162001260565b92915050565b60008060008060008060c08789031215620012b157620012b062001023565b5b600087015167ffffffffffffffff811115620012d257620012d162001028565b5b620012e089828a0162001183565b9650506020620012f389828a0162001204565b95505060406200130689828a016200123f565b94505060606200131989828a016200123f565b93505060806200132c89828a016200123f565b92505060a06200133f89828a016200127a565b9150509295509295509295565b600082825260208201905092915050565b7f4f776e61626c653a2063616c6c6572206973206e6f7420746865206f776e6572600082015250565b6000620013956020836200134c565b9150620013a2826200135d565b602082019050919050565b60006020820190508181036000830152620013c88162001386565b9050919050565b7f4552433732313a207472616e7366657220746f206e6f6e20455243373231526560008201527f63656976657220696d706c656d656e7465720000000000000000000000000000602082015250565b60006200142d6032836200134c565b91506200143a82620013cf565b604082019050919050565b6000602082019050818103600083015262001460816200141e565b9050919050565b7f4552433732313a206d696e7420746f20746865207a65726f2061646472657373600082015250565b60006200149f6020836200134c565b9150620014ac8262001467565b602082019050919050565b60006020820190508181036000830152620014d28162001490565b9050919050565b7f4552433732313a20746f6b656e20616c7265616479206d696e74656400000000600082015250565b600062001511601c836200134c565b91506200151e82620014d9565b602082019050919050565b60006020820190508181036000830152620015448162001502565b9050919050565b6200155681620011d6565b82525050565b62001567816200121b565b82525050565b600081519050919050565b600082825260208201905092915050565b600062001596826200156d565b620015a2818562001578565b9350620015b481856020860162001102565b620015bf8162001037565b840191505092915050565b6000608082019050620015e160008301876200154b565b620015f060208301866200154b565b620015ff60408301856200155c565b818103606083015262001613818462001589565b905095945050505050565b60007fffffffff0000000000000000000000000000000000000000000000000000000082169050919050565b62001655816200161e565b81146200166157600080fd5b50565b60008151905062001675816200164a565b92915050565b60006020828403121562001694576200169362001023565b5b6000620016a48482850162001664565b91505092915050565b7f455243373231456e756d657261626c653a20636f6e736563757469766520747260008201527f616e7366657273206e6f7420737570706f727465640000000000000000000000602082015250565b60006200170b6035836200134c565b91506200171882620016ad565b604082019050919050565b600060208201905081810360008301526200173e81620016fc565b9050919050565b7f4e487b7100000000000000000000000000000000000000000000000000000000600052601160045260246000fd5b600062001781826200121b565b91506200178e836200121b565b925082821015620017a457620017a362001745565b5b828203905092915050565b6000620017bc826200121b565b9150620017c9836200121b565b9250827fffffffffffffffffffffffffffffffffffffffffffffffffffffffffffffffff0382111562001801576200180062001745565b5b828201905092915050565b7f4e487b7100000000000000000000000000000000000000000000000000000000600052603260045260246000fd5b7f4e487b7100000000000000000000000000000000000000000000000000000000600052603160045260246000fd5b7f4552433732313a2061646472657373207a65726f206973206e6f74206120766160008201527f6c6964206f776e65720000000000000000000000000000000000000000000000602082015250565b6000620018c86029836200134c565b9150620018d5826200186a565b604082019050919050565b60006020820190508181036000830152620018fb81620018b9565b9050919050565b7f4e487b7100000000000000000000000000000000000000000000000000000000600052602260045260246000fd5b600060028204905060018216806200194a57607f821691505b6020821081141562001961576200196062001902565b5b50919050565b608051614e746200198a600039600081816112cc01526115cb0152614e746000f3fe6080604052600436106102515760003560e01c8063715018a61161013957806399a71de8116100b6578063ca8001441161007a578063ca8001441461089d578063cfc86f7b146108c6578063e2a71ef8146108f1578063e985e9c51461091c578063edc2fcfb14610959578063f2fde38b1461098257610251565b806399a71de8146107b8578063a22cb465146107e3578063aa33aa0e1461080c578063b88d4fde14610837578063c87b56dd1461086057610251565b80638da5cb5b116100fd5780638da5cb5b146106e557806391b7f5ed1461071057806395d89b4114610739578063987070d01461076457806398d5fdca1461078d57610251565b8063715018a614610654578063818a484e1461066b578063853828b61461069457806388a4aa081461069e5780638bce6edd146106ba57610251565b806323b872dd116101d25780634f6ccce7116101965780634f6ccce71461050c57806355f804b3146105495780635a23dd99146105725780636352211e146105af5780636aaa571d146105ec57806370a082311461061757610251565b806323b872dd146104155780632f745c591461043e5780632fc37ab21461047b57806342842e0e146104a6578063438b6300146104cf57610251565b8063081812fc11610219578063081812fc1461032e578063095ea7b31461036b57806316c61ccc1461039457806318160ddd146103bf578063235b6ea1146103ea57610251565b806301ffc9a7146102565780630232723d1461029357806302329a29146102be578063035d9f2a146102e757806306fdde0314610303575b600080fd5b34801561026257600080fd5b5061027d60048036038101906102789190613302565b6109ab565b60405161028a919061334a565b60405180910390f35b34801561029f57600080fd5b506102a8610a25565b6040516102b5919061337e565b60405180910390f35b3480156102ca57600080fd5b506102e560048036038101906102e091906133c5565b610a2b565b005b61030160048036038101906102fc919061341e565b610a50565b005b34801561030f57600080fd5b50610318610c45565b60405161032591906134e4565b60405180910390f35b34801561033a57600080fd5b506103556004803603810190610350919061341e565b610cd7565b6040516103629190613547565b60405180910390f35b34801561037757600080fd5b50610392600480360381019061038d919061358e565b610d1d565b005b3480156103a057600080fd5b506103a9610e35565b6040516103b6919061334a565b60405180910390f35b3480156103cb57600080fd5b506103d4610e48565b6040516103e1919061337e565b60405180910390f35b3480156103f657600080fd5b506103ff610e55565b60405161040c919061337e565b60405180910390f35b34801561042157600080fd5b5061043c600480360381019061043791906135ce565b610e5b565b005b34801561044a57600080fd5b506104656004803603810190610460919061358e565b610ebb565b604051610472919061337e565b60405180910390f35b34801561048757600080fd5b50610490610f60565b60405161049d919061363a565b60405180910390f35b3480156104b257600080fd5b506104cd60048036038101906104c891906135ce565b610f66565b005b3480156104db57600080fd5b506104f660048036038101906104f19190613655565b610f86565b6040516105039190613740565b60405180910390f35b34801561051857600080fd5b50610533600480360381019061052e919061341e565b611034565b604051610540919061337e565b60405180910390f35b34801561055557600080fd5b50610570600480360381019061056b9190613897565b6110a5565b005b34801561057e57600080fd5b50610599600480360381019061059491906139d4565b6110c7565b6040516105a6919061334a565b60405180910390f35b3480156105bb57600080fd5b506105d660048036038101906105d1919061341e565b611109565b6040516105e39190613547565b60405180910390f35b3480156105f857600080fd5b50610601611190565b60405161060e919061337e565b60405180910390f35b34801561062357600080fd5b5061063e60048036038101906106399190613655565b611196565b60405161064b919061337e565b60405180910390f35b34801561066057600080fd5b5061066961124e565b005b34801561067757600080fd5b50610692600480360381019061068d9190613a30565b611262565b005b61069c6112c2565b005b6106b860048036038101906106b39190613a70565b611360565b005b3480156106c657600080fd5b506106cf6115c7565b6040516106dc9190613547565b60405180910390f35b3480156106f157600080fd5b506106fa6115ef565b6040516107079190613547565b60405180910390f35b34801561071c57600080fd5b506107376004803603810190610732919061341e565b611619565b005b34801561074557600080fd5b5061074e61162b565b60405161075b91906134e4565b60405180910390f35b34801561077057600080fd5b5061078b6004803603810190610786919061341e565b6116bd565b005b34801561079957600080fd5b506107a26116cf565b6040516107af919061337e565b60405180910390f35b3480156107c457600080fd5b506107cd6116d9565b6040516107da919061337e565b60405180910390f35b3480156107ef57600080fd5b5061080a60048036038101906108059190613acc565b6116df565b005b34801561081857600080fd5b506108216116f5565b60405161082e919061337e565b60405180910390f35b34801561084357600080fd5b5061085e60048036038101906108599190613bad565b6116fb565b005b34801561086c57600080fd5b506108876004803603810190610882919061341e565b61175d565b60405161089491906134e4565b60405180910390f35b3480156108a957600080fd5b506108c460048036038101906108bf919061358e565b6117c5565b005b3480156108d257600080fd5b506108db611923565b6040516108e891906134e4565b60405180910390f35b3480156108fd57600080fd5b506109066119b1565b604051610913919061334a565b60405180910390f35b34801561092857600080fd5b50610943600480360381019061093e9190613c30565b6119c4565b604051610950919061334a565b60405180910390f35b34801561096557600080fd5b50610980600480360381019061097b91906133c5565b611a58565b005b34801561098e57600080fd5b506109a960048036038101906109a49190613655565b611a7d565b005b60007f780e9d63000000000000000000000000000000000000000000000000000000007bffffffffffffffffffffffffffffffffffffffffffffffffffffffff1916827bffffffffffffffffffffffffffffffffffffffffffffffffffffffff19161480610a1e5750610a1d82611c4a565b5b9050919050565b600f5481565b610a33611d2c565b80601160006101000a81548160ff02191690831515021790555050565b601160009054906101000a900460ff1615610aa0576040517f08c379a0000000000000000000000000000000000000000000000000000000008152600401610a9790613cbc565b60405180910390fd5b601360009054906101000a900460ff1615610af0576040517f08c379a0000000000000000000000000000000000000000000000000000000008152600401610ae790613d28565b60405180910390fd5b600e54610afc33611196565b82610b079190613d77565b11158015610b155750600081115b610b54576040517f08c379a0000000000000000000000000000000000000000000000000000000008152600401610b4b90613e19565b60405180910390fd5b6000610b5e610e48565b9050600d54600f54610b709190613e39565b8282610b7c9190613d77565b1115610bbd576040517f08c379a0000000000000000000000000000000000000000000000000000000008152600401610bb490613eb9565b60405180910390fd5b81601054610bcb9190613ed9565b341015610c0d576040517f08c379a0000000000000000000000000000000000000000000000000000000008152600401610c0490613f7f565b60405180910390fd5b60005b82811015610c4057610c2d338284610c289190613d77565b611daa565b8080610c3890613f9f565b915050610c10565b505050565b606060008054610c5490614017565b80601f0160208091040260200160405190810160405280929190818152602001828054610c8090614017565b8015610ccd5780601f10610ca257610100808354040283529160200191610ccd565b820191906000526020600020905b815481529060010190602001808311610cb057829003601f168201915b5050505050905090565b6000610ce282611dc8565b6004600083815260200190815260200160002060009054906101000a900473ffffffffffffffffffffffffffffffffffffffff169050919050565b6000610d2882611109565b90508073ffffffffffffffffffffffffffffffffffffffff168373ffffffffffffffffffffffffffffffffffffffff161415610d99576040517f08c379a0000000000000000000000000000000000000000000000000000000008152600401610d90906140bb565b60405180910390fd5b8073ffffffffffffffffffffffffffffffffffffffff16610db8611e13565b73ffffffffffffffffffffffffffffffffffffffff161480610de75750610de681610de1611e13565b6119c4565b5b610e26576040517f08c379a0000000000000000000000000000000000000000000000000000000008152600401610e1d9061414d565b60405180910390fd5b610e308383611e1b565b505050565b601160009054906101000a900460ff1681565b6000600880549050905090565b60105481565b610e6c610e66611e13565b82611ed4565b610eab576040517f08c379a0000000000000000000000000000000000000000000000000000000008152600401610ea2906141df565b60405180910390fd5b610eb6838383611f69565b505050565b6000610ec683611196565b8210610f07576040517f08c379a0000000000000000000000000000000000000000000000000000000008152600401610efe90614271565b60405180910390fd5b600660008473ffffffffffffffffffffffffffffffffffffffff1673ffffffffffffffffffffffffffffffffffffffff168152602001908152602001600020600083815260200190815260200160002054905092915050565b60125481565b610f81838383604051806020016040528060008152506116fb565b505050565b60606000610f9383611196565b905060008167ffffffffffffffff811115610fb157610fb061376c565b5b604051908082528060200260200182016040528015610fdf5781602001602082028036833780820191505090505b50905060005b8281101561102957610ff78582610ebb565b82828151811061100a57611009614291565b5b602002602001018181525050808061102190613f9f565b915050610fe5565b508092505050919050565b600061103e610e48565b821061107f576040517f08c379a000000000000000000000000000000000000000000000000000000000815260040161107690614332565b60405180910390fd5b6008828154811061109357611092614291565b5b90600052602060002001549050919050565b6110ad611d2c565b80600c90805190602001906110c39291906131f3565b5050565b600080836040516020016110db919061439a565b6040516020818303038152906040528051906020012090506111008360125483612263565b91505092915050565b6000806111158361227a565b9050600073ffffffffffffffffffffffffffffffffffffffff168173ffffffffffffffffffffffffffffffffffffffff161415611187576040517f08c379a000000000000000000000000000000000000000000000000000000000815260040161117e90614401565b60405180910390fd5b80915050919050565b600d5481565b60008073ffffffffffffffffffffffffffffffffffffffff168273ffffffffffffffffffffffffffffffffffffffff161415611207576040517f08c379a00000000000000000000000000000000000000000000000000000000081526004016111fe90614493565b60405180910390fd5b600360008373ffffffffffffffffffffffffffffffffffffffff1673ffffffffffffffffffffffffffffffffffffffff168152602001908152602001600020549050919050565b611256611d2c565b61126060006122b7565b565b61126a611d2c565b6000801b8214156112b0576040517f08c379a00000000000000000000000000000000000000000000000000000000081526004016112a7906144ff565b60405180910390fd5b81601281905550806014819055505050565b6112ca611d2c565b7f000000000000000000000000000000000000000000000000000000000000000073ffffffffffffffffffffffffffffffffffffffff166108fc479081150290604051600060405180830381858888f1935050505061135e576040517f08c379a00000000000000000000000000000000000000000000000000000000081526004016113559061456b565b60405180910390fd5b565b601160009054906101000a900460ff16156113b0576040517f08c379a00000000000000000000000000000000000000000000000000000000081526004016113a790613cbc565b60405180910390fd5b601360009054906101000a900460ff166113ff576040517f08c379a00000000000000000000000000000000000000000000000000000000081526004016113f6906145d7565b60405180910390fd5b61140b8160125461237d565b61144a576040517f08c379a000000000000000000000000000000000000000000000000000000000815260040161144190614643565b60405180910390fd5b600e5461145633611196565b836114619190613d77565b1115801561146f5750600082115b6114ae576040517f08c379a00000000000000000000000000000000000000000000000000000000081526004016114a590613e19565b60405180910390fd5b60006114b8610e48565b905060145483111580156114e65750600d54600f546114d79190613e39565b83826114e39190613d77565b11155b611525576040517f08c379a000000000000000000000000000000000000000000000000000000000815260040161151c906146af565b60405180910390fd5b826010546115339190613ed9565b341015611575576040517f08c379a000000000000000000000000000000000000000000000000000000000815260040161156c90613f7f565b60405180910390fd5b60005b838110156115a8576115953382846115909190613d77565b611daa565b80806115a090613f9f565b915050611578565b5082601460008282546115bb9190613e39565b92505081905550505050565b60007f0000000000000000000000000000000000000000000000000000000000000000905090565b6000600b60009054906101000a900473ffffffffffffffffffffffffffffffffffffffff16905090565b611621611d2c565b8060108190555050565b60606001805461163a90614017565b80601f016020809104026020016040519081016040528092919081815260200182805461166690614017565b80156116b35780601f10611688576101008083540402835291602001916116b3565b820191906000526020600020905b81548152906001019060200180831161169657829003601f168201915b5050505050905090565b6116c5611d2c565b80600e8190555050565b6000601054905090565b60145481565b6116f16116ea611e13565b83836123bd565b5050565b600e5481565b61170c611706611e13565b83611ed4565b61174b576040517f08c379a0000000000000000000000000000000000000000000000000000000008152600401611742906141df565b60405180910390fd5b6117578484848461252a565b50505050565b606061176882611dc8565b6000611772612586565b9050600081511161179257604051806020016040528060008152506117bd565b8061179c84612618565b6040516020016117ad92919061470b565b6040516020818303038152906040525b915050919050565b6117cd611d2c565b600d54811115611812576040517f08c379a00000000000000000000000000000000000000000000000000000000081526004016118099061477b565b60405180910390fd5b60008111611855576040517f08c379a000000000000000000000000000000000000000000000000000000000815260040161184c906147e7565b60405180910390fd5b600073ffffffffffffffffffffffffffffffffffffffff168273ffffffffffffffffffffffffffffffffffffffff1614156118c5576040517f08c379a00000000000000000000000000000000000000000000000000000000081526004016118bc90614853565b60405180910390fd5b60006118cf610e48565b905060005b82811015611904576118f18482846118ec9190613d77565b611daa565b80806118fc90613f9f565b9150506118d4565b5081600d60008282546119179190613e39565b92505081905550505050565b600c805461193090614017565b80601f016020809104026020016040519081016040528092919081815260200182805461195c90614017565b80156119a95780601f1061197e576101008083540402835291602001916119a9565b820191906000526020600020905b81548152906001019060200180831161198c57829003601f168201915b505050505081565b601360009054906101000a900460ff1681565b6000600560008473ffffffffffffffffffffffffffffffffffffffff1673ffffffffffffffffffffffffffffffffffffffff16815260200190815260200160002060008373ffffffffffffffffffffffffffffffffffffffff1673ffffffffffffffffffffffffffffffffffffffff16815260200190815260200160002060009054906101000a900460ff16905092915050565b611a60611d2c565b80601360006101000a81548160ff02191690831515021790555050565b611a85611d2c565b600073ffffffffffffffffffffffffffffffffffffffff168173ffffffffffffffffffffffffffffffffffffffff161415611af5576040517f08c379a0000000000000000000000000000000000000000000000000000000008152600401611aec906148e5565b60405180910390fd5b611afe816122b7565b50565b6000808273ffffffffffffffffffffffffffffffffffffffff163b119050919050565b6001811115611c4457600073ffffffffffffffffffffffffffffffffffffffff168473ffffffffffffffffffffffffffffffffffffffff1614611bb85780600360008673ffffffffffffffffffffffffffffffffffffffff1673ffffffffffffffffffffffffffffffffffffffff1681526020019081526020016000206000828254611bb09190613e39565b925050819055505b600073ffffffffffffffffffffffffffffffffffffffff168373ffffffffffffffffffffffffffffffffffffffff1614611c435780600360008573ffffffffffffffffffffffffffffffffffffffff1673ffffffffffffffffffffffffffffffffffffffff1681526020019081526020016000206000828254611c3b9190613d77565b925050819055505b5b50505050565b60007f80ac58cd000000000000000000000000000000000000000000000000000000007bffffffffffffffffffffffffffffffffffffffffffffffffffffffff1916827bffffffffffffffffffffffffffffffffffffffffffffffffffffffff19161480611d1557507f5b5e139f000000000000000000000000000000000000000000000000000000007bffffffffffffffffffffffffffffffffffffffffffffffffffffffff1916827bffffffffffffffffffffffffffffffffffffffffffffffffffffffff1916145b80611d255750611d24826126f0565b5b9050919050565b611d34611e13565b73ffffffffffffffffffffffffffffffffffffffff16611d526115ef565b73ffffffffffffffffffffffffffffffffffffffff1614611da8576040517f08c379a0000000000000000000000000000000000000000000000000000000008152600401611d9f90614951565b60405180910390fd5b565b611dc482826040518060200160405280600081525061275a565b5050565b611dd1816127b5565b611e10576040517f08c379a0000000000000000000000000000000000000000000000000000000008152600401611e0790614401565b60405180910390fd5b50565b600033905090565b816004600083815260200190815260200160002060006101000a81548173ffffffffffffffffffffffffffffffffffffffff021916908373ffffffffffffffffffffffffffffffffffffffff160217905550808273ffffffffffffffffffffffffffffffffffffffff16611e8e83611109565b73ffffffffffffffffffffffffffffffffffffffff167f8c5be1e5ebec7d5bd14f71427d1e84f3dd0314c0f7b2291e5b200ac8c7c3b92560405160405180910390a45050565b600080611ee083611109565b90508073ffffffffffffffffffffffffffffffffffffffff168473ffffffffffffffffffffffffffffffffffffffff161480611f225750611f2181856119c4565b5b80611f6057508373ffffffffffffffffffffffffffffffffffffffff16611f4884610cd7565b73ffffffffffffffffffffffffffffffffffffffff16145b91505092915050565b8273ffffffffffffffffffffffffffffffffffffffff16611f8982611109565b73ffffffffffffffffffffffffffffffffffffffff1614611fdf576040517f08c379a0000000000000000000000000000000000000000000000000000000008152600401611fd6906149e3565b60405180910390fd5b600073ffffffffffffffffffffffffffffffffffffffff168273ffffffffffffffffffffffffffffffffffffffff16141561204f576040517f08c379a000000000000000000000000000000000000000000000000000000000815260040161204690614a75565b60405180910390fd5b61205c83838360016127f6565b8273ffffffffffffffffffffffffffffffffffffffff1661207c82611109565b73ffffffffffffffffffffffffffffffffffffffff16146120d2576040517f08c379a00000000000000000000000000000000000000000000000000000000081526004016120c9906149e3565b60405180910390fd5b6004600082815260200190815260200160002060006101000a81549073ffffffffffffffffffffffffffffffffffffffff02191690556001600360008573ffffffffffffffffffffffffffffffffffffffff1673ffffffffffffffffffffffffffffffffffffffff168152602001908152602001600020600082825403925050819055506001600360008473ffffffffffffffffffffffffffffffffffffffff1673ffffffffffffffffffffffffffffffffffffffff16815260200190815260200160002060008282540192505081905550816002600083815260200190815260200160002060006101000a81548173ffffffffffffffffffffffffffffffffffffffff021916908373ffffffffffffffffffffffffffffffffffffffff160217905550808273ffffffffffffffffffffffffffffffffffffffff168473ffffffffffffffffffffffffffffffffffffffff167fddf252ad1be2c89b69c2b068fc378daa952ba7f163c4a11628f55a4df523b3ef60405160405180910390a461225e8383836001612956565b505050565b600082612270858461295c565b1490509392505050565b60006002600083815260200190815260200160002060009054906101000a900473ffffffffffffffffffffffffffffffffffffffff169050919050565b6000600b60009054906101000a900473ffffffffffffffffffffffffffffffffffffffff16905081600b60006101000a81548173ffffffffffffffffffffffffffffffffffffffff021916908373ffffffffffffffffffffffffffffffffffffffff1602179055508173ffffffffffffffffffffffffffffffffffffffff168173ffffffffffffffffffffffffffffffffffffffff167f8be0079c531659141344cd1fd0a4f28419497f9722a3daafe3b4186f6b6457e060405160405180910390a35050565b60008033604051602001612391919061439a565b6040516020818303038152906040528051906020012090506123b4848483612263565b91505092915050565b8173ffffffffffffffffffffffffffffffffffffffff168373ffffffffffffffffffffffffffffffffffffffff16141561242c576040517f08c379a000000000000000000000000000000000000000000000000000000000815260040161242390614ae1565b60405180910390fd5b80600560008573ffffffffffffffffffffffffffffffffffffffff1673ffffffffffffffffffffffffffffffffffffffff16815260200190815260200160002060008473ffffffffffffffffffffffffffffffffffffffff1673ffffffffffffffffffffffffffffffffffffffff16815260200190815260200160002060006101000a81548160ff0219169083151502179055508173ffffffffffffffffffffffffffffffffffffffff168373ffffffffffffffffffffffffffffffffffffffff167f17307eab39ab6107e8899845ad3d59bd9653f200f220920489ca2b5937696c318360405161251d919061334a565b60405180910390a3505050565b612535848484611f69565b612541848484846129b2565b612580576040517f08c379a000000000000000000000000000000000000000000000000000000000815260040161257790614b73565b60405180910390fd5b50505050565b6060600c805461259590614017565b80601f01602080910402602001604051908101604052809291908181526020018280546125c190614017565b801561260e5780601f106125e35761010080835404028352916020019161260e565b820191906000526020600020905b8154815290600101906020018083116125f157829003601f168201915b5050505050905090565b60606000600161262784612b3a565b01905060008167ffffffffffffffff8111156126465761264561376c565b5b6040519080825280601f01601f1916602001820160405280156126785781602001600182028036833780820191505090505b509050600082602001820190505b6001156126e5578080600190039150507f3031323334353637383961626364656600000000000000000000000000000000600a86061a8153600a85816126cf576126ce614b93565b5b04945060008514156126e0576126e5565b612686565b819350505050919050565b60007f01ffc9a7000000000000000000000000000000000000000000000000000000007bffffffffffffffffffffffffffffffffffffffffffffffffffffffff1916827bffffffffffffffffffffffffffffffffffffffffffffffffffffffff1916149050919050565b6127648383612c8d565b61277160008484846129b2565b6127b0576040517f08c379a00000000000000000000000000000000000000000000000000000000081526004016127a790614b73565b60405180910390fd5b505050565b60008073ffffffffffffffffffffffffffffffffffffffff166127d78361227a565b73ffffffffffffffffffffffffffffffffffffffff1614159050919050565b61280284848484611b24565b6001811115612846576040517f08c379a000000000000000000000000000000000000000000000000000000000815260040161283d90614c34565b60405180910390fd5b6000829050600073ffffffffffffffffffffffffffffffffffffffff168573ffffffffffffffffffffffffffffffffffffffff16141561288e5761288981612eab565b6128cd565b8373ffffffffffffffffffffffffffffffffffffffff168573ffffffffffffffffffffffffffffffffffffffff16146128cc576128cb8582612ef4565b5b5b600073ffffffffffffffffffffffffffffffffffffffff168473ffffffffffffffffffffffffffffffffffffffff1614156129105761290b81613061565b61294f565b8473ffffffffffffffffffffffffffffffffffffffff168473ffffffffffffffffffffffffffffffffffffffff161461294e5761294d8482613132565b5b5b5050505050565b50505050565b60008082905060005b84518110156129a7576129928286838151811061298557612984614291565b5b60200260200101516131b1565b9150808061299f90613f9f565b915050612965565b508091505092915050565b60006129d38473ffffffffffffffffffffffffffffffffffffffff16611b01565b15612b2d578373ffffffffffffffffffffffffffffffffffffffff1663150b7a026129fc611e13565b8786866040518563ffffffff1660e01b8152600401612a1e9493929190614ca9565b6020604051808303816000875af1925050508015612a5a57506040513d601f19601f82011682018060405250810190612a579190614d0a565b60015b612add573d8060008114612a8a576040519150601f19603f3d011682016040523d82523d6000602084013e612a8f565b606091505b50600081511415612ad5576040517f08c379a0000000000000000000000000000000000000000000000000000000008152600401612acc90614b73565b60405180910390fd5b805181602001fd5b63150b7a0260e01b7bffffffffffffffffffffffffffffffffffffffffffffffffffffffff1916817bffffffffffffffffffffffffffffffffffffffffffffffffffffffff191614915050612b32565b600190505b949350505050565b600080600090507a184f03e93ff9f4daa797ed6e38ed64bf6a1f0100000000000000008310612b98577a184f03e93ff9f4daa797ed6e38ed64bf6a1f0100000000000000008381612b8e57612b8d614b93565b5b0492506040810190505b6d04ee2d6d415b85acef81000000008310612bd5576d04ee2d6d415b85acef81000000008381612bcb57612bca614b93565b5b0492506020810190505b662386f26fc100008310612c0457662386f26fc100008381612bfa57612bf9614b93565b5b0492506010810190505b6305f5e1008310612c2d576305f5e1008381612c2357612c22614b93565b5b0492506008810190505b6127108310612c52576127108381612c4857612c47614b93565b5b0492506004810190505b60648310612c755760648381612c6b57612c6a614b93565b5b0492506002810190505b600a8310612c84576001810190505b80915050919050565b600073ffffffffffffffffffffffffffffffffffffffff168273ffffffffffffffffffffffffffffffffffffffff161415612cfd576040517f08c379a0000000000000000000000000000000000000000000000000000000008152600401612cf490614d83565b60405180910390fd5b612d06816127b5565b15612d46576040517f08c379a0000000000000000000000000000000000000000000000000000000008152600401612d3d90614def565b60405180910390fd5b612d546000838360016127f6565b612d5d816127b5565b15612d9d576040517f08c379a0000000000000000000000000000000000000000000000000000000008152600401612d9490614def565b60405180910390fd5b6001600360008473ffffffffffffffffffffffffffffffffffffffff1673ffffffffffffffffffffffffffffffffffffffff16815260200190815260200160002060008282540192505081905550816002600083815260200190815260200160002060006101000a81548173ffffffffffffffffffffffffffffffffffffffff021916908373ffffffffffffffffffffffffffffffffffffffff160217905550808273ffffffffffffffffffffffffffffffffffffffff16600073ffffffffffffffffffffffffffffffffffffffff167fddf252ad1be2c89b69c2b068fc378daa952ba7f163c4a11628f55a4df523b3ef60405160405180910390a4612ea7600083836001612956565b5050565b6008805490506009600083815260200190815260200160002081905550600881908060018154018082558091505060019003906000526020600020016000909190919091505550565b60006001612f0184611196565b612f0b9190613e39565b9050600060076000848152602001908152602001600020549050818114612ff0576000600660008673ffffffffffffffffffffffffffffffffffffffff1673ffffffffffffffffffffffffffffffffffffffff168152602001908152602001600020600084815260200190815260200160002054905080600660008773ffffffffffffffffffffffffffffffffffffffff1673ffffffffffffffffffffffffffffffffffffffff168152602001908152602001600020600084815260200190815260200160002081905550816007600083815260200190815260200160002081905550505b6007600084815260200190815260200160002060009055600660008573ffffffffffffffffffffffffffffffffffffffff1673ffffffffffffffffffffffffffffffffffffffff16815260200190815260200160002060008381526020019081526020016000206000905550505050565b600060016008805490506130759190613e39565b90506000600960008481526020019081526020016000205490506000600883815481106130a5576130a4614291565b5b9060005260206000200154905080600883815481106130c7576130c6614291565b5b90600052602060002001819055508160096000838152602001908152602001600020819055506009600085815260200190815260200160002060009055600880548061311657613115614e0f565b5b6001900381819060005260206000200160009055905550505050565b600061313d83611196565b905081600660008573ffffffffffffffffffffffffffffffffffffffff1673ffffffffffffffffffffffffffffffffffffffff168152602001908152602001600020600083815260200190815260200160002081905550806007600084815260200190815260200160002081905550505050565b60008183106131c9576131c482846131dc565b6131d4565b6131d383836131dc565b5b905092915050565b600082600052816020526040600020905092915050565b8280546131ff90614017565b90600052602060002090601f0160209004810192826132215760008555613268565b82601f1061323a57805160ff1916838001178555613268565b82800160010185558215613268579182015b8281111561326757825182559160200191906001019061324c565b5b5090506132759190613279565b5090565b5b8082111561329257600081600090555060010161327a565b5090565b6000604051905090565b600080fd5b600080fd5b60007fffffffff0000000000000000000000000000000000000000000000000000000082169050919050565b6132df816132aa565b81146132ea57600080fd5b50565b6000813590506132fc816132d6565b92915050565b600060208284031215613318576133176132a0565b5b6000613326848285016132ed565b91505092915050565b60008115159050919050565b6133448161332f565b82525050565b600060208201905061335f600083018461333b565b92915050565b6000819050919050565b61337881613365565b82525050565b6000602082019050613393600083018461336f565b92915050565b6133a28161332f565b81146133ad57600080fd5b50565b6000813590506133bf81613399565b92915050565b6000602082840312156133db576133da6132a0565b5b60006133e9848285016133b0565b91505092915050565b6133fb81613365565b811461340657600080fd5b50565b600081359050613418816133f2565b92915050565b600060208284031215613434576134336132a0565b5b600061344284828501613409565b91505092915050565b600081519050919050565b600082825260208201905092915050565b60005b8381101561348557808201518184015260208101905061346a565b83811115613494576000848401525b50505050565b6000601f19601f8301169050919050565b60006134b68261344b565b6134c08185613456565b93506134d0818560208601613467565b6134d98161349a565b840191505092915050565b600060208201905081810360008301526134fe81846134ab565b905092915050565b600073ffffffffffffffffffffffffffffffffffffffff82169050919050565b600061353182613506565b9050919050565b61354181613526565b82525050565b600060208201905061355c6000830184613538565b92915050565b61356b81613526565b811461357657600080fd5b50565b60008135905061358881613562565b92915050565b600080604083850312156135a5576135a46132a0565b5b60006135b385828601613579565b92505060206135c485828601613409565b9150509250929050565b6000806000606084860312156135e7576135e66132a0565b5b60006135f586828701613579565b935050602061360686828701613579565b925050604061361786828701613409565b9150509250925092565b6000819050919050565b61363481613621565b82525050565b600060208201905061364f600083018461362b565b92915050565b60006020828403121561366b5761366a6132a0565b5b600061367984828501613579565b91505092915050565b600081519050919050565b600082825260208201905092915050565b6000819050602082019050919050565b6136b781613365565b82525050565b60006136c983836136ae565b60208301905092915050565b6000602082019050919050565b60006136ed82613682565b6136f7818561368d565b93506137028361369e565b8060005b8381101561373357815161371a88826136bd565b9750613725836136d5565b925050600181019050613706565b5085935050505092915050565b6000602082019050818103600083015261375a81846136e2565b905092915050565b600080fd5b600080fd5b7f4e487b7100000000000000000000000000000000000000000000000000000000600052604160045260246000fd5b6137a48261349a565b810181811067ffffffffffffffff821117156137c3576137c261376c565b5b80604052505050565b60006137d6613296565b90506137e2828261379b565b919050565b600067ffffffffffffffff8211156138025761380161376c565b5b61380b8261349a565b9050602081019050919050565b82818337600083830152505050565b600061383a613835846137e7565b6137cc565b90508281526020810184848401111561385657613855613767565b5b613861848285613818565b509392505050565b600082601f83011261387e5761387d613762565b5b813561388e848260208601613827565b91505092915050565b6000602082840312156138ad576138ac6132a0565b5b600082013567ffffffffffffffff8111156138cb576138ca6132a5565b5b6138d784828501613869565b91505092915050565b600067ffffffffffffffff8211156138fb576138fa61376c565b5b602082029050602081019050919050565b600080fd5b61391a81613621565b811461392557600080fd5b50565b60008135905061393781613911565b92915050565b600061395061394b846138e0565b6137cc565b905080838252602082019050602084028301858111156139735761397261390c565b5b835b8181101561399c57806139888882613928565b845260208401935050602081019050613975565b5050509392505050565b600082601f8301126139bb576139ba613762565b5b81356139cb84826020860161393d565b91505092915050565b600080604083850312156139eb576139ea6132a0565b5b60006139f985828601613579565b925050602083013567ffffffffffffffff811115613a1a57613a196132a5565b5b613a26858286016139a6565b9150509250929050565b60008060408385031215613a4757613a466132a0565b5b6000613a5585828601613928565b9250506020613a6685828601613409565b9150509250929050565b60008060408385031215613a8757613a866132a0565b5b6000613a9585828601613409565b925050602083013567ffffffffffffffff811115613ab657613ab56132a5565b5b613ac2858286016139a6565b9150509250929050565b60008060408385031215613ae357613ae26132a0565b5b6000613af185828601613579565b9250506020613b02858286016133b0565b9150509250929050565b600067ffffffffffffffff821115613b2757613b2661376c565b5b613b308261349a565b9050602081019050919050565b6000613b50613b4b84613b0c565b6137cc565b905082815260208101848484011115613b6c57613b6b613767565b5b613b77848285613818565b509392505050565b600082601f830112613b9457613b93613762565b5b8135613ba4848260208601613b3d565b91505092915050565b60008060008060808587031215613bc757613bc66132a0565b5b6000613bd587828801613579565b9450506020613be687828801613579565b9350506040613bf787828801613409565b925050606085013567ffffffffffffffff811115613c1857613c176132a5565b5b613c2487828801613b7f565b91505092959194509250565b60008060408385031215613c4757613c466132a0565b5b6000613c5585828601613579565b9250506020613c6685828601613579565b9150509250929050565b7f5061757365640000000000000000000000000000000000000000000000000000600082015250565b6000613ca6600683613456565b9150613cb182613c70565b602082019050919050565b60006020820190508181036000830152613cd581613c99565b9050919050565b7f70726573616c6500000000000000000000000000000000000000000000000000600082015250565b6000613d12600783613456565b9150613d1d82613cdc565b602082019050919050565b60006020820190508181036000830152613d4181613d05565b9050919050565b7f4e487b7100000000000000000000000000000000000000000000000000000000600052601160045260246000fd5b6000613d8282613365565b9150613d8d83613365565b9250827fffffffffffffffffffffffffffffffffffffffffffffffffffffffffffffffff03821115613dc257613dc1613d48565b5b828201905092915050565b7f21426f726564416d6f756e740000000000000000000000000000000000000000600082015250565b6000613e03600c83613456565b9150613e0e82613dcd565b602082019050919050565b60006020820190508181036000830152613e3281613df6565b9050919050565b6000613e4482613365565b9150613e4f83613365565b925082821015613e6257613e61613d48565b5b828203905092915050565b7f3e4d6178537570706c7900000000000000000000000000000000000000000000600082015250565b6000613ea3600a83613456565b9150613eae82613e6d565b602082019050919050565b60006020820190508181036000830152613ed281613e96565b9050919050565b6000613ee482613365565b9150613eef83613365565b9250817fffffffffffffffffffffffffffffffffffffffffffffffffffffffffffffffff0483118215151615613f2857613f27613d48565b5b828202905092915050565b7f21457468416d6f756e7400000000000000000000000000000000000000000000600082015250565b6000613f69600a83613456565b9150613f7482613f33565b602082019050919050565b60006020820190508181036000830152613f9881613f5c565b9050919050565b6000613faa82613365565b91507fffffffffffffffffffffffffffffffffffffffffffffffffffffffffffffffff821415613fdd57613fdc613d48565b5b600182019050919050565b7f4e487b7100000000000000000000000000000000000000000000000000000000600052602260045260246000fd5b6000600282049050600182168061402f57607f821691505b6020821081141561404357614042613fe8565b5b50919050565b7f4552433732313a20617070726f76616c20746f2063757272656e74206f776e6560008201527f7200000000000000000000000000000000000000000000000000000000000000602082015250565b60006140a5602183613456565b91506140b082614049565b604082019050919050565b600060208201905081810360008301526140d481614098565b9050919050565b7f4552433732313a20617070726f76652063616c6c6572206973206e6f7420746f60008201527f6b656e206f776e6572206f7220617070726f76656420666f7220616c6c000000602082015250565b6000614137603d83613456565b9150614142826140db565b604082019050919050565b600060208201905081810360008301526141668161412a565b9050919050565b7f4552433732313a2063616c6c6572206973206e6f7420746f6b656e206f776e6560008201527f72206f7220617070726f76656400000000000000000000000000000000000000602082015250565b60006141c9602d83613456565b91506141d48261416d565b604082019050919050565b600060208201905081810360008301526141f8816141bc565b9050919050565b7f455243373231456e756d657261626c653a206f776e657220696e646578206f7560008201527f74206f6620626f756e6473000000000000000000000000000000000000000000602082015250565b600061425b602b83613456565b9150614266826141ff565b604082019050919050565b6000602082019050818103600083015261428a8161424e565b9050919050565b7f4e487b7100000000000000000000000000000000000000000000000000000000600052603260045260246000fd5b7f455243373231456e756d657261626c653a20676c6f62616c20696e646578206f60008201527f7574206f6620626f756e64730000000000000000000000000000000000000000602082015250565b600061431c602c83613456565b9150614327826142c0565b604082019050919050565b6000602082019050818103600083015261434b8161430f565b9050919050565b60008160601b9050919050565b600061436a82614352565b9050919050565b600061437c8261435f565b9050919050565b61439461438f82613526565b614371565b82525050565b60006143a68284614383565b60148201915081905092915050565b7f4552433732313a20696e76616c696420746f6b656e2049440000000000000000600082015250565b60006143eb601883613456565b91506143f6826143b5565b602082019050919050565b6000602082019050818103600083015261441a816143de565b9050919050565b7f4552433732313a2061646472657373207a65726f206973206e6f74206120766160008201527f6c6964206f776e65720000000000000000000000000000000000000000000000602082015250565b600061447d602983613456565b915061448882614421565b604082019050919050565b600060208201905081810360008301526144ac81614470565b9050919050565b7f216d65726b6c65526f6f74000000000000000000000000000000000000000000600082015250565b60006144e9600b83613456565b91506144f4826144b3565b602082019050919050565b60006020820190508181036000830152614518816144dc565b9050919050565b7f4e6f457468000000000000000000000000000000000000000000000000000000600082015250565b6000614555600583613456565b91506145608261451f565b602082019050919050565b6000602082019050818103600083015261458481614548565b9050919050565b7f2170726573616c65000000000000000000000000000000000000000000000000600082015250565b60006145c1600883613456565b91506145cc8261458b565b602082019050919050565b600060208201905081810360008301526145f0816145b4565b9050919050565b7f2177686974656c69737400000000000000000000000000000000000000000000600082015250565b600061462d600a83613456565b9150614638826145f7565b602082019050919050565b6000602082019050818103600083015261465c81614620565b9050919050565b7f3e617661696c61626c65537570706c7900000000000000000000000000000000600082015250565b6000614699601083613456565b91506146a482614663565b602082019050919050565b600060208201905081810360008301526146c88161468c565b9050919050565b600081905092915050565b60006146e58261344b565b6146ef81856146cf565b93506146ff818560208601613467565b80840191505092915050565b600061471782856146da565b915061472382846146da565b91508190509392505050565b7f3e72657365727665640000000000000000000000000000000000000000000000600082015250565b6000614765600983613456565b91506147708261472f565b602082019050919050565b6000602082019050818103600083015261479481614758565b9050919050565b7f5f616d6f756e743d3d3000000000000000000000000000000000000000000000600082015250565b60006147d1600a83613456565b91506147dc8261479b565b602082019050919050565b60006020820190508181036000830152614800816147c4565b9050919050565b7f5f746f3d3d300000000000000000000000000000000000000000000000000000600082015250565b600061483d600683613456565b915061484882614807565b602082019050919050565b6000602082019050818103600083015261486c81614830565b9050919050565b7f4f776e61626c653a206e6577206f776e657220697320746865207a65726f206160008201527f6464726573730000000000000000000000000000000000000000000000000000602082015250565b60006148cf602683613456565b91506148da82614873565b604082019050919050565b600060208201905081810360008301526148fe816148c2565b9050919050565b7f4f776e61626c653a2063616c6c6572206973206e6f7420746865206f776e6572600082015250565b600061493b602083613456565b915061494682614905565b602082019050919050565b6000602082019050818103600083015261496a8161492e565b9050919050565b7f4552433732313a207472616e736665722066726f6d20696e636f72726563742060008201527f6f776e6572000000000000000000000000000000000000000000000000000000602082015250565b60006149cd602583613456565b91506149d882614971565b604082019050919050565b600060208201905081810360008301526149fc816149c0565b9050919050565b7f4552433732313a207472616e7366657220746f20746865207a65726f2061646460008201527f7265737300000000000000000000000000000000000000000000000000000000602082015250565b6000614a5f602483613456565b9150614a6a82614a03565b604082019050919050565b60006020820190508181036000830152614a8e81614a52565b9050919050565b7f4552433732313a20617070726f766520746f2063616c6c657200000000000000600082015250565b6000614acb601983613456565b9150614ad682614a95565b602082019050919050565b60006020820190508181036000830152614afa81614abe565b9050919050565b7f4552433732313a207472616e7366657220746f206e6f6e20455243373231526560008201527f63656976657220696d706c656d656e7465720000000000000000000000000000602082015250565b6000614b5d603283613456565b9150614b6882614b01565b604082019050919050565b60006020820190508181036000830152614b8c81614b50565b9050919050565b7f4e487b7100000000000000000000000000000000000000000000000000000000600052601260045260246000fd5b7f455243373231456e756d657261626c653a20636f6e736563757469766520747260008201527f616e7366657273206e6f7420737570706f727465640000000000000000000000602082015250565b6000614c1e603583613456565b9150614c2982614bc2565b604082019050919050565b60006020820190508181036000830152614c4d81614c11565b9050919050565b600081519050919050565b600082825260208201905092915050565b6000614c7b82614c54565b614c858185614c5f565b9350614c95818560208601613467565b614c9e8161349a565b840191505092915050565b6000608082019050614cbe6000830187613538565b614ccb6020830186613538565b614cd8604083018561336f565b8181036060830152614cea8184614c70565b905095945050505050565b600081519050614d04816132d6565b92915050565b600060208284031215614d2057614d1f6132a0565b5b6000614d2e84828501614cf5565b91505092915050565b7f4552433732313a206d696e7420746f20746865207a65726f2061646472657373600082015250565b6000614d6d602083613456565b9150614d7882614d37565b602082019050919050565b60006020820190508181036000830152614d9c81614d60565b9050919050565b7f4552433732313a20746f6b656e20616c7265616479206d696e74656400000000600082015250565b6000614dd9601c83613456565b9150614de482614da3565b602082019050919050565b60006020820190508181036000830152614e0881614dcc565b9050919050565b7f4e487b7100000000000000000000000000000000000000000000000000000000600052603160045260246000fdfea264697066735822122034eb3210e2d197f10ff73d803d465953ace8d2d62d5cd955b1f92b0b71fef9b464736f6c634300080b0033",
  "linkReferences": {},
  "deployedLinkReferences": {}
}